{
  "transactions": [
    {
      "hash": "0x74e8297e2c2ba589ffeaa6da312605653f0e7d6d7a1aea7500bc16d199f0f9ce",
      "transactionType": "CALL",
      "contractName": null,
      "contractAddress": "0x8da83ff5533e7842076f0b66db1dd3c5de06c395",
      "function": "propose(uint16,bytes,uint256,string)",
      "arguments": [
        "2",
        "0x",
        "50",
        "Initiating create ideas layer: Seeing"
      ],
      "transaction": {
        "from": "0x328735d26e5ada93610f0006c32abe2278c46211",
        "to": "0x8da83ff5533e7842076f0b66db1dd3c5de06c395",
        "gas": "0x4fc6e",
        "value": "0x0",
        "input": "0x2e2d825300000000000000000000000000000000000000000000000000000000000000020000000000000000000000000000000000000000000000000000000000000080000000000000000000000000000000000000000000000000000000000000003200000000000000000000000000000000000000000000000000000000000000a000000000000000000000000000000000000000000000000000000000000000000000000000000000000000000000000000000000000000000000000000000025496e6974696174696e6720637265617465206964656173206c617965723a20536565696e67000000000000000000000000000000000000000000000000000000",
        "nonce": "0x1b6b",
        "chainId": "0xaa36a7"
      },
      "additionalContracts": [],
      "isFixedGasLimit": false
    },
    {
      "hash": "0x74083f5764ddb3036b7d89b7427959f851d8606d0a25dd2d37e7aed982045989",
      "transactionType": "CALL",
      "contractName": null,
      "contractAddress": "0x8da83ff5533e7842076f0b66db1dd3c5de06c395",
      "function": "propose(uint16,bytes,uint256,string)",
      "arguments": [
        "2",
        "0x",
        "51",
        "Initiating create ideas layer: Making"
      ],
      "transaction": {
        "from": "0x328735d26e5ada93610f0006c32abe2278c46211",
        "to": "0x8da83ff5533e7842076f0b66db1dd3c5de06c395",
        "gas": "0x4fc6e",
        "value": "0x0",
        "input": "0x2e2d825300000000000000000000000000000000000000000000000000000000000000020000000000000000000000000000000000000000000000000000000000000080000000000000000000000000000000000000000000000000000000000000003300000000000000000000000000000000000000000000000000000000000000a000000000000000000000000000000000000000000000000000000000000000000000000000000000000000000000000000000000000000000000000000000025496e6974696174696e6720637265617465206964656173206c617965723a204d616b696e67000000000000000000000000000000000000000000000000000000",
        "nonce": "0x1b6c",
        "chainId": "0xaa36a7"
      },
      "additionalContracts": [],
      "isFixedGasLimit": false
    },
    {
      "hash": "0x20529709a091c283b48a8bb1530dc23601e893c99cd6cc29ebb224eb12e4adac",
      "transactionType": "CALL",
      "contractName": null,
      "contractAddress": "0x8da83ff5533e7842076f0b66db1dd3c5de06c395",
      "function": "propose(uint16,bytes,uint256,string)",
      "arguments": [
        "2",
        "0x",
        "52",
        "Initiating create ideas layer: Listening"
      ],
      "transaction": {
        "from": "0x328735d26e5ada93610f0006c32abe2278c46211",
        "to": "0x8da83ff5533e7842076f0b66db1dd3c5de06c395",
        "gas": "0x547b9",
        "value": "0x0",
        "input": "0x2e2d825300000000000000000000000000000000000000000000000000000000000000020000000000000000000000000000000000000000000000000000000000000080000000000000000000000000000000000000000000000000000000000000003400000000000000000000000000000000000000000000000000000000000000a000000000000000000000000000000000000000000000000000000000000000000000000000000000000000000000000000000000000000000000000000000028496e6974696174696e6720637265617465206964656173206c617965723a204c697374656e696e67000000000000000000000000000000000000000000000000",
        "nonce": "0x1b6d",
        "chainId": "0xaa36a7"
      },
      "additionalContracts": [],
      "isFixedGasLimit": false
    },
    {
      "hash": "0x9b79c7e90a86bc44f482d320e8e60b5eda2ad7c4786586d5fdad8be44965342b",
      "transactionType": "CALL",
      "contractName": null,
      "contractAddress": "0x8da83ff5533e7842076f0b66db1dd3c5de06c395",
      "function": "propose(uint16,bytes,uint256,string)",
      "arguments": [
        "2",
        "0x",
        "53",
        "Initiating create ideas layer: Telling"
      ],
      "transaction": {
        "from": "0x328735d26e5ada93610f0006c32abe2278c46211",
        "to": "0x8da83ff5533e7842076f0b66db1dd3c5de06c395",
        "gas": "0x54796",
        "value": "0x0",
        "input": "0x2e2d825300000000000000000000000000000000000000000000000000000000000000020000000000000000000000000000000000000000000000000000000000000080000000000000000000000000000000000000000000000000000000000000003500000000000000000000000000000000000000000000000000000000000000a000000000000000000000000000000000000000000000000000000000000000000000000000000000000000000000000000000000000000000000000000000026496e6974696174696e6720637265617465206964656173206c617965723a2054656c6c696e670000000000000000000000000000000000000000000000000000",
        "nonce": "0x1b6e",
        "chainId": "0xaa36a7"
      },
      "additionalContracts": [],
      "isFixedGasLimit": false
    },
    {
      "hash": "0x88609b40f2557f3eb82c02e706eaf72fe6a31f73118abc1c0c239aa32d722931",
      "transactionType": "CALL",
      "contractName": null,
      "contractAddress": "0x8da83ff5533e7842076f0b66db1dd3c5de06c395",
      "function": "propose(uint16,bytes,uint256,string)",
      "arguments": [
        "2",
        "0x",
        "54",
        "Initiating create ideas layer: Remembering"
      ],
      "transaction": {
        "from": "0x328735d26e5ada93610f0006c32abe2278c46211",
        "to": "0x8da83ff5533e7842076f0b66db1dd3c5de06c395",
        "gas": "0x547dc",
        "value": "0x0",
        "input": "0x2e2d825300000000000000000000000000000000000000000000000000000000000000020000000000000000000000000000000000000000000000000000000000000080000000000000000000000000000000000000000000000000000000000000003600000000000000000000000000000000000000000000000000000000000000a00000000000000000000000000000000000000000000000000000000000000000000000000000000000000000000000000000000000000000000000000000002a496e6974696174696e6720637265617465206964656173206c617965723a2052656d656d626572696e6700000000000000000000000000000000000000000000",
        "nonce": "0x1b6f",
        "chainId": "0xaa36a7"
      },
      "additionalContracts": [],
      "isFixedGasLimit": false
    },
    {
      "hash": "0x717a78c3e3394d4b558e89cb1f1d3904669a9eb649450f0d4c0ececc793ad5b6",
      "transactionType": "CALL",
      "contractName": null,
      "contractAddress": "0x8da83ff5533e7842076f0b66db1dd3c5de06c395",
      "function": "propose(uint16,bytes,uint256,string)",
      "arguments": [
        "2",
        "0x",
        "55",
        "Initiating create ideas layer: Imagining"
      ],
      "transaction": {
        "from": "0x328735d26e5ada93610f0006c32abe2278c46211",
        "to": "0x8da83ff5533e7842076f0b66db1dd3c5de06c395",
        "gas": "0x547b9",
        "value": "0x0",
        "input": "0x2e2d825300000000000000000000000000000000000000000000000000000000000000020000000000000000000000000000000000000000000000000000000000000080000000000000000000000000000000000000000000000000000000000000003700000000000000000000000000000000000000000000000000000000000000a000000000000000000000000000000000000000000000000000000000000000000000000000000000000000000000000000000000000000000000000000000028496e6974696174696e6720637265617465206964656173206c617965723a20496d6167696e696e67000000000000000000000000000000000000000000000000",
        "nonce": "0x1b70",
        "chainId": "0xaa36a7"
      },
      "additionalContracts": [],
      "isFixedGasLimit": false
    },
    {
      "hash": "0xa2626250adf7f3312f6c5ffca30df5c9a6d62dda2d7d9fcea2f351fba9bc4879",
      "transactionType": "CALL",
      "contractName": null,
      "contractAddress": "0x8da83ff5533e7842076f0b66db1dd3c5de06c395",
      "function": "propose(uint16,bytes,uint256,string)",
      "arguments": [
        "2",
        "0x",
        "56",
        "Initiating create ideas layer: Tending"
      ],
      "transaction": {
        "from": "0x328735d26e5ada93610f0006c32abe2278c46211",
        "to": "0x8da83ff5533e7842076f0b66db1dd3c5de06c395",
        "gas": "0x54796",
        "value": "0x0",
        "input": "0x2e2d825300000000000000000000000000000000000000000000000000000000000000020000000000000000000000000000000000000000000000000000000000000080000000000000000000000000000000000000000000000000000000000000003800000000000000000000000000000000000000000000000000000000000000a000000000000000000000000000000000000000000000000000000000000000000000000000000000000000000000000000000000000000000000000000000026496e6974696174696e6720637265617465206964656173206c617965723a2054656e64696e670000000000000000000000000000000000000000000000000000",
        "nonce": "0x1b71",
        "chainId": "0xaa36a7"
      },
      "additionalContracts": [],
      "isFixedGasLimit": false
    },
    {
      "hash": "0x6a8f09413f1ee57f250c3074c8b6f52be8472add45964fe8fe3d81c1bc4f31ee",
      "transactionType": "CALL",
      "contractName": null,
      "contractAddress": "0x8da83ff5533e7842076f0b66db1dd3c5de06c395",
      "function": "castVote(uint256,uint8)",
      "arguments": [
        "64153550182815320879831351762740332892643225753600856584848209360243872164982",
        "1"
      ],
      "transaction": {
        "from": "0xea223f81d7e74321370a77f1e44067be8738b627",
        "to": "0x8da83ff5533e7842076f0b66db1dd3c5de06c395",
        "gas": "0x15dd7",
        "value": "0x0",
        "input": "0x567813888dd59f6543ec7e3e2c4441a5ef229ecfecf6b397c4a68596ea6a20d90656ec760000000000000000000000000000000000000000000000000000000000000001",
        "nonce": "0x68",
        "chainId": "0xaa36a7"
      },
      "additionalContracts": [],
      "isFixedGasLimit": false
    },
    {
      "hash": "0x8a7f1fe08a2e9564975a38d90497b6247f45787cc2bac0b26e90d379e7c0e53d",
      "transactionType": "CALL",
      "contractName": null,
      "contractAddress": "0x8da83ff5533e7842076f0b66db1dd3c5de06c395",
      "function": "castVote(uint256,uint8)",
      "arguments": [
        "64153550182815320879831351762740332892643225753600856584848209360243872164982",
        "1"
      ],
      "transaction": {
        "from": "0x1bfdb91b283d7ec24012d7ff5a5b29005140d09a",
        "to": "0x8da83ff5533e7842076f0b66db1dd3c5de06c395",
        "gas": "0x15dd7",
        "value": "0x0",
        "input": "0x567813888dd59f6543ec7e3e2c4441a5ef229ecfecf6b397c4a68596ea6a20d90656ec760000000000000000000000000000000000000000000000000000000000000001",
        "nonce": "0xa",
        "chainId": "0xaa36a7"
      },
      "additionalContracts": [],
      "isFixedGasLimit": false
    },
    {
      "hash": "0x91c9287a2dffe95aaade43d4cb05c3b3aed1537c9eb5a5aabbb2f446c696ee1e",
      "transactionType": "CALL",
      "contractName": null,
      "contractAddress": "0x8da83ff5533e7842076f0b66db1dd3c5de06c395",
      "function": "castVote(uint256,uint8)",
      "arguments": [
        "64153550182815320879831351762740332892643225753600856584848209360243872164982",
        "1"
      ],
      "transaction": {
        "from": "0x328735d26e5ada93610f0006c32abe2278c46211",
        "to": "0x8da83ff5533e7842076f0b66db1dd3c5de06c395",
        "gas": "0x15dd7",
        "value": "0x0",
        "input": "0x567813888dd59f6543ec7e3e2c4441a5ef229ecfecf6b397c4a68596ea6a20d90656ec760000000000000000000000000000000000000000000000000000000000000001",
        "nonce": "0x1b72",
        "chainId": "0xaa36a7"
      },
      "additionalContracts": [],
      "isFixedGasLimit": false
    },
    {
      "hash": "0xaae79fa232f8fdeb5dca7920faa350b321229fce776bcb1f2e92eb21cb66db9e",
      "transactionType": "CALL",
      "contractName": null,
      "contractAddress": "0x8da83ff5533e7842076f0b66db1dd3c5de06c395",
      "function": "castVote(uint256,uint8)",
      "arguments": [
        "111399640299724017509374124215420444055802825259718123476068214076937059284955",
        "1"
      ],
      "transaction": {
        "from": "0xea223f81d7e74321370a77f1e44067be8738b627",
        "to": "0x8da83ff5533e7842076f0b66db1dd3c5de06c395",
        "gas": "0x15dd7",
        "value": "0x0",
        "input": "0x56781388f649f645d74d85a0734696b21f82d4060cb6728c51bb36d378123f513f15b7db0000000000000000000000000000000000000000000000000000000000000001",
        "nonce": "0x69",
        "chainId": "0xaa36a7"
      },
      "additionalContracts": [],
      "isFixedGasLimit": false
    },
    {
      "hash": "0xddae9da8f11b9475d71e766b74a87051a7cc5f8056318aacd548351ab11806e8",
      "transactionType": "CALL",
      "contractName": null,
      "contractAddress": "0x8da83ff5533e7842076f0b66db1dd3c5de06c395",
      "function": "castVote(uint256,uint8)",
      "arguments": [
        "111399640299724017509374124215420444055802825259718123476068214076937059284955",
        "1"
      ],
      "transaction": {
        "from": "0x1bfdb91b283d7ec24012d7ff5a5b29005140d09a",
        "to": "0x8da83ff5533e7842076f0b66db1dd3c5de06c395",
        "gas": "0x15dd7",
        "value": "0x0",
        "input": "0x56781388f649f645d74d85a0734696b21f82d4060cb6728c51bb36d378123f513f15b7db0000000000000000000000000000000000000000000000000000000000000001",
        "nonce": "0xb",
        "chainId": "0xaa36a7"
      },
      "additionalContracts": [],
      "isFixedGasLimit": false
    },
    {
      "hash": "0x861becb1916bcdb5bb4ae2d241ed914956fd1d68152176611afd2cf7e66297cb",
      "transactionType": "CALL",
      "contractName": null,
      "contractAddress": "0x8da83ff5533e7842076f0b66db1dd3c5de06c395",
      "function": "castVote(uint256,uint8)",
      "arguments": [
        "111399640299724017509374124215420444055802825259718123476068214076937059284955",
        "1"
      ],
      "transaction": {
        "from": "0x328735d26e5ada93610f0006c32abe2278c46211",
        "to": "0x8da83ff5533e7842076f0b66db1dd3c5de06c395",
        "gas": "0x15dd7",
        "value": "0x0",
        "input": "0x56781388f649f645d74d85a0734696b21f82d4060cb6728c51bb36d378123f513f15b7db0000000000000000000000000000000000000000000000000000000000000001",
        "nonce": "0x1b73",
        "chainId": "0xaa36a7"
      },
      "additionalContracts": [],
      "isFixedGasLimit": false
    },
    {
      "hash": "0xee74ee0bfac94dade0f775ce7b34ce606e438c3f2fff7cee0c1cf73e64c1cdc4",
      "transactionType": "CALL",
      "contractName": null,
      "contractAddress": "0x8da83ff5533e7842076f0b66db1dd3c5de06c395",
      "function": "castVote(uint256,uint8)",
      "arguments": [
        "62805960385568397433708411354632179530923334538705042290223318867309129156796",
        "1"
      ],
      "transaction": {
        "from": "0xea223f81d7e74321370a77f1e44067be8738b627",
        "to": "0x8da83ff5533e7842076f0b66db1dd3c5de06c395",
        "gas": "0x15dc6",
        "value": "0x0",
        "input": "0x567813888adae9f19eabc1f34af66590e8dfce181363ebd2009d46816b656483a67cc8bc0000000000000000000000000000000000000000000000000000000000000001",
        "nonce": "0x6a",
        "chainId": "0xaa36a7"
      },
      "additionalContracts": [],
      "isFixedGasLimit": false
    },
    {
      "hash": "0x00074c65bbe50ce618bbfd6032c559c33e34389a05a231896ec8b0bcd7b55dc6",
      "transactionType": "CALL",
      "contractName": null,
      "contractAddress": "0x8da83ff5533e7842076f0b66db1dd3c5de06c395",
      "function": "castVote(uint256,uint8)",
      "arguments": [
        "62805960385568397433708411354632179530923334538705042290223318867309129156796",
        "1"
      ],
      "transaction": {
        "from": "0x1bfdb91b283d7ec24012d7ff5a5b29005140d09a",
        "to": "0x8da83ff5533e7842076f0b66db1dd3c5de06c395",
        "gas": "0x15dc6",
        "value": "0x0",
        "input": "0x567813888adae9f19eabc1f34af66590e8dfce181363ebd2009d46816b656483a67cc8bc0000000000000000000000000000000000000000000000000000000000000001",
        "nonce": "0xc",
        "chainId": "0xaa36a7"
      },
      "additionalContracts": [],
      "isFixedGasLimit": false
    },
    {
      "hash": "0x19dbad08eb65205b73a94956bb2d09044a622cc4e142c87bb547d8ff243a084d",
      "transactionType": "CALL",
      "contractName": null,
      "contractAddress": "0x8da83ff5533e7842076f0b66db1dd3c5de06c395",
      "function": "castVote(uint256,uint8)",
      "arguments": [
        "62805960385568397433708411354632179530923334538705042290223318867309129156796",
        "1"
      ],
      "transaction": {
        "from": "0x328735d26e5ada93610f0006c32abe2278c46211",
        "to": "0x8da83ff5533e7842076f0b66db1dd3c5de06c395",
        "gas": "0x15dc6",
        "value": "0x0",
        "input": "0x567813888adae9f19eabc1f34af66590e8dfce181363ebd2009d46816b656483a67cc8bc0000000000000000000000000000000000000000000000000000000000000001",
        "nonce": "0x1b74",
        "chainId": "0xaa36a7"
      },
      "additionalContracts": [],
      "isFixedGasLimit": false
    },
    {
      "hash": "0x6488860aff185cc94b7f39132e2878ecae2ac7c55fdcfdc98f9023f589a58219",
      "transactionType": "CALL",
      "contractName": null,
      "contractAddress": "0x8da83ff5533e7842076f0b66db1dd3c5de06c395",
      "function": "castVote(uint256,uint8)",
      "arguments": [
        "75999205102055027766105676848801220110069515896206295742173580922175643564910",
        "1"
      ],
      "transaction": {
        "from": "0xea223f81d7e74321370a77f1e44067be8738b627",
        "to": "0x8da83ff5533e7842076f0b66db1dd3c5de06c395",
        "gas": "0x15dd7",
        "value": "0x0",
        "input": "0x56781388a80606961e750eb5ebea5a3748585202824257f2c818bec9aa7cc6b4aab5bb6e0000000000000000000000000000000000000000000000000000000000000001",
        "nonce": "0x6b",
        "chainId": "0xaa36a7"
      },
      "additionalContracts": [],
      "isFixedGasLimit": false
    },
    {
      "hash": "0x5b17d93d57c9ad1b6448d586f3d763bc601db349605e4e35e42254cc6f5bd4d9",
      "transactionType": "CALL",
      "contractName": null,
      "contractAddress": "0x8da83ff5533e7842076f0b66db1dd3c5de06c395",
      "function": "castVote(uint256,uint8)",
      "arguments": [
        "75999205102055027766105676848801220110069515896206295742173580922175643564910",
        "1"
      ],
      "transaction": {
        "from": "0x1bfdb91b283d7ec24012d7ff5a5b29005140d09a",
        "to": "0x8da83ff5533e7842076f0b66db1dd3c5de06c395",
        "gas": "0x15dd7",
        "value": "0x0",
        "input": "0x56781388a80606961e750eb5ebea5a3748585202824257f2c818bec9aa7cc6b4aab5bb6e0000000000000000000000000000000000000000000000000000000000000001",
        "nonce": "0xd",
        "chainId": "0xaa36a7"
      },
      "additionalContracts": [],
      "isFixedGasLimit": false
    },
    {
      "hash": "0x0375179d485e1a9648bc6a68e6532b25dbc79d5c16e98c29605a65d54235279a",
      "transactionType": "CALL",
      "contractName": null,
      "contractAddress": "0x8da83ff5533e7842076f0b66db1dd3c5de06c395",
      "function": "castVote(uint256,uint8)",
      "arguments": [
        "75999205102055027766105676848801220110069515896206295742173580922175643564910",
        "1"
      ],
      "transaction": {
        "from": "0x328735d26e5ada93610f0006c32abe2278c46211",
        "to": "0x8da83ff5533e7842076f0b66db1dd3c5de06c395",
        "gas": "0x15dd7",
        "value": "0x0",
        "input": "0x56781388a80606961e750eb5ebea5a3748585202824257f2c818bec9aa7cc6b4aab5bb6e0000000000000000000000000000000000000000000000000000000000000001",
        "nonce": "0x1b75",
        "chainId": "0xaa36a7"
      },
      "additionalContracts": [],
      "isFixedGasLimit": false
    },
    {
      "hash": "0xfe2e8027a81660da5f1caf2f7f689e9d9b8889d780c1ad9466db76337de91223",
      "transactionType": "CALL",
      "contractName": null,
      "contractAddress": "0x8da83ff5533e7842076f0b66db1dd3c5de06c395",
      "function": "castVote(uint256,uint8)",
      "arguments": [
        "23566837886501170686764992067796939617757243938319085953793774400352150176079",
        "1"
      ],
      "transaction": {
        "from": "0xea223f81d7e74321370a77f1e44067be8738b627",
        "to": "0x8da83ff5533e7842076f0b66db1dd3c5de06c395",
        "gas": "0x15dd7",
        "value": "0x0",
        "input": "0x56781388341a5b88689c4c6d5af6311ca9752f7bd8f788d278972f4279ceaf87c33d414f0000000000000000000000000000000000000000000000000000000000000001",
        "nonce": "0x6c",
        "chainId": "0xaa36a7"
      },
      "additionalContracts": [],
      "isFixedGasLimit": false
    },
    {
      "hash": "0x74c1bb6624e9624390d1cd7a838dd450044edd21f322725503b47da7fb76edc7",
      "transactionType": "CALL",
      "contractName": null,
      "contractAddress": "0x8da83ff5533e7842076f0b66db1dd3c5de06c395",
      "function": "castVote(uint256,uint8)",
      "arguments": [
        "23566837886501170686764992067796939617757243938319085953793774400352150176079",
        "1"
      ],
      "transaction": {
        "from": "0x1bfdb91b283d7ec24012d7ff5a5b29005140d09a",
        "to": "0x8da83ff5533e7842076f0b66db1dd3c5de06c395",
        "gas": "0x15dd7",
        "value": "0x0",
        "input": "0x56781388341a5b88689c4c6d5af6311ca9752f7bd8f788d278972f4279ceaf87c33d414f0000000000000000000000000000000000000000000000000000000000000001",
        "nonce": "0xe",
        "chainId": "0xaa36a7"
      },
      "additionalContracts": [],
      "isFixedGasLimit": false
    },
    {
      "hash": "0x53a704bb7ef641d029315f43b1c22fb1cf723d769a586ce5e5969ef122dc97da",
      "transactionType": "CALL",
      "contractName": null,
      "contractAddress": "0x8da83ff5533e7842076f0b66db1dd3c5de06c395",
      "function": "castVote(uint256,uint8)",
      "arguments": [
        "23566837886501170686764992067796939617757243938319085953793774400352150176079",
        "1"
      ],
      "transaction": {
        "from": "0x328735d26e5ada93610f0006c32abe2278c46211",
        "to": "0x8da83ff5533e7842076f0b66db1dd3c5de06c395",
        "gas": "0x15dd7",
        "value": "0x0",
        "input": "0x56781388341a5b88689c4c6d5af6311ca9752f7bd8f788d278972f4279ceaf87c33d414f0000000000000000000000000000000000000000000000000000000000000001",
        "nonce": "0x1b76",
        "chainId": "0xaa36a7"
      },
      "additionalContracts": [],
      "isFixedGasLimit": false
    },
    {
      "hash": "0x6ce64c4a93fdbb8fa11e018588eadaa461459fec0a2fbb80e92d2de5f3b4d87a",
      "transactionType": "CALL",
      "contractName": null,
      "contractAddress": "0x8da83ff5533e7842076f0b66db1dd3c5de06c395",
      "function": "castVote(uint256,uint8)",
      "arguments": [
        "112630983698575662084272687355524294658896394095596571337619256802114688939608",
        "1"
      ],
      "transaction": {
        "from": "0xea223f81d7e74321370a77f1e44067be8738b627",
        "to": "0x8da83ff5533e7842076f0b66db1dd3c5de06c395",
        "gas": "0x15dd7",
        "value": "0x0",
        "input": "0x56781388f902e0aeed648a9647c389c469d3167d43cb30b847d799d5760b4e2d720676580000000000000000000000000000000000000000000000000000000000000001",
        "nonce": "0x6d",
        "chainId": "0xaa36a7"
      },
      "additionalContracts": [],
      "isFixedGasLimit": false
    },
    {
      "hash": "0x78fbffeb8abe150ef35f4e2a1c04b70a63f175592a040c880098f367d227c1f7",
      "transactionType": "CALL",
      "contractName": null,
      "contractAddress": "0x8da83ff5533e7842076f0b66db1dd3c5de06c395",
      "function": "castVote(uint256,uint8)",
      "arguments": [
        "112630983698575662084272687355524294658896394095596571337619256802114688939608",
        "1"
      ],
      "transaction": {
        "from": "0x1bfdb91b283d7ec24012d7ff5a5b29005140d09a",
        "to": "0x8da83ff5533e7842076f0b66db1dd3c5de06c395",
        "gas": "0x15dd7",
        "value": "0x0",
        "input": "0x56781388f902e0aeed648a9647c389c469d3167d43cb30b847d799d5760b4e2d720676580000000000000000000000000000000000000000000000000000000000000001",
        "nonce": "0xf",
        "chainId": "0xaa36a7"
      },
      "additionalContracts": [],
      "isFixedGasLimit": false
    },
    {
      "hash": "0xe581caa0e3c3e7489c1674be6ce346f7a6a0de79815248578a83218e9c466d54",
      "transactionType": "CALL",
      "contractName": null,
      "contractAddress": "0x8da83ff5533e7842076f0b66db1dd3c5de06c395",
      "function": "castVote(uint256,uint8)",
      "arguments": [
        "112630983698575662084272687355524294658896394095596571337619256802114688939608",
        "1"
      ],
      "transaction": {
        "from": "0x328735d26e5ada93610f0006c32abe2278c46211",
        "to": "0x8da83ff5533e7842076f0b66db1dd3c5de06c395",
        "gas": "0x15dd7",
        "value": "0x0",
        "input": "0x56781388f902e0aeed648a9647c389c469d3167d43cb30b847d799d5760b4e2d720676580000000000000000000000000000000000000000000000000000000000000001",
        "nonce": "0x1b77",
        "chainId": "0xaa36a7"
      },
      "additionalContracts": [],
      "isFixedGasLimit": false
    },
    {
      "hash": "0x24daf1671e329e03fe5bfa2342215b87c9a3b55535e11e691b8b28596b71693d",
      "transactionType": "CALL",
      "contractName": null,
      "contractAddress": "0x8da83ff5533e7842076f0b66db1dd3c5de06c395",
      "function": "castVote(uint256,uint8)",
      "arguments": [
        "4987171629917926241215525265490451722881214269819147390195974182484779469055",
        "1"
      ],
      "transaction": {
        "from": "0xea223f81d7e74321370a77f1e44067be8738b627",
        "to": "0x8da83ff5533e7842076f0b66db1dd3c5de06c395",
        "gas": "0x15dc6",
        "value": "0x0",
        "input": "0x567813880b06a39cd79df2acb58b2f0d6d8290f9b09f6aab780047a5dc3933f78b9c08ff0000000000000000000000000000000000000000000000000000000000000001",
        "nonce": "0x6e",
        "chainId": "0xaa36a7"
      },
      "additionalContracts": [],
      "isFixedGasLimit": false
    },
    {
      "hash": "0xf81c626114763e00207fe69a486e83c42c125581c8f53331fab796b3e541ace6",
      "transactionType": "CALL",
      "contractName": null,
      "contractAddress": "0x8da83ff5533e7842076f0b66db1dd3c5de06c395",
      "function": "castVote(uint256,uint8)",
      "arguments": [
        "4987171629917926241215525265490451722881214269819147390195974182484779469055",
        "1"
      ],
      "transaction": {
        "from": "0x1bfdb91b283d7ec24012d7ff5a5b29005140d09a",
        "to": "0x8da83ff5533e7842076f0b66db1dd3c5de06c395",
        "gas": "0x15dc6",
        "value": "0x0",
        "input": "0x567813880b06a39cd79df2acb58b2f0d6d8290f9b09f6aab780047a5dc3933f78b9c08ff0000000000000000000000000000000000000000000000000000000000000001",
        "nonce": "0x10",
        "chainId": "0xaa36a7"
      },
      "additionalContracts": [],
      "isFixedGasLimit": false
    },
    {
      "hash": "0x935d83aaf5f727e3f0e0c1b27c070c2e5f2bf87069bd6d7d1158e865848c4191",
      "transactionType": "CALL",
      "contractName": null,
      "contractAddress": "0x8da83ff5533e7842076f0b66db1dd3c5de06c395",
      "function": "castVote(uint256,uint8)",
      "arguments": [
        "4987171629917926241215525265490451722881214269819147390195974182484779469055",
        "1"
      ],
      "transaction": {
        "from": "0x328735d26e5ada93610f0006c32abe2278c46211",
        "to": "0x8da83ff5533e7842076f0b66db1dd3c5de06c395",
        "gas": "0x15dc6",
        "value": "0x0",
        "input": "0x567813880b06a39cd79df2acb58b2f0d6d8290f9b09f6aab780047a5dc3933f78b9c08ff0000000000000000000000000000000000000000000000000000000000000001",
        "nonce": "0x1b78",
        "chainId": "0xaa36a7"
      },
      "additionalContracts": [],
      "isFixedGasLimit": false
    }
  ],
  "receipts": [
    {
      "status": "0x1",
      "cumulativeGasUsed": "0x15f6d10",
      "logs": [
        {
          "address": "0x8da83ff5533e7842076f0b66db1dd3c5de06c395",
          "topics": [
            "0xb5856a9700a7e851456d3a16348b4ae0fbb11b06ac0af8dbe8e8652c57cc4cbd",
            "0x8dd59f6543ec7e3e2c4441a5ef229ecfecf6b397c4a68596ea6a20d90656ec76",
            "0x000000000000000000000000328735d26e5ada93610f0006c32abe2278c46211",
            "0x0000000000000000000000000000000000000000000000000000000000000002"
          ],
          "data": "0x00000000000000000000000000000000000000000000000000000000000000c000000000000000000000000000000000000000000000000000000000000000e00000000000000000000000000000000000000000000000000000000000a5068d0000000000000000000000000000000000000000000000000000000000a506a600000000000000000000000000000000000000000000000000000000000000320000000000000000000000000000000000000000000000000000000000000100000000000000000000000000000000000000000000000000000000000000000000000000000000000000000000000000000000000000000000000000000000000000000000000000000000000000000000000000000000000000000000000025496e6974696174696e6720637265617465206964656173206c617965723a20536565696e67000000000000000000000000000000000000000000000000000000",
          "blockHash": "0x56b39345769c281c00129fd82ecfe74ca78b39f6bd1e81382fb1e814d8dbe412",
          "blockNumber": "0xa5068d",
          "blockTimestamp": "0x69fe028c",
          "transactionHash": "0x74e8297e2c2ba589ffeaa6da312605653f0e7d6d7a1aea7500bc16d199f0f9ce",
          "transactionIndex": "0x84",
          "logIndex": "0x251",
          "removed": false
        }
      ],
      "logsBloom": "0x04000000000000000000000080000000000000000000000000000000000000010000000000000000000000000000000000000000000000000000000000800000000000000000000000000000000000000000000000000000000000000000100000000000000000000000000000000000000000000001000000000000000000000000000000000000000000000000000000000000000000000000000000000000000000000000000000000100000000000000000000000000000000000000000000000000000000100000000000008004000000000000000100000000000000000100000000000020000000000000000000000000008000000000000040000000",
      "type": "0x2",
      "transactionHash": "0x74e8297e2c2ba589ffeaa6da312605653f0e7d6d7a1aea7500bc16d199f0f9ce",
      "transactionIndex": "0x84",
      "blockHash": "0x56b39345769c281c00129fd82ecfe74ca78b39f6bd1e81382fb1e814d8dbe412",
      "blockNumber": "0xa5068d",
      "gasUsed": "0x39c1e",
      "effectiveGasPrice": "0xf42b7",
      "from": "0x328735d26e5ada93610f0006c32abe2278c46211",
      "to": "0x8da83ff5533e7842076f0b66db1dd3c5de06c395",
      "contractAddress": null
    },
    {
      "status": "0x1",
      "cumulativeGasUsed": "0x18038e1",
      "logs": [
        {
          "address": "0x8da83ff5533e7842076f0b66db1dd3c5de06c395",
          "topics": [
            "0xb5856a9700a7e851456d3a16348b4ae0fbb11b06ac0af8dbe8e8652c57cc4cbd",
            "0xf649f645d74d85a0734696b21f82d4060cb6728c51bb36d378123f513f15b7db",
            "0x000000000000000000000000328735d26e5ada93610f0006c32abe2278c46211",
            "0x0000000000000000000000000000000000000000000000000000000000000002"
          ],
          "data": "0x00000000000000000000000000000000000000000000000000000000000000c000000000000000000000000000000000000000000000000000000000000000e00000000000000000000000000000000000000000000000000000000000a5068e0000000000000000000000000000000000000000000000000000000000a506a700000000000000000000000000000000000000000000000000000000000000330000000000000000000000000000000000000000000000000000000000000100000000000000000000000000000000000000000000000000000000000000000000000000000000000000000000000000000000000000000000000000000000000000000000000000000000000000000000000000000000000000000000000025496e6974696174696e6720637265617465206964656173206c617965723a204d616b696e67000000000000000000000000000000000000000000000000000000",
          "blockHash": "0xc0a276a318d4acdc5f353eacadd5d5ad017799d949dc49faeb7261047d67bc29",
          "blockNumber": "0xa5068e",
          "blockTimestamp": "0x69fe02a4",
          "transactionHash": "0x74083f5764ddb3036b7d89b7427959f851d8606d0a25dd2d37e7aed982045989",
          "transactionIndex": "0x8b",
          "logIndex": "0x35e",
          "removed": false
        }
      ],
      "logsBloom": "0x04000000000000000000000000000000000000000000000000000000000000010000000000000000000000000000000000000000000000000000000000000000000000000000000000000000000000000000000000000000000000000000000000000000000000000000000000000000000000000001000000000000000000000000000000000000000000000000000000000000000000000000000000000000000000000000000000000100000000000000000000000000000000000000000000000000000000100000000000008004000000000000000110000000000000000100000000000020000000000000000000100000008000000000000040080000",
      "type": "0x2",
      "transactionHash": "0x74083f5764ddb3036b7d89b7427959f851d8606d0a25dd2d37e7aed982045989",
      "transactionIndex": "0x8b",
      "blockHash": "0xc0a276a318d4acdc5f353eacadd5d5ad017799d949dc49faeb7261047d67bc29",
      "blockNumber": "0xa5068e",
      "gasUsed": "0x39c1e",
      "effectiveGasPrice": "0xf42b6",
      "from": "0x328735d26e5ada93610f0006c32abe2278c46211",
      "to": "0x8da83ff5533e7842076f0b66db1dd3c5de06c395",
      "contractAddress": null
    },
    {
      "status": "0x1",
      "cumulativeGasUsed": "0xc0cfcc",
      "logs": [
        {
          "address": "0x8da83ff5533e7842076f0b66db1dd3c5de06c395",
          "topics": [
            "0xb5856a9700a7e851456d3a16348b4ae0fbb11b06ac0af8dbe8e8652c57cc4cbd",
            "0x8adae9f19eabc1f34af66590e8dfce181363ebd2009d46816b656483a67cc8bc",
            "0x000000000000000000000000328735d26e5ada93610f0006c32abe2278c46211",
            "0x0000000000000000000000000000000000000000000000000000000000000002"
          ],
          "data": "0x00000000000000000000000000000000000000000000000000000000000000c000000000000000000000000000000000000000000000000000000000000000e00000000000000000000000000000000000000000000000000000000000a5068f0000000000000000000000000000000000000000000000000000000000a506a800000000000000000000000000000000000000000000000000000000000000340000000000000000000000000000000000000000000000000000000000000100000000000000000000000000000000000000000000000000000000000000000000000000000000000000000000000000000000000000000000000000000000000000000000000000000000000000000000000000000000000000000000000028496e6974696174696e6720637265617465206964656173206c617965723a204c697374656e696e67000000000000000000000000000000000000000000000000",
          "blockHash": "0x7a802fd5553bacd6e989c0eb41d66f4cb57c9ff741cc1f49a956b2719a7e8bc2",
          "blockNumber": "0xa5068f",
          "blockTimestamp": "0x69fe02b0",
          "transactionHash": "0x20529709a091c283b48a8bb1530dc23601e893c99cd6cc29ebb224eb12e4adac",
          "transactionIndex": "0x4b",
          "logIndex": "0x13e",
          "removed": false
        }
      ],
      "logsBloom": "0x04000000000000000000000000000000000000000000000000000000000000010000000000000000000000000000000000000000000000000000000000000000000000000000000000000000000000000000000000000000000000000000000000000000000000000000000000000000000000000001000000000000000000000000000000000000000000000010000000000000000000000000000000000080000000000000000000000100000000000000000000000000000000000000000000000000000000100000000000008004000000000000000100000000000000000100000000000020000000000000000100000000008000000000000040000000",
      "type": "0x2",
      "transactionHash": "0x20529709a091c283b48a8bb1530dc23601e893c99cd6cc29ebb224eb12e4adac",
      "transactionIndex": "0x4b",
      "blockHash": "0x7a802fd5553bacd6e989c0eb41d66f4cb57c9ff741cc1f49a956b2719a7e8bc2",
      "blockNumber": "0xa5068f",
      "gasUsed": "0x39c42",
      "effectiveGasPrice": "0xf42b8",
      "from": "0x328735d26e5ada93610f0006c32abe2278c46211",
      "to": "0x8da83ff5533e7842076f0b66db1dd3c5de06c395",
      "contractAddress": null
    },
    {
      "status": "0x1",
      "cumulativeGasUsed": "0x106732d",
      "logs": [
        {
          "address": "0x8da83ff5533e7842076f0b66db1dd3c5de06c395",
          "topics": [
            "0xb5856a9700a7e851456d3a16348b4ae0fbb11b06ac0af8dbe8e8652c57cc4cbd",
            "0xa80606961e750eb5ebea5a3748585202824257f2c818bec9aa7cc6b4aab5bb6e",
            "0x000000000000000000000000328735d26e5ada93610f0006c32abe2278c46211",
            "0x0000000000000000000000000000000000000000000000000000000000000002"
          ],
          "data": "0x00000000000000000000000000000000000000000000000000000000000000c000000000000000000000000000000000000000000000000000000000000000e00000000000000000000000000000000000000000000000000000000000a506900000000000000000000000000000000000000000000000000000000000a506a900000000000000000000000000000000000000000000000000000000000000350000000000000000000000000000000000000000000000000000000000000100000000000000000000000000000000000000000000000000000000000000000000000000000000000000000000000000000000000000000000000000000000000000000000000000000000000000000000000000000000000000000000000026496e6974696174696e6720637265617465206964656173206c617965723a2054656c6c696e670000000000000000000000000000000000000000000000000000",
          "blockHash": "0x8ed9a6abb59870a70b2dec10ce7131456ebf79ecda6da73a5b40638b64f81629",
          "blockNumber": "0xa50690",
          "blockTimestamp": "0x69fe02bc",
          "transactionHash": "0x9b79c7e90a86bc44f482d320e8e60b5eda2ad7c4786586d5fdad8be44965342b",
          "transactionIndex": "0x77",
          "logIndex": "0x25b",
          "removed": false
        }
      ],
      "logsBloom": "0x04000000000000000000000000000000000000000000000000000000000000110000000000000000000000000000000000000000000000000000000000000000000000000000000000000000000000000000000000000000000000000000000000000000000000000000000000000000000000000001000000000000000000000000000000000001000000000000000000000000000000000000000000000000000000000000000000000100000000000000000000000000000000000000000000000000000000100000000000008004000000000000000100000000000000000100000000000020800000000000000000000000008000000000000040000000",
      "type": "0x2",
      "transactionHash": "0x9b79c7e90a86bc44f482d320e8e60b5eda2ad7c4786586d5fdad8be44965342b",
      "transactionIndex": "0x77",
      "blockHash": "0x8ed9a6abb59870a70b2dec10ce7131456ebf79ecda6da73a5b40638b64f81629",
      "blockNumber": "0xa50690",
      "gasUsed": "0x39c2a",
      "effectiveGasPrice": "0xf42b4",
      "from": "0x328735d26e5ada93610f0006c32abe2278c46211",
      "to": "0x8da83ff5533e7842076f0b66db1dd3c5de06c395",
      "contractAddress": null
    },
    {
      "status": "0x1",
      "cumulativeGasUsed": "0xd9d1b7",
      "logs": [
        {
          "address": "0x8da83ff5533e7842076f0b66db1dd3c5de06c395",
          "topics": [
            "0xb5856a9700a7e851456d3a16348b4ae0fbb11b06ac0af8dbe8e8652c57cc4cbd",
            "0x341a5b88689c4c6d5af6311ca9752f7bd8f788d278972f4279ceaf87c33d414f",
            "0x000000000000000000000000328735d26e5ada93610f0006c32abe2278c46211",
            "0x0000000000000000000000000000000000000000000000000000000000000002"
          ],
          "data": "0x00000000000000000000000000000000000000000000000000000000000000c000000000000000000000000000000000000000000000000000000000000000e00000000000000000000000000000000000000000000000000000000000a506910000000000000000000000000000000000000000000000000000000000a506aa0000000000000000000000000000000000000000000000000000000000000036000000000000000000000000000000000000000000000000000000000000010000000000000000000000000000000000000000000000000000000000000000000000000000000000000000000000000000000000000000000000000000000000000000000000000000000000000000000000000000000000000000000000002a496e6974696174696e6720637265617465206964656173206c617965723a2052656d656d626572696e6700000000000000000000000000000000000000000000",
          "blockHash": "0x4dd35fc058e4edbeff710ba820ed84590a552747cdb2448997e168e04c83c2bb",
          "blockNumber": "0xa50691",
          "blockTimestamp": "0x69fe02c8",
          "transactionHash": "0x88609b40f2557f3eb82c02e706eaf72fe6a31f73118abc1c0c239aa32d722931",
          "transactionIndex": "0x43",
          "logIndex": "0x108",
          "removed": false
        }
      ],
      "logsBloom": "0x04000000000000000000000000000000000000000000000000000000000000010000000000000000000000000000000000000000000000000000000000000000000000000000000000000000000000000000000000000000000020000000000000000000000000000000000000000000000000000001000000000000000000000000000000000000000000000000000000000000000000000000000000000000000000000000000000000100000000000000000000000000000000000000000000000000000000100000000000008004000000000000000100000100000000000100020000000020000000000000000000000000008000000000000040000000",
      "type": "0x2",
      "transactionHash": "0x88609b40f2557f3eb82c02e706eaf72fe6a31f73118abc1c0c239aa32d722931",
      "transactionIndex": "0x43",
      "blockHash": "0x4dd35fc058e4edbeff710ba820ed84590a552747cdb2448997e168e04c83c2bb",
      "blockNumber": "0xa50691",
      "gasUsed": "0x39c5a",
      "effectiveGasPrice": "0xf42b4",
      "from": "0x328735d26e5ada93610f0006c32abe2278c46211",
      "to": "0x8da83ff5533e7842076f0b66db1dd3c5de06c395",
      "contractAddress": null
    },
    {
      "status": "0x1",
      "cumulativeGasUsed": "0xc63ffa",
      "logs": [
        {
          "address": "0x8da83ff5533e7842076f0b66db1dd3c5de06c395",
          "topics": [
            "0xb5856a9700a7e851456d3a16348b4ae0fbb11b06ac0af8dbe8e8652c57cc4cbd",
            "0xf902e0aeed648a9647c389c469d3167d43cb30b847d799d5760b4e2d72067658",
            "0x000000000000000000000000328735d26e5ada93610f0006c32abe2278c46211",
            "0x0000000000000000000000000000000000000000000000000000000000000002"
          ],
          "data": "0x00000000000000000000000000000000000000000000000000000000000000c000000000000000000000000000000000000000000000000000000000000000e00000000000000000000000000000000000000000000000000000000000a506920000000000000000000000000000000000000000000000000000000000a506ab00000000000000000000000000000000000000000000000000000000000000370000000000000000000000000000000000000000000000000000000000000100000000000000000000000000000000000000000000000000000000000000000000000000000000000000000000000000000000000000000000000000000000000000000000000000000000000000000000000000000000000000000000000028496e6974696174696e6720637265617465206964656173206c617965723a20496d6167696e696e67000000000000000000000000000000000000000000000000",
          "blockHash": "0x6383799ea226a4cb80d7ec302fa7553d90d2d73f0438ef80d24e1027e48aad01",
          "blockNumber": "0xa50692",
          "blockTimestamp": "0x69fe02d4",
          "transactionHash": "0x717a78c3e3394d4b558e89cb1f1d3904669a9eb649450f0d4c0ececc793ad5b6",
          "transactionIndex": "0x46",
          "logIndex": "0x1ca",
          "removed": false
        }
      ],
      "logsBloom": "0x04000000000000000000000000000000000000000000000000000000000000010000000000000000000000000000000000000000000000000000000000000000000000000000000000000000000000000000000000000000000000000000000000000000000000000000000000000000000000000081000000000000000000000000000000000000000000000000000000000000000000000000000000000000000000000000000000000100000000000000000000000000000000000000000000000000000000100000000000008004020000000000000100000000000000000100000000000020000000000000000000000000008000000000002040000000",
      "type": "0x2",
      "transactionHash": "0x717a78c3e3394d4b558e89cb1f1d3904669a9eb649450f0d4c0ececc793ad5b6",
      "transactionIndex": "0x46",
      "blockHash": "0x6383799ea226a4cb80d7ec302fa7553d90d2d73f0438ef80d24e1027e48aad01",
      "blockNumber": "0xa50692",
      "gasUsed": "0x39c42",
      "effectiveGasPrice": "0xf42b5",
      "from": "0x328735d26e5ada93610f0006c32abe2278c46211",
      "to": "0x8da83ff5533e7842076f0b66db1dd3c5de06c395",
      "contractAddress": null
    },
    {
      "status": "0x1",
      "cumulativeGasUsed": "0x9637b1",
      "logs": [
        {
          "address": "0x8da83ff5533e7842076f0b66db1dd3c5de06c395",
          "topics": [
            "0xb5856a9700a7e851456d3a16348b4ae0fbb11b06ac0af8dbe8e8652c57cc4cbd",
            "0x0b06a39cd79df2acb58b2f0d6d8290f9b09f6aab780047a5dc3933f78b9c08ff",
            "0x000000000000000000000000328735d26e5ada93610f0006c32abe2278c46211",
            "0x0000000000000000000000000000000000000000000000000000000000000002"
          ],
          "data": "0x00000000000000000000000000000000000000000000000000000000000000c000000000000000000000000000000000000000000000000000000000000000e00000000000000000000000000000000000000000000000000000000000a506930000000000000000000000000000000000000000000000000000000000a506ac00000000000000000000000000000000000000000000000000000000000000380000000000000000000000000000000000000000000000000000000000000100000000000000000000000000000000000000000000000000000000000000000000000000000000000000000000000000000000000000000000000000000000000000000000000000000000000000000000000000000000000000000000000026496e6974696174696e6720637265617465206964656173206c617965723a2054656e64696e670000000000000000000000000000000000000000000000000000",
          "blockHash": "0xcc36589052f9ea9206fd6c5dc92bf8295d87294a303cc87b46b0510edaf35feb",
          "blockNumber": "0xa50693",
          "blockTimestamp": "0x69fe02e0",
          "transactionHash": "0xa2626250adf7f3312f6c5ffca30df5c9a6d62dda2d7d9fcea2f351fba9bc4879",
          "transactionIndex": "0x31",
          "logIndex": "0x134",
          "removed": false
        }
      ],
      "logsBloom": "0x04000000000000000000000000000000000000000000000000000000000000010000000000000000000000000000000000000000000000000000000000000000000000000000000000000000000000000000000000000000000000000000000000000000000000000000000000000000000000000001000000000000000000000000000000000000000000000000000000000000000000000000000000000000000000000004020000000100000000000000000008000000000000000000000000000000000000100000000000008004000000000000000100000000000000000100000000000020000000000000000000000000008000000000000040000000",
      "type": "0x2",
      "transactionHash": "0xa2626250adf7f3312f6c5ffca30df5c9a6d62dda2d7d9fcea2f351fba9bc4879",
      "transactionIndex": "0x31",
      "blockHash": "0xcc36589052f9ea9206fd6c5dc92bf8295d87294a303cc87b46b0510edaf35feb",
      "blockNumber": "0xa50693",
      "gasUsed": "0x39c2a",
      "effectiveGasPrice": "0xf42b5",
      "from": "0x328735d26e5ada93610f0006c32abe2278c46211",
      "to": "0x8da83ff5533e7842076f0b66db1dd3c5de06c395",
      "contractAddress": null
    },
    {
      "status": "0x1",
      "cumulativeGasUsed": "0x1575e10",
      "logs": [
        {
          "address": "0x8da83ff5533e7842076f0b66db1dd3c5de06c395",
          "topics": [
            "0x5be2678cab71c7d94235767eb1df3c57673f19e805cdc0edbd2e74854ae9f0f9",
            "0x000000000000000000000000ea223f81d7e74321370a77f1e44067be8738b627",
            "0x8dd59f6543ec7e3e2c4441a5ef229ecfecf6b397c4a68596ea6a20d90656ec76",
            "0x0000000000000000000000000000000000000000000000000000000000000001"
          ],
          "data": "0x00000000000000000000000000000000000000000000000000000000000000200000000000000000000000000000000000000000000000000000000000000000",
          "blockHash": "0xe331c277103fa9a0268c613d61ca094b5c15aa830e8aa110bf39cef19da249b0",
          "blockNumber": "0xa50694",
          "blockTimestamp": "0x69fe02ec",
          "transactionHash": "0x6a8f09413f1ee57f250c3074c8b6f52be8472add45964fe8fe3d81c1bc4f31ee",
          "transactionIndex": "0x5c",
          "logIndex": "0x202",
          "removed": false
        }
      ],
      "logsBloom": "0x00000100000000000000000088000000000000000000000000000000000000010000000000000000001000000000000000000000000000000000000000840000000000000000000000000000000000000000000000040000000000000000100000000000000000000000000000000000000000000000000000000000000000000000000000000000000000000000000000000000000000000000000000002000000000000000000000000000001000000000000000000000000000000000000000000000000000100008000000000000000000000000000000000000000040000000000000000020000000000000000000000000000000000000000000000000",
      "type": "0x2",
      "transactionHash": "0x6a8f09413f1ee57f250c3074c8b6f52be8472add45964fe8fe3d81c1bc4f31ee",
      "transactionIndex": "0x5c",
      "blockHash": "0xe331c277103fa9a0268c613d61ca094b5c15aa830e8aa110bf39cef19da249b0",
      "blockNumber": "0xa50694",
      "gasUsed": "0xfd48",
      "effectiveGasPrice": "0xf42b6",
      "from": "0xea223f81d7e74321370a77f1e44067be8738b627",
      "to": "0x8da83ff5533e7842076f0b66db1dd3c5de06c395",
      "contractAddress": null
    },
    {
      "status": "0x1",
      "cumulativeGasUsed": "0xc9f0b8",
      "logs": [
        {
          "address": "0x8da83ff5533e7842076f0b66db1dd3c5de06c395",
          "topics": [
            "0x5be2678cab71c7d94235767eb1df3c57673f19e805cdc0edbd2e74854ae9f0f9",
            "0x0000000000000000000000001bfdb91b283d7ec24012d7ff5a5b29005140d09a",
            "0x8dd59f6543ec7e3e2c4441a5ef229ecfecf6b397c4a68596ea6a20d90656ec76",
            "0x0000000000000000000000000000000000000000000000000000000000000001"
          ],
          "data": "0x00000000000000000000000000000000000000000000000000000000000000200000000000000000000000000000000000000000000000000000000000000000",
          "blockHash": "0x59d5c8b5970bfcce31d5f97c0c579cae386d88a0bd376a1fe93159f8904359ba",
          "blockNumber": "0xa50695",
          "blockTimestamp": "0x69fe02f8",
          "transactionHash": "0x8a7f1fe08a2e9564975a38d90497b6247f45787cc2bac0b26e90d379e7c0e53d",
          "transactionIndex": "0x52",
          "logIndex": "0x18b",
          "removed": false
        }
      ],
      "logsBloom": "0x00000000000000800000000088000000000000000000000000000000000000010000000000000000001000000000000000000000000000000000000000840000000000000000000000000000000000000000000000040000000000000000100000000000000000000000000000000000000000000000000000000000000000000000000000000000000000000000000000000000000000000000000000000000000000000000000000000000001000000000000000000000000000000000000000000000000000100000000000000000000000000000000000000000000040000000000000000020000000000000000000000000000000200000020000000000",
      "type": "0x2",
      "transactionHash": "0x8a7f1fe08a2e9564975a38d90497b6247f45787cc2bac0b26e90d379e7c0e53d",
      "transactionIndex": "0x52",
      "blockHash": "0x59d5c8b5970bfcce31d5f97c0c579cae386d88a0bd376a1fe93159f8904359ba",
      "blockNumber": "0xa50695",
      "gasUsed": "0xfd48",
      "effectiveGasPrice": "0xf42b7",
      "from": "0x1bfdb91b283d7ec24012d7ff5a5b29005140d09a",
      "to": "0x8da83ff5533e7842076f0b66db1dd3c5de06c395",
      "contractAddress": null
    },
    {
      "status": "0x1",
      "cumulativeGasUsed": "0xbde246",
      "logs": [
        {
          "address": "0x8da83ff5533e7842076f0b66db1dd3c5de06c395",
          "topics": [
            "0x5be2678cab71c7d94235767eb1df3c57673f19e805cdc0edbd2e74854ae9f0f9",
            "0x000000000000000000000000328735d26e5ada93610f0006c32abe2278c46211",
            "0x8dd59f6543ec7e3e2c4441a5ef229ecfecf6b397c4a68596ea6a20d90656ec76",
            "0x0000000000000000000000000000000000000000000000000000000000000001"
          ],
          "data": "0x00000000000000000000000000000000000000000000000000000000000000200000000000000000000000000000000000000000000000000000000000000000",
          "blockHash": "0x27c006d2772ef2299f03fc46fc712093ef5befde5ed9de2b37363e76b74d39e7",
          "blockNumber": "0xa50696",
          "blockTimestamp": "0x69fe0304",
          "transactionHash": "0x91c9287a2dffe95aaade43d4cb05c3b3aed1537c9eb5a5aabbb2f446c696ee1e",
          "transactionIndex": "0x53",
          "logIndex": "0x198",
          "removed": false
        }
      ],
      "logsBloom": "0x00000000000000000000000088000000000000000000000000000000000000010000000000000000001000000000000000000000000000000000000000840000000000000000000000000000000000000000000000040000000000000000100000000000000000000000000000000000000000000000000000000000000000000000000000000000000000000000000000000000000000000000000000000000000000000000000000000000001000000000000000000000000000000000000000000000000000100000000000008004000000000000000100000000000040000000000000000020000000000000000000000000000000000000000000000000",
      "type": "0x2",
      "transactionHash": "0x91c9287a2dffe95aaade43d4cb05c3b3aed1537c9eb5a5aabbb2f446c696ee1e",
      "transactionIndex": "0x53",
      "blockHash": "0x27c006d2772ef2299f03fc46fc712093ef5befde5ed9de2b37363e76b74d39e7",
      "blockNumber": "0xa50696",
      "gasUsed": "0xfd48",
      "effectiveGasPrice": "0xf42b6",
      "from": "0x328735d26e5ada93610f0006c32abe2278c46211",
      "to": "0x8da83ff5533e7842076f0b66db1dd3c5de06c395",
      "contractAddress": null
    },
    {
      "status": "0x1",
      "cumulativeGasUsed": "0x13b730c",
      "logs": [
        {
          "address": "0x8da83ff5533e7842076f0b66db1dd3c5de06c395",
          "topics": [
            "0x5be2678cab71c7d94235767eb1df3c57673f19e805cdc0edbd2e74854ae9f0f9",
            "0x000000000000000000000000ea223f81d7e74321370a77f1e44067be8738b627",
            "0xf649f645d74d85a0734696b21f82d4060cb6728c51bb36d378123f513f15b7db",
            "0x0000000000000000000000000000000000000000000000000000000000000001"
          ],
          "data": "0x00000000000000000000000000000000000000000000000000000000000000200000000000000000000000000000000000000000000000000000000000000000",
          "blockHash": "0xbf6986261c0b58f33f015fc325ab200f4acb85f6d995766cd7230fd50bbc53c9",
          "blockNumber": "0xa50697",
          "blockTimestamp": "0x69fe031c",
          "transactionHash": "0xaae79fa232f8fdeb5dca7920faa350b321229fce776bcb1f2e92eb21cb66db9e",
          "transactionIndex": "0x92",
          "logIndex": "0x2e8",
          "removed": false
        }
      ],
      "logsBloom": "0x00000100000000000000000008000000000000000000000000000000000000010000000000000000001000000000000000000000000000000000000000040000000000000000000000000000000000000000000000040000000000000000000000000000000000000000000000000000000000000000000000000000000000000000000000000000000000000000000000000000000000000000000000002000000000000000000000000000001000000000000000000000000000000000000000000000000000100008000000000000000000000000000010000000000040000000000000000020000000000000000000100000000000000000000000080000",
      "type": "0x2",
      "transactionHash": "0xaae79fa232f8fdeb5dca7920faa350b321229fce776bcb1f2e92eb21cb66db9e",
      "transactionIndex": "0x92",
      "blockHash": "0xbf6986261c0b58f33f015fc325ab200f4acb85f6d995766cd7230fd50bbc53c9",
      "blockNumber": "0xa50697",
      "gasUsed": "0xfd48",
      "effectiveGasPrice": "0xf42b2",
      "from": "0xea223f81d7e74321370a77f1e44067be8738b627",
      "to": "0x8da83ff5533e7842076f0b66db1dd3c5de06c395",
      "contractAddress": null
    },
    {
      "status": "0x1",
      "cumulativeGasUsed": "0x10ed67e",
      "logs": [
        {
          "address": "0x8da83ff5533e7842076f0b66db1dd3c5de06c395",
          "topics": [
            "0x5be2678cab71c7d94235767eb1df3c57673f19e805cdc0edbd2e74854ae9f0f9",
            "0x0000000000000000000000001bfdb91b283d7ec24012d7ff5a5b29005140d09a",
            "0xf649f645d74d85a0734696b21f82d4060cb6728c51bb36d378123f513f15b7db",
            "0x0000000000000000000000000000000000000000000000000000000000000001"
          ],
          "data": "0x00000000000000000000000000000000000000000000000000000000000000200000000000000000000000000000000000000000000000000000000000000000",
          "blockHash": "0x69e2e2ae7a0cbe8678324ef1e1803398a841f0b7095ae713952e3c5a3aa57386",
          "blockNumber": "0xa50698",
          "blockTimestamp": "0x69fe0328",
          "transactionHash": "0xddae9da8f11b9475d71e766b74a87051a7cc5f8056318aacd548351ab11806e8",
          "transactionIndex": "0x41",
          "logIndex": "0x151",
          "removed": false
        }
      ],
      "logsBloom": "0x00000000000000800000000008000000000000000000000000000000000000010000000000000000001000000000000000000000000000000000000000040000000000000000000000000000000000000000000000040000000000000000000000000000000000000000000000000000000000000000000000000000000000000000000000000000000000000000000000000000000000000000000000000000000000000000000000000000001000000000000000000000000000000000000000000000000000100000000000000000000000000000000010000000000040000000000000000020000000000000000000100000000000200000020000080000",
      "type": "0x2",
      "transactionHash": "0xddae9da8f11b9475d71e766b74a87051a7cc5f8056318aacd548351ab11806e8",
      "transactionIndex": "0x41",
      "blockHash": "0x69e2e2ae7a0cbe8678324ef1e1803398a841f0b7095ae713952e3c5a3aa57386",
      "blockNumber": "0xa50698",
      "gasUsed": "0xfd48",
      "effectiveGasPrice": "0xf42b4",
      "from": "0x1bfdb91b283d7ec24012d7ff5a5b29005140d09a",
      "to": "0x8da83ff5533e7842076f0b66db1dd3c5de06c395",
      "contractAddress": null
    },
    {
      "status": "0x1",
      "cumulativeGasUsed": "0xa5eca6",
      "logs": [
        {
          "address": "0x8da83ff5533e7842076f0b66db1dd3c5de06c395",
          "topics": [
            "0x5be2678cab71c7d94235767eb1df3c57673f19e805cdc0edbd2e74854ae9f0f9",
            "0x000000000000000000000000328735d26e5ada93610f0006c32abe2278c46211",
            "0xf649f645d74d85a0734696b21f82d4060cb6728c51bb36d378123f513f15b7db",
            "0x0000000000000000000000000000000000000000000000000000000000000001"
          ],
          "data": "0x00000000000000000000000000000000000000000000000000000000000000200000000000000000000000000000000000000000000000000000000000000000",
          "blockHash": "0x328eb58e416dd177ddaadeef01c4f6f746a868ce45cbfb0454189f23a86a6dd3",
          "blockNumber": "0xa50699",
          "blockTimestamp": "0x69fe0334",
          "transactionHash": "0x861becb1916bcdb5bb4ae2d241ed914956fd1d68152176611afd2cf7e66297cb",
          "transactionIndex": "0x41",
          "logIndex": "0x1a2",
          "removed": false
        }
      ],
      "logsBloom": "0x00000000000000000000000008000000000000000000000000000000000000010000000000000000001000000000000000000000000000000000000000040000000000000000000000000000000000000000000000040000000000000000000000000000000000000000000000000000000000000000000000000000000000000000000000000000000000000000000000000000000000000000000000000000000000000000000000000000001000000000000000000000000000000000000000000000000000100000000000008004000000000000000110000000000040000000000000000020000000000000000000100000000000000000000000080000",
      "type": "0x2",
      "transactionHash": "0x861becb1916bcdb5bb4ae2d241ed914956fd1d68152176611afd2cf7e66297cb",
      "transactionIndex": "0x41",
      "blockHash": "0x328eb58e416dd177ddaadeef01c4f6f746a868ce45cbfb0454189f23a86a6dd3",
      "blockNumber": "0xa50699",
      "gasUsed": "0xfd48",
      "effectiveGasPrice": "0xf42b5",
      "from": "0x328735d26e5ada93610f0006c32abe2278c46211",
      "to": "0x8da83ff5533e7842076f0b66db1dd3c5de06c395",
      "contractAddress": null
    },
    {
      "status": "0x1",
      "cumulativeGasUsed": "0x22d0e53",
      "logs": [
        {
          "address": "0x8da83ff5533e7842076f0b66db1dd3c5de06c395",
          "topics": [
            "0x5be2678cab71c7d94235767eb1df3c57673f19e805cdc0edbd2e74854ae9f0f9",
            "0x000000000000000000000000ea223f81d7e74321370a77f1e44067be8738b627",
            "0x8adae9f19eabc1f34af66590e8dfce181363ebd2009d46816b656483a67cc8bc",
            "0x0000000000000000000000000000000000000000000000000000000000000001"
          ],
          "data": "0x00000000000000000000000000000000000000000000000000000000000000200000000000000000000000000000000000000000000000000000000000000000",
          "blockHash": "0xb445c5b6267a18d79864c11e6fdb6202bd64c1b3d61ab2aaefcec666966cfdb1",
          "blockNumber": "0xa5069a",
          "blockTimestamp": "0x69fe0340",
          "transactionHash": "0xee74ee0bfac94dade0f775ce7b34ce606e438c3f2fff7cee0c1cf73e64c1cdc4",
          "transactionIndex": "0x69",
          "logIndex": "0x1a4",
          "removed": false
        }
      ],
      "logsBloom": "0x00000100000000000000000008000000000000000000000000000000000000010000000000000000001000000000000000000000000000000000000000040000000000000000000000000000000000000000000000040000000000000000000000000000000000000000000000000000000000000000000000000000000000000000000000000000000000000010000000000000000000000000000000002080000000000000000000000000001000000000000000000000000000000000000000000000000000100008000000000000000000000000000000000000000040000000000000000020000000000000000100000000000000000000000000000000",
      "type": "0x2",
      "transactionHash": "0xee74ee0bfac94dade0f775ce7b34ce606e438c3f2fff7cee0c1cf73e64c1cdc4",
      "transactionIndex": "0x69",
      "blockHash": "0xb445c5b6267a18d79864c11e6fdb6202bd64c1b3d61ab2aaefcec666966cfdb1",
      "blockNumber": "0xa5069a",
      "gasUsed": "0xfd3c",
      "effectiveGasPrice": "0xf42b0",
      "from": "0xea223f81d7e74321370a77f1e44067be8738b627",
      "to": "0x8da83ff5533e7842076f0b66db1dd3c5de06c395",
      "contractAddress": null
    },
    {
      "status": "0x1",
      "cumulativeGasUsed": "0x2e68684",
      "logs": [
        {
          "address": "0x8da83ff5533e7842076f0b66db1dd3c5de06c395",
          "topics": [
            "0x5be2678cab71c7d94235767eb1df3c57673f19e805cdc0edbd2e74854ae9f0f9",
            "0x0000000000000000000000001bfdb91b283d7ec24012d7ff5a5b29005140d09a",
            "0x8adae9f19eabc1f34af66590e8dfce181363ebd2009d46816b656483a67cc8bc",
            "0x0000000000000000000000000000000000000000000000000000000000000001"
          ],
          "data": "0x00000000000000000000000000000000000000000000000000000000000000200000000000000000000000000000000000000000000000000000000000000000",
          "blockHash": "0x31ad6115920d2841543d2cc83c53ddfc0cb6bf8b7bbc566f974a97412e53b1d1",
          "blockNumber": "0xa5069b",
          "blockTimestamp": "0x69fe034c",
          "transactionHash": "0x00074c65bbe50ce618bbfd6032c559c33e34389a05a231896ec8b0bcd7b55dc6",
          "transactionIndex": "0x44",
          "logIndex": "0x1bd",
          "removed": false
        }
      ],
      "logsBloom": "0x00000000000000800000000008000000000000000000000000000000000000010000000000000000001000000000000000000000000000000000000000040000000000000000000000000000000000000000000000040000000000000000000000000000000000000000000000000000000000000000000000000000000000000000000000000000000000000010000000000000000000000000000000000080000000000000000000000000001000000000000000000000000000000000000000000000000000100000000000000000000000000000000000000000000040000000000000000020000000000000000100000000000000200000020000000000",
      "type": "0x2",
      "transactionHash": "0x00074c65bbe50ce618bbfd6032c559c33e34389a05a231896ec8b0bcd7b55dc6",
      "transactionIndex": "0x44",
      "blockHash": "0x31ad6115920d2841543d2cc83c53ddfc0cb6bf8b7bbc566f974a97412e53b1d1",
      "blockNumber": "0xa5069b",
      "gasUsed": "0xfd3c",
      "effectiveGasPrice": "0xf42b8",
      "from": "0x1bfdb91b283d7ec24012d7ff5a5b29005140d09a",
      "to": "0x8da83ff5533e7842076f0b66db1dd3c5de06c395",
      "contractAddress": null
    },
    {
      "status": "0x1",
      "cumulativeGasUsed": "0xe9c289",
      "logs": [
        {
          "address": "0x8da83ff5533e7842076f0b66db1dd3c5de06c395",
          "topics": [
            "0x5be2678cab71c7d94235767eb1df3c57673f19e805cdc0edbd2e74854ae9f0f9",
            "0x000000000000000000000000328735d26e5ada93610f0006c32abe2278c46211",
            "0x8adae9f19eabc1f34af66590e8dfce181363ebd2009d46816b656483a67cc8bc",
            "0x0000000000000000000000000000000000000000000000000000000000000001"
          ],
          "data": "0x00000000000000000000000000000000000000000000000000000000000000200000000000000000000000000000000000000000000000000000000000000000",
          "blockHash": "0xa2020a496f038f00e878ec46376c2aa67ad31856054c8000362073c9253c17f5",
          "blockNumber": "0xa5069c",
          "blockTimestamp": "0x69fe0358",
          "transactionHash": "0x19dbad08eb65205b73a94956bb2d09044a622cc4e142c87bb547d8ff243a084d",
          "transactionIndex": "0x48",
          "logIndex": "0x169",
          "removed": false
        }
      ],
      "logsBloom": "0x00000000000000000000000008000000000000000000000000000000000000010000000000000000001000000000000000000000000000000000000000040000000000000000000000000000000000000000000000040000000000000000000000000000000000000000000000000000000000000000000000000000000000000000000000000000000000000010000000000000000000000000000000000080000000000000000000000000001000000000000000000000000000000000000000000000000000100000000000008004000000000000000100000000000040000000000000000020000000000000000100000000000000000000000000000000",
      "type": "0x2",
      "transactionHash": "0x19dbad08eb65205b73a94956bb2d09044a622cc4e142c87bb547d8ff243a084d",
      "transactionIndex": "0x48",
      "blockHash": "0xa2020a496f038f00e878ec46376c2aa67ad31856054c8000362073c9253c17f5",
      "blockNumber": "0xa5069c",
      "gasUsed": "0xfd3c",
      "effectiveGasPrice": "0xf42c6",
      "from": "0x328735d26e5ada93610f0006c32abe2278c46211",
      "to": "0x8da83ff5533e7842076f0b66db1dd3c5de06c395",
      "contractAddress": null
    },
    {
      "status": "0x1",
      "cumulativeGasUsed": "0x1a86030",
      "logs": [
        {
          "address": "0x8da83ff5533e7842076f0b66db1dd3c5de06c395",
          "topics": [
            "0x5be2678cab71c7d94235767eb1df3c57673f19e805cdc0edbd2e74854ae9f0f9",
            "0x000000000000000000000000ea223f81d7e74321370a77f1e44067be8738b627",
            "0xa80606961e750eb5ebea5a3748585202824257f2c818bec9aa7cc6b4aab5bb6e",
            "0x0000000000000000000000000000000000000000000000000000000000000001"
          ],
          "data": "0x00000000000000000000000000000000000000000000000000000000000000200000000000000000000000000000000000000000000000000000000000000000",
          "blockHash": "0xa4a79e64a831b1964574a0d63cfb116fe38bc3214ad1acd74c69a2e50df2bff7",
          "blockNumber": "0xa5069d",
          "blockTimestamp": "0x69fe0364",
          "transactionHash": "0x6488860aff185cc94b7f39132e2878ecae2ac7c55fdcfdc98f9023f589a58219",
          "transactionIndex": "0x94",
          "logIndex": "0x2b2",
          "removed": false
        }
      ],
      "logsBloom": "0x00000100000000000000000008000000000000000000000000000000000000110000000000000000001000000000000000000000000000000000000000040000000000000000000000000000000000000000000000040000000000000000000000000000000000000000000000000000000000000000000000000000000000000000000000000001000000000000000000000000000000000000000000002000000000000000000000000000001000000000000000000000000000000000000000000000000000100008000000000000000000000000000000000000000040000000000000000020800000000000000000000000000000000000000000000000",
      "type": "0x2",
      "transactionHash": "0x6488860aff185cc94b7f39132e2878ecae2ac7c55fdcfdc98f9023f589a58219",
      "transactionIndex": "0x94",
      "blockHash": "0xa4a79e64a831b1964574a0d63cfb116fe38bc3214ad1acd74c69a2e50df2bff7",
      "blockNumber": "0xa5069d",
      "gasUsed": "0xfd48",
      "effectiveGasPrice": "0xf42ca",
      "from": "0xea223f81d7e74321370a77f1e44067be8738b627",
      "to": "0x8da83ff5533e7842076f0b66db1dd3c5de06c395",
      "contractAddress": null
    },
    {
      "status": "0x1",
      "cumulativeGasUsed": "0xd8f096",
      "logs": [
        {
          "address": "0x8da83ff5533e7842076f0b66db1dd3c5de06c395",
          "topics": [
            "0x5be2678cab71c7d94235767eb1df3c57673f19e805cdc0edbd2e74854ae9f0f9",
            "0x0000000000000000000000001bfdb91b283d7ec24012d7ff5a5b29005140d09a",
            "0xa80606961e750eb5ebea5a3748585202824257f2c818bec9aa7cc6b4aab5bb6e",
            "0x0000000000000000000000000000000000000000000000000000000000000001"
          ],
          "data": "0x00000000000000000000000000000000000000000000000000000000000000200000000000000000000000000000000000000000000000000000000000000000",
          "blockHash": "0x20fccf6d929acc5752280271d69d47e1ee341a098fe6c242cbd38bdcec2fdfa4",
          "blockNumber": "0xa5069e",
          "blockTimestamp": "0x69fe0370",
          "transactionHash": "0x5b17d93d57c9ad1b6448d586f3d763bc601db349605e4e35e42254cc6f5bd4d9",
          "transactionIndex": "0x42",
          "logIndex": "0x145",
          "removed": false
        }
      ],
      "logsBloom": "0x00000000000000800000000008000000000000000000000000000000000000110000000000000000001000000000000000000000000000000000000000040000000000000000000000000000000000000000000000040000000000000000000000000000000000000000000000000000000000000000000000000000000000000000000000000001000000000000000000000000000000000000000000000000000000000000000000000000001000000000000000000000000000000000000000000000000000100000000000000000000000000000000000000000000040000000000000000020800000000000000000000000000000200000020000000000",
      "type": "0x2",
      "transactionHash": "0x5b17d93d57c9ad1b6448d586f3d763bc601db349605e4e35e42254cc6f5bd4d9",
      "transactionIndex": "0x42",
      "blockHash": "0x20fccf6d929acc5752280271d69d47e1ee341a098fe6c242cbd38bdcec2fdfa4",
      "blockNumber": "0xa5069e",
      "gasUsed": "0xfd48",
      "effectiveGasPrice": "0xf42cc",
      "from": "0x1bfdb91b283d7ec24012d7ff5a5b29005140d09a",
      "to": "0x8da83ff5533e7842076f0b66db1dd3c5de06c395",
      "contractAddress": null
    },
    {
      "status": "0x1",
      "cumulativeGasUsed": "0xded1c9",
      "logs": [
        {
          "address": "0x8da83ff5533e7842076f0b66db1dd3c5de06c395",
          "topics": [
            "0x5be2678cab71c7d94235767eb1df3c57673f19e805cdc0edbd2e74854ae9f0f9",
            "0x000000000000000000000000328735d26e5ada93610f0006c32abe2278c46211",
            "0xa80606961e750eb5ebea5a3748585202824257f2c818bec9aa7cc6b4aab5bb6e",
            "0x0000000000000000000000000000000000000000000000000000000000000001"
          ],
          "data": "0x00000000000000000000000000000000000000000000000000000000000000200000000000000000000000000000000000000000000000000000000000000000",
          "blockHash": "0xb2c7466e70226bb409a778500862cf6f1fa30d1d395d87634afa5df0a7a52723",
          "blockNumber": "0xa5069f",
          "blockTimestamp": "0x69fe037c",
          "transactionHash": "0x0375179d485e1a9648bc6a68e6532b25dbc79d5c16e98c29605a65d54235279a",
          "transactionIndex": "0x5a",
          "logIndex": "0x205",
          "removed": false
        }
      ],
      "logsBloom": "0x00000000000000000000000008000000000000000000000000000000000000110000000000000000001000000000000000000000000000000000000000040000000000000000000000000000000000000000000000040000000000000000000000000000000000000000000000000000000000000000000000000000000000000000000000000001000000000000000000000000000000000000000000000000000000000000000000000000001000000000000000000000000000000000000000000000000000100000000000008004000000000000000100000000000040000000000000000020800000000000000000000000000000000000000000000000",
      "type": "0x2",
      "transactionHash": "0x0375179d485e1a9648bc6a68e6532b25dbc79d5c16e98c29605a65d54235279a",
      "transactionIndex": "0x5a",
      "blockHash": "0xb2c7466e70226bb409a778500862cf6f1fa30d1d395d87634afa5df0a7a52723",
      "blockNumber": "0xa5069f",
      "gasUsed": "0xfd48",
      "effectiveGasPrice": "0xf42c7",
      "from": "0x328735d26e5ada93610f0006c32abe2278c46211",
      "to": "0x8da83ff5533e7842076f0b66db1dd3c5de06c395",
      "contractAddress": null
    },
    {
      "status": "0x1",
      "cumulativeGasUsed": "0x219144f",
      "logs": [
        {
          "address": "0x8da83ff5533e7842076f0b66db1dd3c5de06c395",
          "topics": [
            "0x5be2678cab71c7d94235767eb1df3c57673f19e805cdc0edbd2e74854ae9f0f9",
            "0x000000000000000000000000ea223f81d7e74321370a77f1e44067be8738b627",
            "0x341a5b88689c4c6d5af6311ca9752f7bd8f788d278972f4279ceaf87c33d414f",
            "0x0000000000000000000000000000000000000000000000000000000000000001"
          ],
          "data": "0x00000000000000000000000000000000000000000000000000000000000000200000000000000000000000000000000000000000000000000000000000000000",
          "blockHash": "0x021c0e7e8310959418df228ca2786d57dd89f34a12fa839565c4ef836635db51",
          "blockNumber": "0xa506a0",
          "blockTimestamp": "0x69fe0388",
          "transactionHash": "0xfe2e8027a81660da5f1caf2f7f689e9d9b8889d780c1ad9466db76337de91223",
          "transactionIndex": "0x97",
          "logIndex": "0x2ef",
          "removed": false
        }
      ],
      "logsBloom": "0x00000100000000000000000008000000000000000000000000000000000000010000000000000000001000000000000000000000000000000000000000040000000000000000000000000000000000000000000000040000000020000000000000000000000000000000000000000000000000000000000000000000000000000000000000000000000000000000000000000000000000000000000000002000000000000000000000000000001000000000000000000000000000000000000000000000000000100008000000000000000000000000000000000100000040000000020000000020000000000000000000000000000000000000000000000000",
      "type": "0x2",
      "transactionHash": "0xfe2e8027a81660da5f1caf2f7f689e9d9b8889d780c1ad9466db76337de91223",
      "transactionIndex": "0x97",
      "blockHash": "0x021c0e7e8310959418df228ca2786d57dd89f34a12fa839565c4ef836635db51",
      "blockNumber": "0xa506a0",
      "gasUsed": "0xfd48",
      "effectiveGasPrice": "0xf42c5",
      "from": "0xea223f81d7e74321370a77f1e44067be8738b627",
      "to": "0x8da83ff5533e7842076f0b66db1dd3c5de06c395",
      "contractAddress": null
    },
    {
      "status": "0x1",
      "cumulativeGasUsed": "0x1353533",
      "logs": [
        {
          "address": "0x8da83ff5533e7842076f0b66db1dd3c5de06c395",
          "topics": [
            "0x5be2678cab71c7d94235767eb1df3c57673f19e805cdc0edbd2e74854ae9f0f9",
            "0x0000000000000000000000001bfdb91b283d7ec24012d7ff5a5b29005140d09a",
            "0x341a5b88689c4c6d5af6311ca9752f7bd8f788d278972f4279ceaf87c33d414f",
            "0x0000000000000000000000000000000000000000000000000000000000000001"
          ],
          "data": "0x00000000000000000000000000000000000000000000000000000000000000200000000000000000000000000000000000000000000000000000000000000000",
          "blockHash": "0xa7fdfcbd6f08871b17139d3022400f3a8c47e660ad80147ebff29f6c68e19a09",
          "blockNumber": "0xa506a1",
          "blockTimestamp": "0x69fe0394",
          "transactionHash": "0x74c1bb6624e9624390d1cd7a838dd450044edd21f322725503b47da7fb76edc7",
          "transactionIndex": "0x9f",
          "logIndex": "0x27f",
          "removed": false
        }
      ],
      "logsBloom": "0x00000000000000800000000008000000000000000000000000000000000000010000000000000000001000000000000000000000000000000000000000040000000000000000000000000000000000000000000000040000000020000000000000000000000000000000000000000000000000000000000000000000000000000000000000000000000000000000000000000000000000000000000000000000000000000000000000000000001000000000000000000000000000000000000000000000000000100000000000000000000000000000000000000100000040000000020000000020000000000000000000000000000000200000020000000000",
      "type": "0x2",
      "transactionHash": "0x74c1bb6624e9624390d1cd7a838dd450044edd21f322725503b47da7fb76edc7",
      "transactionIndex": "0x9f",
      "blockHash": "0xa7fdfcbd6f08871b17139d3022400f3a8c47e660ad80147ebff29f6c68e19a09",
      "blockNumber": "0xa506a1",
      "gasUsed": "0xfd48",
      "effectiveGasPrice": "0xf42c9",
      "from": "0x1bfdb91b283d7ec24012d7ff5a5b29005140d09a",
      "to": "0x8da83ff5533e7842076f0b66db1dd3c5de06c395",
      "contractAddress": null
    },
    {
      "status": "0x1",
      "cumulativeGasUsed": "0x118727a",
      "logs": [
        {
          "address": "0x8da83ff5533e7842076f0b66db1dd3c5de06c395",
          "topics": [
            "0x5be2678cab71c7d94235767eb1df3c57673f19e805cdc0edbd2e74854ae9f0f9",
            "0x000000000000000000000000328735d26e5ada93610f0006c32abe2278c46211",
            "0x341a5b88689c4c6d5af6311ca9752f7bd8f788d278972f4279ceaf87c33d414f",
            "0x0000000000000000000000000000000000000000000000000000000000000001"
          ],
          "data": "0x00000000000000000000000000000000000000000000000000000000000000200000000000000000000000000000000000000000000000000000000000000000",
          "blockHash": "0x730aba50e831aa71f2833fb7a538bf5ada9560a4b10371b6e8fd6fb1c8b9a8ed",
          "blockNumber": "0xa506a2",
          "blockTimestamp": "0x69fe03a0",
          "transactionHash": "0x53a704bb7ef641d029315f43b1c22fb1cf723d769a586ce5e5969ef122dc97da",
          "transactionIndex": "0x5f",
          "logIndex": "0x220",
          "removed": false
        }
      ],
      "logsBloom": "0x00000000000000000000000008000000000000000000000000000000000000010000000000000000001000000000000000000000000000000000000000040000000000000000000000000000000000000000000000040000000020000000000000000000000000000000000000000000000000000000000000000000000000000000000000000000000000000000000000000000000000000000000000000000000000000000000000000000001000000000000000000000000000000000000000000000000000100000000000008004000000000000000100000100000040000000020000000020000000000000000000000000000000000000000000000000",
      "type": "0x2",
      "transactionHash": "0x53a704bb7ef641d029315f43b1c22fb1cf723d769a586ce5e5969ef122dc97da",
      "transactionIndex": "0x5f",
      "blockHash": "0x730aba50e831aa71f2833fb7a538bf5ada9560a4b10371b6e8fd6fb1c8b9a8ed",
      "blockNumber": "0xa506a2",
      "gasUsed": "0xfd48",
      "effectiveGasPrice": "0xf42c6",
      "from": "0x328735d26e5ada93610f0006c32abe2278c46211",
      "to": "0x8da83ff5533e7842076f0b66db1dd3c5de06c395",
      "contractAddress": null
    },
    {
      "status": "0x1",
      "cumulativeGasUsed": "0x13213ff",
      "logs": [
        {
          "address": "0x8da83ff5533e7842076f0b66db1dd3c5de06c395",
          "topics": [
            "0x5be2678cab71c7d94235767eb1df3c57673f19e805cdc0edbd2e74854ae9f0f9",
            "0x000000000000000000000000ea223f81d7e74321370a77f1e44067be8738b627",
            "0xf902e0aeed648a9647c389c469d3167d43cb30b847d799d5760b4e2d72067658",
            "0x0000000000000000000000000000000000000000000000000000000000000001"
          ],
          "data": "0x00000000000000000000000000000000000000000000000000000000000000200000000000000000000000000000000000000000000000000000000000000000",
          "blockHash": "0xff239a6abed6ad599b0cde9fa80e205610205795729c6575eea5e8d778ed1846",
          "blockNumber": "0xa506a3",
          "blockTimestamp": "0x69fe03ac",
          "transactionHash": "0x6ce64c4a93fdbb8fa11e018588eadaa461459fec0a2fbb80e92d2de5f3b4d87a",
          "transactionIndex": "0x98",
          "logIndex": "0x24f",
          "removed": false
        }
      ],
      "logsBloom": "0x00000100000000000000000008000000000000000000000000000000000000010000000000000000001000000000000000000000000000000000000000040000000000000000000000000000000000000000000000040000000000000000000000000000000000000000000000000000000000000080000000000000000000000000000000000000000000000000000000000000000000000000000000002000000000000000000000000000001000000000000000000000000000000000000000000000000000100008000000000000020000000000000000000000000040000000000000000020000000000000000000000000000000000000002000000000",
      "type": "0x2",
      "transactionHash": "0x6ce64c4a93fdbb8fa11e018588eadaa461459fec0a2fbb80e92d2de5f3b4d87a",
      "transactionIndex": "0x98",
      "blockHash": "0xff239a6abed6ad599b0cde9fa80e205610205795729c6575eea5e8d778ed1846",
      "blockNumber": "0xa506a3",
      "gasUsed": "0xfd48",
      "effectiveGasPrice": "0xf42c6",
      "from": "0xea223f81d7e74321370a77f1e44067be8738b627",
      "to": "0x8da83ff5533e7842076f0b66db1dd3c5de06c395",
      "contractAddress": null
    },
    {
      "status": "0x1",
      "cumulativeGasUsed": "0x11a2734",
      "logs": [
        {
          "address": "0x8da83ff5533e7842076f0b66db1dd3c5de06c395",
          "topics": [
            "0x5be2678cab71c7d94235767eb1df3c57673f19e805cdc0edbd2e74854ae9f0f9",
            "0x0000000000000000000000001bfdb91b283d7ec24012d7ff5a5b29005140d09a",
            "0xf902e0aeed648a9647c389c469d3167d43cb30b847d799d5760b4e2d72067658",
            "0x0000000000000000000000000000000000000000000000000000000000000001"
          ],
          "data": "0x00000000000000000000000000000000000000000000000000000000000000200000000000000000000000000000000000000000000000000000000000000000",
          "blockHash": "0x5033b015ab34d3007894e8f3d6e84827aa57c0d85182736f6309a15319d2ccb1",
          "blockNumber": "0xa506a4",
          "blockTimestamp": "0x69fe03b8",
          "transactionHash": "0x78fbffeb8abe150ef35f4e2a1c04b70a63f175592a040c880098f367d227c1f7",
          "transactionIndex": "0x9e",
          "logIndex": "0x1da",
          "removed": false
        }
      ],
      "logsBloom": "0x00000000000000800000000008000000000000000000000000000000000000010000000000000000001000000000000000000000000000000000000000040000000000000000000000000000000000000000000000040000000000000000000000000000000000000000000000000000000000000080000000000000000000000000000000000000000000000000000000000000000000000000000000000000000000000000000000000000001000000000000000000000000000000000000000000000000000100000000000000000020000000000000000000000000040000000000000000020000000000000000000000000000000200000022000000000",
      "type": "0x2",
      "transactionHash": "0x78fbffeb8abe150ef35f4e2a1c04b70a63f175592a040c880098f367d227c1f7",
      "transactionIndex": "0x9e",
      "blockHash": "0x5033b015ab34d3007894e8f3d6e84827aa57c0d85182736f6309a15319d2ccb1",
      "blockNumber": "0xa506a4",
      "gasUsed": "0xfd48",
      "effectiveGasPrice": "0xf42c3",
      "from": "0x1bfdb91b283d7ec24012d7ff5a5b29005140d09a",
      "to": "0x8da83ff5533e7842076f0b66db1dd3c5de06c395",
      "contractAddress": null
    },
    {
      "status": "0x1",
      "cumulativeGasUsed": "0x2135ecc",
      "logs": [
        {
          "address": "0x8da83ff5533e7842076f0b66db1dd3c5de06c395",
          "topics": [
            "0x5be2678cab71c7d94235767eb1df3c57673f19e805cdc0edbd2e74854ae9f0f9",
            "0x000000000000000000000000328735d26e5ada93610f0006c32abe2278c46211",
            "0xf902e0aeed648a9647c389c469d3167d43cb30b847d799d5760b4e2d72067658",
            "0x0000000000000000000000000000000000000000000000000000000000000001"
          ],
          "data": "0x00000000000000000000000000000000000000000000000000000000000000200000000000000000000000000000000000000000000000000000000000000000",
          "blockHash": "0xd5f81deaa9e1f3213def756dd1c34810ea50ef8291d5cf7557c641b29be575ce",
          "blockNumber": "0xa506a5",
          "blockTimestamp": "0x69fe03d0",
          "transactionHash": "0xe581caa0e3c3e7489c1674be6ce346f7a6a0de79815248578a83218e9c466d54",
          "transactionIndex": "0xeb",
          "logIndex": "0x466",
          "removed": false
        }
      ],
      "logsBloom": "0x00000000000000000000000008000000000000000000000000000000000000010000000000000000001000000000000000000000000000000000000000040000000000000000000000000000000000000000000000040000000000000000000000000000000000000000000000000000000000000080000000000000000000000000000000000000000000000000000000000000000000000000000000000000000000000000000000000000001000000000000000000000000000000000000000000000000000100000000000008004020000000000000100000000000040000000000000000020000000000000000000000000000000000000002000000000",
      "type": "0x2",
      "transactionHash": "0xe581caa0e3c3e7489c1674be6ce346f7a6a0de79815248578a83218e9c466d54",
      "transactionIndex": "0xeb",
      "blockHash": "0xd5f81deaa9e1f3213def756dd1c34810ea50ef8291d5cf7557c641b29be575ce",
      "blockNumber": "0xa506a5",
      "gasUsed": "0xfd48",
      "effectiveGasPrice": "0xf42bd",
      "from": "0x328735d26e5ada93610f0006c32abe2278c46211",
      "to": "0x8da83ff5533e7842076f0b66db1dd3c5de06c395",
      "contractAddress": null
    },
    {
      "status": "0x1",
      "cumulativeGasUsed": "0xfa9844",
      "logs": [
        {
          "address": "0x8da83ff5533e7842076f0b66db1dd3c5de06c395",
          "topics": [
            "0x5be2678cab71c7d94235767eb1df3c57673f19e805cdc0edbd2e74854ae9f0f9",
            "0x000000000000000000000000ea223f81d7e74321370a77f1e44067be8738b627",
            "0x0b06a39cd79df2acb58b2f0d6d8290f9b09f6aab780047a5dc3933f78b9c08ff",
            "0x0000000000000000000000000000000000000000000000000000000000000001"
          ],
          "data": "0x00000000000000000000000000000000000000000000000000000000000000200000000000000000000000000000000000000000000000000000000000000000",
          "blockHash": "0x2328215d5a78404259e73ccaeede77d3ae782387952aef8f6aa40b187bcde89b",
          "blockNumber": "0xa506a6",
          "blockTimestamp": "0x69fe03dc",
          "transactionHash": "0x24daf1671e329e03fe5bfa2342215b87c9a3b55535e11e691b8b28596b71693d",
          "transactionIndex": "0x7a",
          "logIndex": "0x1c3",
          "removed": false
        }
      ],
      "logsBloom": "0x00000100000000000000000008000000000000000000000000000000000000010000000000000000001000000000000000000000000000000000000000040000000000000000000000000000000000000000000000040000000000000000000000000000000000000000000000000000000000000000000000000000000000000000000000000000000000000000000000000000000000000000000000002000000000000004020000000000001000000000000008000000000000000000000000000000000000100008000000000000000000000000000000000000000040000000000000000020000000000000000000000000000000000000000000000000",
      "type": "0x2",
      "transactionHash": "0x24daf1671e329e03fe5bfa2342215b87c9a3b55535e11e691b8b28596b71693d",
      "transactionIndex": "0x7a",
      "blockHash": "0x2328215d5a78404259e73ccaeede77d3ae782387952aef8f6aa40b187bcde89b",
      "blockNumber": "0xa506a6",
      "gasUsed": "0xfd3c",
      "effectiveGasPrice": "0xf42c0",
      "from": "0xea223f81d7e74321370a77f1e44067be8738b627",
      "to": "0x8da83ff5533e7842076f0b66db1dd3c5de06c395",
      "contractAddress": null
    },
    {
      "status": "0x1",
      "cumulativeGasUsed": "0x10808e7",
      "logs": [
        {
          "address": "0x8da83ff5533e7842076f0b66db1dd3c5de06c395",
          "topics": [
            "0x5be2678cab71c7d94235767eb1df3c57673f19e805cdc0edbd2e74854ae9f0f9",
            "0x0000000000000000000000001bfdb91b283d7ec24012d7ff5a5b29005140d09a",
            "0x0b06a39cd79df2acb58b2f0d6d8290f9b09f6aab780047a5dc3933f78b9c08ff",
            "0x0000000000000000000000000000000000000000000000000000000000000001"
          ],
          "data": "0x00000000000000000000000000000000000000000000000000000000000000200000000000000000000000000000000000000000000000000000000000000000",
          "blockHash": "0x8a798cce1224b00c138f6156a607cbb53d4277b46e66e9cc4e9a8ce772cb2ff9",
          "blockNumber": "0xa506a7",
          "blockTimestamp": "0x69fe03e8",
          "transactionHash": "0xf81c626114763e00207fe69a486e83c42c125581c8f53331fab796b3e541ace6",
          "transactionIndex": "0x60",
          "logIndex": "0x26d",
          "removed": false
        }
      ],
      "logsBloom": "0x00000000000000800000000008000000000000000000000000000000000000010000000000000000001000000000000000000000000000000000000000040000000000000000000000000000000000000000000000040000000000000000000000000000000000000000000000000000000000000000000000000000000000000000000000000000000000000000000000000000000000000000000000000000000000000004020000000000001000000000000008000000000000000000000000000000000000100000000000000000000000000000000000000000000040000000000000000020000000000000000000000000000000200000020000000000",
      "type": "0x2",
      "transactionHash": "0xf81c626114763e00207fe69a486e83c42c125581c8f53331fab796b3e541ace6",
      "transactionIndex": "0x60",
      "blockHash": "0x8a798cce1224b00c138f6156a607cbb53d4277b46e66e9cc4e9a8ce772cb2ff9",
      "blockNumber": "0xa506a7",
      "gasUsed": "0xfd3c",
      "effectiveGasPrice": "0xf42bb",
      "from": "0x1bfdb91b283d7ec24012d7ff5a5b29005140d09a",
      "to": "0x8da83ff5533e7842076f0b66db1dd3c5de06c395",
      "contractAddress": null
    },
    {
      "status": "0x1",
      "cumulativeGasUsed": "0x189920a",
      "logs": [
        {
          "address": "0x8da83ff5533e7842076f0b66db1dd3c5de06c395",
          "topics": [
            "0x5be2678cab71c7d94235767eb1df3c57673f19e805cdc0edbd2e74854ae9f0f9",
            "0x000000000000000000000000328735d26e5ada93610f0006c32abe2278c46211",
            "0x0b06a39cd79df2acb58b2f0d6d8290f9b09f6aab780047a5dc3933f78b9c08ff",
            "0x0000000000000000000000000000000000000000000000000000000000000001"
          ],
          "data": "0x00000000000000000000000000000000000000000000000000000000000000200000000000000000000000000000000000000000000000000000000000000000",
          "blockHash": "0x9cc66e436fc841241dce38b33de5e3fc50c2a9084f47baa75ca0adbf18bc8c2a",
          "blockNumber": "0xa506a8",
          "blockTimestamp": "0x69fe0400",
          "transactionHash": "0x935d83aaf5f727e3f0e0c1b27c070c2e5f2bf87069bd6d7d1158e865848c4191",
          "transactionIndex": "0xaf",
          "logIndex": "0x34b",
          "removed": false
        }
      ],
      "logsBloom": "0x00000000000000000000000008000000000000000000000000000000000000010000000000000000001000000000000000000000000000000000000000040000000000000000000000000000000000000000000000040000000000000000000000000000000000000000000000000000000000000000000000000000000000000000000000000000000000000000000000000000000000000000000000000000000000000004020000000000001000000000000008000000000000000000000000000000000000100000000000008004000000000000000100000000000040000000000000000020000000000000000000000000000000000000000000000000",
      "type": "0x2",
      "transactionHash": "0x935d83aaf5f727e3f0e0c1b27c070c2e5f2bf87069bd6d7d1158e865848c4191",
      "transactionIndex": "0xaf",
      "blockHash": "0x9cc66e436fc841241dce38b33de5e3fc50c2a9084f47baa75ca0adbf18bc8c2a",
      "blockNumber": "0xa506a8",
      "gasUsed": "0xfd3c",
      "effectiveGasPrice": "0xf42b9",
      "from": "0x328735d26e5ada93610f0006c32abe2278c46211",
      "to": "0x8da83ff5533e7842076f0b66db1dd3c5de06c395",
      "contractAddress": null
    }
  ],
  "libraries": [],
  "pending": [],
  "returns": {},
  "timestamp": 1778254849442,
  "chain": 11155111,
  "commit": "fddcd23"
}