{
  "transactions": [
    {
      "hash": "0x79f18a8746c95839ca5148645b968380b050c510ee8111eea2777f1bb6075f52",
      "transactionType": "CALL",
      "contractName": null,
      "contractAddress": "0x8da83ff5533e7842076f0b66db1dd3c5de06c395",
      "function": "propose(uint16,bytes,uint256,string)",
      "arguments": [
        "2",
        "0x",
        "1",
        "Initiating create ideas layer"
      ],
      "transaction": {
        "from": "0x328735d26e5ada93610f0006c32abe2278c46211",
        "to": "0x8da83ff5533e7842076f0b66db1dd3c5de06c395",
        "gas": "0x40a52",
        "value": "0x0",
        "input": "0x2e2d825300000000000000000000000000000000000000000000000000000000000000020000000000000000000000000000000000000000000000000000000000000080000000000000000000000000000000000000000000000000000000000000000100000000000000000000000000000000000000000000000000000000000000a00000000000000000000000000000000000000000000000000000000000000000000000000000000000000000000000000000000000000000000000000000001d496e6974696174696e6720637265617465206964656173206c61796572000000",
        "nonce": "0x1b49",
        "chainId": "0xaa36a7"
      },
      "additionalContracts": [],
      "isFixedGasLimit": false
    },
    {
      "hash": "0x9e13e79bb164f72e0b13e98db174e0329d15259d239b4e60c19be6a1a38b288b",
      "transactionType": "CALL",
      "contractName": null,
      "contractAddress": "0x8da83ff5533e7842076f0b66db1dd3c5de06c395",
      "function": "castVote(uint256,uint8)",
      "arguments": [
        "36647982658193957094169678791575954426518012935365208027004955134672907452212",
        "1"
      ],
      "transaction": {
        "from": "0xea223f81d7e74321370a77f1e44067be8738b627",
        "to": "0x8da83ff5533e7842076f0b66db1dd3c5de06c395",
        "gas": "0x15dd7",
        "value": "0x0",
        "input": "0x56781388510605eadc4f9d0ebd53174e0507e836963757d455f37a59c865e2eb1bbebf340000000000000000000000000000000000000000000000000000000000000001",
        "nonce": "0x5f",
        "chainId": "0xaa36a7"
      },
      "additionalContracts": [],
      "isFixedGasLimit": false
    },
    {
      "hash": "0xd213938559d237f1b838218202e60493a333e76fc1aed832b87cb5c8881234be",
      "transactionType": "CALL",
      "contractName": null,
      "contractAddress": "0x8da83ff5533e7842076f0b66db1dd3c5de06c395",
      "function": "castVote(uint256,uint8)",
      "arguments": [
        "36647982658193957094169678791575954426518012935365208027004955134672907452212",
        "1"
      ],
      "transaction": {
        "from": "0x1bfdb91b283d7ec24012d7ff5a5b29005140d09a",
        "to": "0x8da83ff5533e7842076f0b66db1dd3c5de06c395",
        "gas": "0x15dd7",
        "value": "0x0",
        "input": "0x56781388510605eadc4f9d0ebd53174e0507e836963757d455f37a59c865e2eb1bbebf340000000000000000000000000000000000000000000000000000000000000001",
        "nonce": "0x1",
        "chainId": "0xaa36a7"
      },
      "additionalContracts": [],
      "isFixedGasLimit": false
    },
    {
      "hash": "0xf2b59e41e09b6193446c75620e0984947f484a6d9805fb7cabe1e6fa777ffaf6",
      "transactionType": "CALL",
      "contractName": null,
      "contractAddress": "0x8da83ff5533e7842076f0b66db1dd3c5de06c395",
      "function": "castVote(uint256,uint8)",
      "arguments": [
        "36647982658193957094169678791575954426518012935365208027004955134672907452212",
        "1"
      ],
      "transaction": {
        "from": "0x328735d26e5ada93610f0006c32abe2278c46211",
        "to": "0x8da83ff5533e7842076f0b66db1dd3c5de06c395",
        "gas": "0x15dd7",
        "value": "0x0",
        "input": "0x56781388510605eadc4f9d0ebd53174e0507e836963757d455f37a59c865e2eb1bbebf340000000000000000000000000000000000000000000000000000000000000001",
        "nonce": "0x1b4a",
        "chainId": "0xaa36a7"
      },
      "additionalContracts": [],
      "isFixedGasLimit": false
    }
  ],
  "receipts": [
    {
      "status": "0x1",
      "cumulativeGasUsed": "0x1cfebf4",
      "logs": [
        {
          "address": "0x8da83ff5533e7842076f0b66db1dd3c5de06c395",
          "topics": [
            "0xb5856a9700a7e851456d3a16348b4ae0fbb11b06ac0af8dbe8e8652c57cc4cbd",
            "0x510605eadc4f9d0ebd53174e0507e836963757d455f37a59c865e2eb1bbebf34",
            "0x000000000000000000000000328735d26e5ada93610f0006c32abe2278c46211",
            "0x0000000000000000000000000000000000000000000000000000000000000002"
          ],
          "data": "0x00000000000000000000000000000000000000000000000000000000000000c000000000000000000000000000000000000000000000000000000000000000e00000000000000000000000000000000000000000000000000000000000a504d50000000000000000000000000000000000000000000000000000000000a504ee0000000000000000000000000000000000000000000000000000000000000001000000000000000000000000000000000000000000000000000000000000010000000000000000000000000000000000000000000000000000000000000000000000000000000000000000000000000000000000000000000000000000000000000000000000000000000000000000000000000000000000000000000000001d496e6974696174696e6720637265617465206964656173206c61796572000000",
          "blockHash": "0xd8d1361e8546840a07f55794f5dd046889520e8f598bcbf7f22d9314a9aa192c",
          "blockNumber": "0xa504d5",
          "blockTimestamp": "0x69fdeb94",
          "transactionHash": "0x79f18a8746c95839ca5148645b968380b050c510ee8111eea2777f1bb6075f52",
          "transactionIndex": "0x93",
          "logIndex": "0x31a",
          "removed": false
        }
      ],
      "logsBloom": "0x04000000000000000000800000000000080000000000000000000000000000010000000000000000000000000000000000000000000000000000000000000000000000000000000000000000000000000000000000000000000000000000000000000000000000000000000000000000000000000001000000000000000000000000000000000000000000000000000000000000000000000000000000000000000000000000000000000100000000000000000000000000000000010000000000000000000000100000000000008004000000000000000100000000000000000100000000000020000000000000000000000000008000000000000040000000",
      "type": "0x2",
      "transactionHash": "0x79f18a8746c95839ca5148645b968380b050c510ee8111eea2777f1bb6075f52",
      "transactionIndex": "0x93",
      "blockHash": "0xd8d1361e8546840a07f55794f5dd046889520e8f598bcbf7f22d9314a9aa192c",
      "blockNumber": "0xa504d5",
      "gasUsed": "0x2ecd5",
      "effectiveGasPrice": "0xf4255",
      "from": "0x328735d26e5ada93610f0006c32abe2278c46211",
      "to": "0x8da83ff5533e7842076f0b66db1dd3c5de06c395",
      "contractAddress": null
    },
    {
      "status": "0x1",
      "cumulativeGasUsed": "0xf1cc8e",
      "logs": [
        {
          "address": "0x8da83ff5533e7842076f0b66db1dd3c5de06c395",
          "topics": [
            "0x5be2678cab71c7d94235767eb1df3c57673f19e805cdc0edbd2e74854ae9f0f9",
            "0x000000000000000000000000ea223f81d7e74321370a77f1e44067be8738b627",
            "0x510605eadc4f9d0ebd53174e0507e836963757d455f37a59c865e2eb1bbebf34",
            "0x0000000000000000000000000000000000000000000000000000000000000001"
          ],
          "data": "0x00000000000000000000000000000000000000000000000000000000000000200000000000000000000000000000000000000000000000000000000000000000",
          "blockHash": "0x74e77d2617ac208d044c08256d522a384b361d323228b8c93ad87988431c9612",
          "blockNumber": "0xa504d6",
          "blockTimestamp": "0x69fdeba0",
          "transactionHash": "0x9e13e79bb164f72e0b13e98db174e0329d15259d239b4e60c19be6a1a38b288b",
          "transactionIndex": "0x60",
          "logIndex": "0x150",
          "removed": false
        }
      ],
      "logsBloom": "0x00000100000000000000800008000000080000000000000000000000000000010000000000000000001000000000000000000000000000000000000000040000000000000000000000000000000000000000000000040000000000000000000000000000000000000000000000000000000000000000000000000000000000000000000000000000000000000000000000000000000000000000000000002000000000000000000000000000001000000000000000000000000000010000000000000000000000100008000000000000000000000000000000000000000040000000000000000020000000000000000000000000000000000000000000000000",
      "type": "0x2",
      "transactionHash": "0x9e13e79bb164f72e0b13e98db174e0329d15259d239b4e60c19be6a1a38b288b",
      "transactionIndex": "0x60",
      "blockHash": "0x74e77d2617ac208d044c08256d522a384b361d323228b8c93ad87988431c9612",
      "blockNumber": "0xa504d6",
      "gasUsed": "0xfd48",
      "effectiveGasPrice": "0xf4256",
      "from": "0xea223f81d7e74321370a77f1e44067be8738b627",
      "to": "0x8da83ff5533e7842076f0b66db1dd3c5de06c395",
      "contractAddress": null
    },
    {
      "status": "0x1",
      "cumulativeGasUsed": "0xd374bf",
      "logs": [
        {
          "address": "0x8da83ff5533e7842076f0b66db1dd3c5de06c395",
          "topics": [
            "0x5be2678cab71c7d94235767eb1df3c57673f19e805cdc0edbd2e74854ae9f0f9",
            "0x0000000000000000000000001bfdb91b283d7ec24012d7ff5a5b29005140d09a",
            "0x510605eadc4f9d0ebd53174e0507e836963757d455f37a59c865e2eb1bbebf34",
            "0x0000000000000000000000000000000000000000000000000000000000000001"
          ],
          "data": "0x00000000000000000000000000000000000000000000000000000000000000200000000000000000000000000000000000000000000000000000000000000000",
          "blockHash": "0x7043f6c3b6aa1c09ce4f8ad4d2467cf4b10001c97df6145d239baaaacf02587e",
          "blockNumber": "0xa504d7",
          "blockTimestamp": "0x69fdebac",
          "transactionHash": "0xd213938559d237f1b838218202e60493a333e76fc1aed832b87cb5c8881234be",
          "transactionIndex": "0x42",
          "logIndex": "0x103",
          "removed": false
        }
      ],
      "logsBloom": "0x00000000000000800000800008000000080000000000000000000000000000010000000000000000001000000000000000000000000000000000000000040000000000000000000000000000000000000000000000040000000000000000000000000000000000000000000000000000000000000000000000000000000000000000000000000000000000000000000000000000000000000000000000000000000000000000000000000000001000000000000000000000000000010000000000000000000000100000000000000000000000000000000000000000000040000000000000000020000000000000000000000000000000200000020000000000",
      "type": "0x2",
      "transactionHash": "0xd213938559d237f1b838218202e60493a333e76fc1aed832b87cb5c8881234be",
      "transactionIndex": "0x42",
      "blockHash": "0x7043f6c3b6aa1c09ce4f8ad4d2467cf4b10001c97df6145d239baaaacf02587e",
      "blockNumber": "0xa504d7",
      "gasUsed": "0xfd48",
      "effectiveGasPrice": "0xf4256",
      "from": "0x1bfdb91b283d7ec24012d7ff5a5b29005140d09a",
      "to": "0x8da83ff5533e7842076f0b66db1dd3c5de06c395",
      "contractAddress": null
    },
    {
      "status": "0x1",
      "cumulativeGasUsed": "0xc71e93",
      "logs": [
        {
          "address": "0x8da83ff5533e7842076f0b66db1dd3c5de06c395",
          "topics": [
            "0x5be2678cab71c7d94235767eb1df3c57673f19e805cdc0edbd2e74854ae9f0f9",
            "0x000000000000000000000000328735d26e5ada93610f0006c32abe2278c46211",
            "0x510605eadc4f9d0ebd53174e0507e836963757d455f37a59c865e2eb1bbebf34",
            "0x0000000000000000000000000000000000000000000000000000000000000001"
          ],
          "data": "0x00000000000000000000000000000000000000000000000000000000000000200000000000000000000000000000000000000000000000000000000000000000",
          "blockHash": "0xbb78d2be384b77d942e8a35872b2f937fccff2901ca1fef458314ed79d2bc6d0",
          "blockNumber": "0xa504d8",
          "blockTimestamp": "0x69fdebb8",
          "transactionHash": "0xf2b59e41e09b6193446c75620e0984947f484a6d9805fb7cabe1e6fa777ffaf6",
          "transactionIndex": "0x5e",
          "logIndex": "0x134",
          "removed": false
        }
      ],
      "logsBloom": "0x00000000000000000000800008000000080000000000000000000000000000010000000000000000001000000000000000000000000000000000000000040000000000000000000000000000000000000000000000040000000000000000000000000000000000000000000000000000000000000000000000000000000000000000000000000000000000000000000000000000000000000000000000000000000000000000000000000000001000000000000000000000000000010000000000000000000000100000000000008004000000000000000100000000000040000000000000000020000000000000000000000000000000000000000000000000",
      "type": "0x2",
      "transactionHash": "0xf2b59e41e09b6193446c75620e0984947f484a6d9805fb7cabe1e6fa777ffaf6",
      "transactionIndex": "0x5e",
      "blockHash": "0xbb78d2be384b77d942e8a35872b2f937fccff2901ca1fef458314ed79d2bc6d0",
      "blockNumber": "0xa504d8",
      "gasUsed": "0xfd48",
      "effectiveGasPrice": "0xf4256",
      "from": "0x328735d26e5ada93610f0006c32abe2278c46211",
      "to": "0x8da83ff5533e7842076f0b66db1dd3c5de06c395",
      "contractAddress": null
    }
  ],
  "libraries": [],
  "pending": [],
  "returns": {},
  "timestamp": 1778248632565,
  "chain": 11155111,
  "commit": "fddcd23"
}