{
  "transactions": [
    {
      "hash": "0x5c74d5e9b2d5c9974bb8e82039d90a01858b02c3bbd2afa9e2e89ce554e7b74c",
      "transactionType": "CALL",
      "contractName": null,
      "contractAddress": "0x8da83ff5533e7842076f0b66db1dd3c5de06c395",
      "function": "propose(uint16,bytes,uint256,string)",
      "arguments": [
        "2",
        "0x",
        "2",
        "Initiating create ideas layer"
      ],
      "transaction": {
        "from": "0x328735d26e5ada93610f0006c32abe2278c46211",
        "to": "0x8da83ff5533e7842076f0b66db1dd3c5de06c395",
        "gas": "0x40a52",
        "value": "0x0",
        "input": "0x2e2d825300000000000000000000000000000000000000000000000000000000000000020000000000000000000000000000000000000000000000000000000000000080000000000000000000000000000000000000000000000000000000000000000200000000000000000000000000000000000000000000000000000000000000a00000000000000000000000000000000000000000000000000000000000000000000000000000000000000000000000000000000000000000000000000000001d496e6974696174696e6720637265617465206964656173206c61796572000000",
        "nonce": "0x1b4f",
        "chainId": "0xaa36a7"
      },
      "additionalContracts": [],
      "isFixedGasLimit": false
    },
    {
      "hash": "0x0af640bcf495073934fdba9c53636edd661dbe19ed563c005e05255606901a83",
      "transactionType": "CALL",
      "contractName": null,
      "contractAddress": "0x8da83ff5533e7842076f0b66db1dd3c5de06c395",
      "function": "castVote(uint256,uint8)",
      "arguments": [
        "32495195835711626736656469780604858053547831492146890105007124421937305477502",
        "1"
      ],
      "transaction": {
        "from": "0xea223f81d7e74321370a77f1e44067be8738b627",
        "to": "0x8da83ff5533e7842076f0b66db1dd3c5de06c395",
        "gas": "0x15dd7",
        "value": "0x0",
        "input": "0x5678138847d7a10a9dbb406060356324419144a1300e51da4d30706931701660acb7e17e0000000000000000000000000000000000000000000000000000000000000001",
        "nonce": "0x60",
        "chainId": "0xaa36a7"
      },
      "additionalContracts": [],
      "isFixedGasLimit": false
    },
    {
      "hash": "0xeb7365054572a66287553d1b35d4a79ecc67ff2a9dfb5223b0cd5d58e59ab3ba",
      "transactionType": "CALL",
      "contractName": null,
      "contractAddress": "0x8da83ff5533e7842076f0b66db1dd3c5de06c395",
      "function": "castVote(uint256,uint8)",
      "arguments": [
        "32495195835711626736656469780604858053547831492146890105007124421937305477502",
        "1"
      ],
      "transaction": {
        "from": "0x1bfdb91b283d7ec24012d7ff5a5b29005140d09a",
        "to": "0x8da83ff5533e7842076f0b66db1dd3c5de06c395",
        "gas": "0x15dd7",
        "value": "0x0",
        "input": "0x5678138847d7a10a9dbb406060356324419144a1300e51da4d30706931701660acb7e17e0000000000000000000000000000000000000000000000000000000000000001",
        "nonce": "0x2",
        "chainId": "0xaa36a7"
      },
      "additionalContracts": [],
      "isFixedGasLimit": false
    },
    {
      "hash": "0xf620cd44f339515b5cb6c2552e1828f1768f95f968291580b47f40b2d233ce80",
      "transactionType": "CALL",
      "contractName": null,
      "contractAddress": "0x8da83ff5533e7842076f0b66db1dd3c5de06c395",
      "function": "castVote(uint256,uint8)",
      "arguments": [
        "32495195835711626736656469780604858053547831492146890105007124421937305477502",
        "1"
      ],
      "transaction": {
        "from": "0x328735d26e5ada93610f0006c32abe2278c46211",
        "to": "0x8da83ff5533e7842076f0b66db1dd3c5de06c395",
        "gas": "0x15dd7",
        "value": "0x0",
        "input": "0x5678138847d7a10a9dbb406060356324419144a1300e51da4d30706931701660acb7e17e0000000000000000000000000000000000000000000000000000000000000001",
        "nonce": "0x1b50",
        "chainId": "0xaa36a7"
      },
      "additionalContracts": [],
      "isFixedGasLimit": false
    }
  ],
  "receipts": [
    {
      "status": "0x1",
      "cumulativeGasUsed": "0x1876f31",
      "logs": [
        {
          "address": "0x8da83ff5533e7842076f0b66db1dd3c5de06c395",
          "topics": [
            "0xb5856a9700a7e851456d3a16348b4ae0fbb11b06ac0af8dbe8e8652c57cc4cbd",
            "0x47d7a10a9dbb406060356324419144a1300e51da4d30706931701660acb7e17e",
            "0x000000000000000000000000328735d26e5ada93610f0006c32abe2278c46211",
            "0x0000000000000000000000000000000000000000000000000000000000000002"
          ],
          "data": "0x00000000000000000000000000000000000000000000000000000000000000c000000000000000000000000000000000000000000000000000000000000000e00000000000000000000000000000000000000000000000000000000000a5055e0000000000000000000000000000000000000000000000000000000000a505770000000000000000000000000000000000000000000000000000000000000002000000000000000000000000000000000000000000000000000000000000010000000000000000000000000000000000000000000000000000000000000000000000000000000000000000000000000000000000000000000000000000000000000000000000000000000000000000000000000000000000000000000000001d496e6974696174696e6720637265617465206964656173206c61796572000000",
          "blockHash": "0x42dce3c6776e05d69e6e1a2d591b415a3f70da08f000eae4ee2e98beb7d1ab82",
          "blockNumber": "0xa5055e",
          "blockTimestamp": "0x69fdf2b4",
          "transactionHash": "0x5c74d5e9b2d5c9974bb8e82039d90a01858b02c3bbd2afa9e2e89ce554e7b74c",
          "transactionIndex": "0x8c",
          "logIndex": "0x31b",
          "removed": false
        }
      ],
      "logsBloom": "0x04000000000000000000000000000000000000000000000000000000000000010000000000000000000000000000000000000000000000000000000000000000000000000000000000000000000000000000000000000000000000000000000000000000000000000001000000000000000000000001000000000000000000000000000000000000000000000000000000000000000000000000000000000000000000000000000000000100000020000000000000000000000000000000000000000000400000100000000000008004000000000000000100000000000000000100000000000020000000000000000000000000008000000000000040000000",
      "type": "0x2",
      "transactionHash": "0x5c74d5e9b2d5c9974bb8e82039d90a01858b02c3bbd2afa9e2e89ce554e7b74c",
      "transactionIndex": "0x8c",
      "blockHash": "0x42dce3c6776e05d69e6e1a2d591b415a3f70da08f000eae4ee2e98beb7d1ab82",
      "blockNumber": "0xa5055e",
      "gasUsed": "0x2ecd5",
      "effectiveGasPrice": "0xf4264",
      "from": "0x328735d26e5ada93610f0006c32abe2278c46211",
      "to": "0x8da83ff5533e7842076f0b66db1dd3c5de06c395",
      "contractAddress": null
    },
    {
      "status": "0x1",
      "cumulativeGasUsed": "0xb96374",
      "logs": [
        {
          "address": "0x8da83ff5533e7842076f0b66db1dd3c5de06c395",
          "topics": [
            "0x5be2678cab71c7d94235767eb1df3c57673f19e805cdc0edbd2e74854ae9f0f9",
            "0x000000000000000000000000ea223f81d7e74321370a77f1e44067be8738b627",
            "0x47d7a10a9dbb406060356324419144a1300e51da4d30706931701660acb7e17e",
            "0x0000000000000000000000000000000000000000000000000000000000000001"
          ],
          "data": "0x00000000000000000000000000000000000000000000000000000000000000200000000000000000000000000000000000000000000000000000000000000000",
          "blockHash": "0x01a98ffe5ad4924d11a249e157078ffde089073191282e0001f5dda4ae826b40",
          "blockNumber": "0xa5055f",
          "blockTimestamp": "0x69fdf2c0",
          "transactionHash": "0x0af640bcf495073934fdba9c53636edd661dbe19ed563c005e05255606901a83",
          "transactionIndex": "0x4b",
          "logIndex": "0x186",
          "removed": false
        }
      ],
      "logsBloom": "0x00000100000000000000000008000000000000000000000000000000000000010000000000000000001000000000000000000000000000000000000000040000000000000000000000000000000000000000000000040000000000000000000000000000000000000001000000000000000000000000000000000000000000000000000000000000000000000000000000000000000000000000000000002000000000000000000000000000001020000000000000000000000000000000000000000000400000100008000000000000000000000000000000000000000040000000000000000020000000000000000000000000000000000000000000000000",
      "type": "0x2",
      "transactionHash": "0x0af640bcf495073934fdba9c53636edd661dbe19ed563c005e05255606901a83",
      "transactionIndex": "0x4b",
      "blockHash": "0x01a98ffe5ad4924d11a249e157078ffde089073191282e0001f5dda4ae826b40",
      "blockNumber": "0xa5055f",
      "gasUsed": "0xfd48",
      "effectiveGasPrice": "0xf4265",
      "from": "0xea223f81d7e74321370a77f1e44067be8738b627",
      "to": "0x8da83ff5533e7842076f0b66db1dd3c5de06c395",
      "contractAddress": null
    },
    {
      "status": "0x1",
      "cumulativeGasUsed": "0x11fbf0f",
      "logs": [
        {
          "address": "0x8da83ff5533e7842076f0b66db1dd3c5de06c395",
          "topics": [
            "0x5be2678cab71c7d94235767eb1df3c57673f19e805cdc0edbd2e74854ae9f0f9",
            "0x0000000000000000000000001bfdb91b283d7ec24012d7ff5a5b29005140d09a",
            "0x47d7a10a9dbb406060356324419144a1300e51da4d30706931701660acb7e17e",
            "0x0000000000000000000000000000000000000000000000000000000000000001"
          ],
          "data": "0x00000000000000000000000000000000000000000000000000000000000000200000000000000000000000000000000000000000000000000000000000000000",
          "blockHash": "0xcf786baf69f3978c7b9fdf417978f5cfaf63ba0c5b14ebfa31ea378825d97aa3",
          "blockNumber": "0xa50560",
          "blockTimestamp": "0x69fdf2cc",
          "transactionHash": "0xeb7365054572a66287553d1b35d4a79ecc67ff2a9dfb5223b0cd5d58e59ab3ba",
          "transactionIndex": "0x6a",
          "logIndex": "0x269",
          "removed": false
        }
      ],
      "logsBloom": "0x00000000000000800000000008000000000000000000000000000000000000010000000000000000001000000000000000000000000000000000000000040000000000000000000000000000000000000000000000040000000000000000000000000000000000000001000000000000000000000000000000000000000000000000000000000000000000000000000000000000000000000000000000000000000000000000000000000000001020000000000000000000000000000000000000000000400000100000000000000000000000000000000000000000000040000000000000000020000000000000000000000000000000200000020000000000",
      "type": "0x2",
      "transactionHash": "0xeb7365054572a66287553d1b35d4a79ecc67ff2a9dfb5223b0cd5d58e59ab3ba",
      "transactionIndex": "0x6a",
      "blockHash": "0xcf786baf69f3978c7b9fdf417978f5cfaf63ba0c5b14ebfa31ea378825d97aa3",
      "blockNumber": "0xa50560",
      "gasUsed": "0xfd48",
      "effectiveGasPrice": "0xf4264",
      "from": "0x1bfdb91b283d7ec24012d7ff5a5b29005140d09a",
      "to": "0x8da83ff5533e7842076f0b66db1dd3c5de06c395",
      "contractAddress": null
    },
    {
      "status": "0x1",
      "cumulativeGasUsed": "0xae105d",
      "logs": [
        {
          "address": "0x8da83ff5533e7842076f0b66db1dd3c5de06c395",
          "topics": [
            "0x5be2678cab71c7d94235767eb1df3c57673f19e805cdc0edbd2e74854ae9f0f9",
            "0x000000000000000000000000328735d26e5ada93610f0006c32abe2278c46211",
            "0x47d7a10a9dbb406060356324419144a1300e51da4d30706931701660acb7e17e",
            "0x0000000000000000000000000000000000000000000000000000000000000001"
          ],
          "data": "0x00000000000000000000000000000000000000000000000000000000000000200000000000000000000000000000000000000000000000000000000000000000",
          "blockHash": "0x12ac5ce59db0176499f03ff9c3837721e50276fcf3192224d221c7ede8b8719c",
          "blockNumber": "0xa50561",
          "blockTimestamp": "0x69fdf2d8",
          "transactionHash": "0xf620cd44f339515b5cb6c2552e1828f1768f95f968291580b47f40b2d233ce80",
          "transactionIndex": "0x3a",
          "logIndex": "0x157",
          "removed": false
        }
      ],
      "logsBloom": "0x00000000000000000000000008000000000000000000000000000000000000010000000000000000001000000000000000000000000000000000000000040000000000000000000000000000000000000000000000040000000000000000000000000000000000000001000000000000000000000000000000000000000000000000000000000000000000000000000000000000000000000000000000000000000000000000000000000000001020000000000000000000000000000000000000000000400000100000000000008004000000000000000100000000000040000000000000000020000000000000000000000000000000000000000000000000",
      "type": "0x2",
      "transactionHash": "0xf620cd44f339515b5cb6c2552e1828f1768f95f968291580b47f40b2d233ce80",
      "transactionIndex": "0x3a",
      "blockHash": "0x12ac5ce59db0176499f03ff9c3837721e50276fcf3192224d221c7ede8b8719c",
      "blockNumber": "0xa50561",
      "gasUsed": "0xfd48",
      "effectiveGasPrice": "0xf4265",
      "from": "0x328735d26e5ada93610f0006c32abe2278c46211",
      "to": "0x8da83ff5533e7842076f0b66db1dd3c5de06c395",
      "contractAddress": null
    }
  ],
  "libraries": [],
  "pending": [],
  "returns": {},
  "timestamp": 1778250458457,
  "chain": 11155111,
  "commit": "fddcd23"
}