{
  "transactions": [
    {
      "hash": "0x2a030cda5ab0e94257dc33bbb65360e2f9fb5f1087808a6690f05650564e416b",
      "transactionType": "CALL",
      "contractName": null,
      "contractAddress": "0x8da83ff5533e7842076f0b66db1dd3c5de06c395",
      "function": "request(uint16,bytes,uint256,string)",
      "arguments": [
        "2",
        "0x",
        "2",
        "Executing create ideas layer"
      ],
      "transaction": {
        "from": "0x328735d26e5ada93610f0006c32abe2278c46211",
        "to": "0x8da83ff5533e7842076f0b66db1dd3c5de06c395",
        "gas": "0x2bd89",
        "value": "0x0",
        "input": "0xebef6d9700000000000000000000000000000000000000000000000000000000000000020000000000000000000000000000000000000000000000000000000000000080000000000000000000000000000000000000000000000000000000000000000200000000000000000000000000000000000000000000000000000000000000a00000000000000000000000000000000000000000000000000000000000000000000000000000000000000000000000000000000000000000000000000000001c457865637574696e6720637265617465206964656173206c6179657200000000",
        "nonce": "0x1b51",
        "chainId": "0xaa36a7"
      },
      "additionalContracts": [],
      "isFixedGasLimit": false
    },
    {
      "hash": "0x99f89ad5e84f4138487ccf0677500881245910e20be5294dbdf02ddefab581d7",
      "transactionType": "CALL",
      "contractName": null,
      "contractAddress": "0x8da83ff5533e7842076f0b66db1dd3c5de06c395",
      "function": "propose(uint16,bytes,uint256,string)",
      "arguments": [
        "3",
        "0x",
        "2",
        "Creating ideas layer"
      ],
      "transaction": {
        "from": "0x328735d26e5ada93610f0006c32abe2278c46211",
        "to": "0x8da83ff5533e7842076f0b66db1dd3c5de06c395",
        "gas": "0x46600",
        "value": "0x0",
        "input": "0x2e2d825300000000000000000000000000000000000000000000000000000000000000030000000000000000000000000000000000000000000000000000000000000080000000000000000000000000000000000000000000000000000000000000000200000000000000000000000000000000000000000000000000000000000000a0000000000000000000000000000000000000000000000000000000000000000000000000000000000000000000000000000000000000000000000000000000144372656174696e67206964656173206c61796572000000000000000000000000",
        "nonce": "0x1b52",
        "chainId": "0xaa36a7"
      },
      "additionalContracts": [],
      "isFixedGasLimit": false
    },
    {
      "hash": "0xc00bba02b141afdf53cca99e8da0431c248dbaf6e9f9343c511270992ad6b7c8",
      "transactionType": "CALL",
      "contractName": null,
      "contractAddress": "0x8da83ff5533e7842076f0b66db1dd3c5de06c395",
      "function": "castVote(uint256,uint8)",
      "arguments": [
        "27583855389368378081956228726016745639015587142568371648804801485095854885984",
        "1"
      ],
      "transaction": {
        "from": "0x328735d26e5ada93610f0006c32abe2278c46211",
        "to": "0x8da83ff5533e7842076f0b66db1dd3c5de06c395",
        "gas": "0x15dc6",
        "value": "0x0",
        "input": "0x567813883cfbe8acb2fd2cd9b60d00a3c0f7ccc16d9bcad5ab7e08689f7e16588d434c600000000000000000000000000000000000000000000000000000000000000001",
        "nonce": "0x1b53",
        "chainId": "0xaa36a7"
      },
      "additionalContracts": [],
      "isFixedGasLimit": false
    }
  ],
  "receipts": [
    {
      "status": "0x1",
      "cumulativeGasUsed": "0x15e5349",
      "logs": [
        {
          "address": "0x8da83ff5533e7842076f0b66db1dd3c5de06c395",
          "topics": [
            "0x6f483abfdcf4f122955fd235993c09897d9190ed80964fe5cb76daac8a7a8b87",
            "0x0000000000000000000000000000000000000000000000000000000000000002",
            "0x47d7a10a9dbb406060356324419144a1300e51da4d30706931701660acb7e17e"
          ],
          "data": "0x000000000000000000000000000000000000000000000000000000000000006000000000000000000000000000000000000000000000000000000000000000a000000000000000000000000000000000000000000000000000000000000000e00000000000000000000000000000000000000000000000000000000000000001000000000000000000000000000000000000000000000000000000000000000000000000000000000000000000000000000000000000000000000000000000010000000000000000000000000000000000000000000000000000000000000000000000000000000000000000000000000000000000000000000000000000000100000000000000000000000000000000000000000000000000000000000000200000000000000000000000000000000000000000000000000000000000000000",
          "blockHash": "0x1dff6ebbdcdee03c6375935144df419107c46a25c95e0100876bc2dbb50382b3",
          "blockNumber": "0xa5057f",
          "blockTimestamp": "0x69fdf464",
          "transactionHash": "0x99f89ad5e84f4138487ccf0677500881245910e20be5294dbdf02ddefab581d7",
          "transactionIndex": "0x72",
          "logIndex": "0x25e",
          "removed": false
        },
        {
          "address": "0x8da83ff5533e7842076f0b66db1dd3c5de06c395",
          "topics": [
            "0x98e1e52af9c2155b4c2b4844cdccf64c85cb13dd804231d177ef6fea4325d405",
            "0x000000000000000000000000328735d26e5ada93610f0006c32abe2278c46211",
            "0x0000000000000000000000000000000000000000000000000000000000000002"
          ],
          "data": "0x0000000000000000000000000000000000000000000000000000000000000060000000000000000000000000000000000000000000000000000000000000000200000000000000000000000000000000000000000000000000000000000000800000000000000000000000000000000000000000000000000000000000000000000000000000000000000000000000000000000000000000000000000000001c457865637574696e6720637265617465206964656173206c6179657200000000",
          "blockHash": "0x1dff6ebbdcdee03c6375935144df419107c46a25c95e0100876bc2dbb50382b3",
          "blockNumber": "0xa5057f",
          "blockTimestamp": "0x69fdf464",
          "transactionHash": "0x99f89ad5e84f4138487ccf0677500881245910e20be5294dbdf02ddefab581d7",
          "transactionIndex": "0x72",
          "logIndex": "0x25f",
          "removed": false
        }
      ],
      "logsBloom": "0x04000000000000000100080000000000000000000000000000000000000000010000000000000000000000000000000000000000000000000000000000000000000000000000020000000000000000000000000000000000000000000000000000000000000000000001000000000000000000000000000000000000000000000000000000000000000000000000000000000000000000000000000000000000000000000000000000000100000020000000000040000000008000000000000000000000400000100000000000008004000000000000000100000000000000000000000000000020000000000000001000000000008000000000000000000000",
      "type": "0x2",
      "transactionHash": "0x99f89ad5e84f4138487ccf0677500881245910e20be5294dbdf02ddefab581d7",
      "transactionIndex": "0x72",
      "blockHash": "0x1dff6ebbdcdee03c6375935144df419107c46a25c95e0100876bc2dbb50382b3",
      "blockNumber": "0xa5057f",
      "gasUsed": "0x1fbe7",
      "effectiveGasPrice": "0xf426c",
      "from": "0x328735d26e5ada93610f0006c32abe2278c46211",
      "to": "0x8da83ff5533e7842076f0b66db1dd3c5de06c395",
      "contractAddress": null
    },
    {
      "status": "0x1",
      "cumulativeGasUsed": "0x161827e",
      "logs": [
        {
          "address": "0x8da83ff5533e7842076f0b66db1dd3c5de06c395",
          "topics": [
            "0xb5856a9700a7e851456d3a16348b4ae0fbb11b06ac0af8dbe8e8652c57cc4cbd",
            "0x3cfbe8acb2fd2cd9b60d00a3c0f7ccc16d9bcad5ab7e08689f7e16588d434c60",
            "0x000000000000000000000000328735d26e5ada93610f0006c32abe2278c46211",
            "0x0000000000000000000000000000000000000000000000000000000000000003"
          ],
          "data": "0x00000000000000000000000000000000000000000000000000000000000000c000000000000000000000000000000000000000000000000000000000000000e00000000000000000000000000000000000000000000000000000000000a5057f0000000000000000000000000000000000000000000000000000000000a50598000000000000000000000000000000000000000000000000000000000000000200000000000000000000000000000000000000000000000000000000000001000000000000000000000000000000000000000000000000000000000000000000000000000000000000000000000000000000000000000000000000000000000000000000000000000000000000000000000000000000000000000000000000144372656174696e67206964656173206c61796572000000000000000000000000",
          "blockHash": "0x1dff6ebbdcdee03c6375935144df419107c46a25c95e0100876bc2dbb50382b3",
          "blockNumber": "0xa5057f",
          "blockTimestamp": "0x69fdf464",
          "transactionHash": "0xc00bba02b141afdf53cca99e8da0431c248dbaf6e9f9343c511270992ad6b7c8",
          "transactionIndex": "0x73",
          "logIndex": "0x260",
          "removed": false
        }
      ],
      "logsBloom": "0x00000000000000000000000000000000000000000000000000000000000000010000000000000000000000000000000000000000020000000000000000000000000000000000000000000000400000000000000000000000000000000000000000000000000000000000000000000000000000000001000000000000000000800000000000000000000000000000000000000000000000000000000000000000000000000000000000000000000000000000000000800000000000000000400000000000000000100000000000008004000000000000000100000000000000000100000000000020000020000000000000000000000000000000000040000000",
      "type": "0x2",
      "transactionHash": "0xc00bba02b141afdf53cca99e8da0431c248dbaf6e9f9343c511270992ad6b7c8",
      "transactionIndex": "0x73",
      "blockHash": "0x1dff6ebbdcdee03c6375935144df419107c46a25c95e0100876bc2dbb50382b3",
      "blockNumber": "0xa5057f",
      "gasUsed": "0x32f35",
      "effectiveGasPrice": "0xf426c",
      "from": "0x328735d26e5ada93610f0006c32abe2278c46211",
      "to": "0x8da83ff5533e7842076f0b66db1dd3c5de06c395",
      "contractAddress": null
    },
    {
      "status": "0x1",
      "cumulativeGasUsed": "0x1627fba",
      "logs": [
        {
          "address": "0x8da83ff5533e7842076f0b66db1dd3c5de06c395",
          "topics": [
            "0x5be2678cab71c7d94235767eb1df3c57673f19e805cdc0edbd2e74854ae9f0f9",
            "0x000000000000000000000000328735d26e5ada93610f0006c32abe2278c46211",
            "0x3cfbe8acb2fd2cd9b60d00a3c0f7ccc16d9bcad5ab7e08689f7e16588d434c60",
            "0x0000000000000000000000000000000000000000000000000000000000000001"
          ],
          "data": "0x00000000000000000000000000000000000000000000000000000000000000200000000000000000000000000000000000000000000000000000000000000000",
          "blockHash": "0x1dff6ebbdcdee03c6375935144df419107c46a25c95e0100876bc2dbb50382b3",
          "blockNumber": "0xa5057f",
          "blockTimestamp": "0x69fdf464",
          "transactionHash": "0x2a030cda5ab0e94257dc33bbb65360e2f9fb5f1087808a6690f05650564e416b",
          "transactionIndex": "0x74",
          "logIndex": "0x261",
          "removed": false
        }
      ],
      "logsBloom": "0x00000000000000000000000008000000000000000000000000000000000000010000000000000000001000000000000000000000000000000000000000040000000000000000000000000000400000000000000000040000000000000000000000000000000000000000000000000000000000000000000000000000000000800000000000000000000000000000000000000000000000000000000000000000000000000000000000000000001000000000000000000000000000000000000000000000000000100000000000008004000000000000000100000000000040000000000000000020000020000000000000000000000000000000000000000000",
      "type": "0x2",
      "transactionHash": "0x2a030cda5ab0e94257dc33bbb65360e2f9fb5f1087808a6690f05650564e416b",
      "transactionIndex": "0x74",
      "blockHash": "0x1dff6ebbdcdee03c6375935144df419107c46a25c95e0100876bc2dbb50382b3",
      "blockNumber": "0xa5057f",
      "gasUsed": "0xfd3c",
      "effectiveGasPrice": "0xf426c",
      "from": "0x328735d26e5ada93610f0006c32abe2278c46211",
      "to": "0x8da83ff5533e7842076f0b66db1dd3c5de06c395",
      "contractAddress": null
    }
  ],
  "libraries": [],
  "pending": [],
  "returns": {},
  "timestamp": 1778250854325,
  "chain": 11155111,
  "commit": "fddcd23"
}