{
  "transactions": [
    {
      "hash": "0x9cf3feb06c7e8bbb1fbb84f8e720e8c110c50d708566f49fb21ff720d737f33a",
      "transactionType": "CALL",
      "contractName": null,
      "contractAddress": "0x8da83ff5533e7842076f0b66db1dd3c5de06c395",
      "function": "propose(uint16,bytes,uint256,string)",
      "arguments": [
        "2",
        "0x",
        "3",
        "Initiating create ideas layer: Seeing"
      ],
      "transaction": {
        "from": "0x328735d26e5ada93610f0006c32abe2278c46211",
        "to": "0x8da83ff5533e7842076f0b66db1dd3c5de06c395",
        "gas": "0x4fc6e",
        "value": "0x0",
        "input": "0x2e2d825300000000000000000000000000000000000000000000000000000000000000020000000000000000000000000000000000000000000000000000000000000080000000000000000000000000000000000000000000000000000000000000000300000000000000000000000000000000000000000000000000000000000000a000000000000000000000000000000000000000000000000000000000000000000000000000000000000000000000000000000000000000000000000000000025496e6974696174696e6720637265617465206964656173206c617965723a20536565696e67000000000000000000000000000000000000000000000000000000",
        "nonce": "0x1b57",
        "chainId": "0xaa36a7"
      },
      "additionalContracts": [],
      "isFixedGasLimit": false
    },
    {
      "hash": "0xa742887e8a69dfa7cdc4e46920637df41eb5642013efc4eecb743491e093c999",
      "transactionType": "CALL",
      "contractName": null,
      "contractAddress": "0x8da83ff5533e7842076f0b66db1dd3c5de06c395",
      "function": "propose(uint16,bytes,uint256,string)",
      "arguments": [
        "2",
        "0x",
        "4",
        "Initiating create ideas layer: Making"
      ],
      "transaction": {
        "from": "0x328735d26e5ada93610f0006c32abe2278c46211",
        "to": "0x8da83ff5533e7842076f0b66db1dd3c5de06c395",
        "gas": "0x4fc6e",
        "value": "0x0",
        "input": "0x2e2d825300000000000000000000000000000000000000000000000000000000000000020000000000000000000000000000000000000000000000000000000000000080000000000000000000000000000000000000000000000000000000000000000400000000000000000000000000000000000000000000000000000000000000a000000000000000000000000000000000000000000000000000000000000000000000000000000000000000000000000000000000000000000000000000000025496e6974696174696e6720637265617465206964656173206c617965723a204d616b696e67000000000000000000000000000000000000000000000000000000",
        "nonce": "0x1b58",
        "chainId": "0xaa36a7"
      },
      "additionalContracts": [],
      "isFixedGasLimit": false
    },
    {
      "hash": "0xec2d97ed018a464f74bb42f393a36837872e8226a034207cd2637bca0be1ebe2",
      "transactionType": "CALL",
      "contractName": null,
      "contractAddress": "0x8da83ff5533e7842076f0b66db1dd3c5de06c395",
      "function": "propose(uint16,bytes,uint256,string)",
      "arguments": [
        "2",
        "0x",
        "5",
        "Initiating create ideas layer: Listening"
      ],
      "transaction": {
        "from": "0x328735d26e5ada93610f0006c32abe2278c46211",
        "to": "0x8da83ff5533e7842076f0b66db1dd3c5de06c395",
        "gas": "0x547b9",
        "value": "0x0",
        "input": "0x2e2d825300000000000000000000000000000000000000000000000000000000000000020000000000000000000000000000000000000000000000000000000000000080000000000000000000000000000000000000000000000000000000000000000500000000000000000000000000000000000000000000000000000000000000a000000000000000000000000000000000000000000000000000000000000000000000000000000000000000000000000000000000000000000000000000000028496e6974696174696e6720637265617465206964656173206c617965723a204c697374656e696e67000000000000000000000000000000000000000000000000",
        "nonce": "0x1b59",
        "chainId": "0xaa36a7"
      },
      "additionalContracts": [],
      "isFixedGasLimit": false
    },
    {
      "hash": "0xcc847069f4f2422141aa9e6b804de1f4ffd6a87e45e073f318c258ac55764c14",
      "transactionType": "CALL",
      "contractName": null,
      "contractAddress": "0x8da83ff5533e7842076f0b66db1dd3c5de06c395",
      "function": "propose(uint16,bytes,uint256,string)",
      "arguments": [
        "2",
        "0x",
        "6",
        "Initiating create ideas layer: Telling"
      ],
      "transaction": {
        "from": "0x328735d26e5ada93610f0006c32abe2278c46211",
        "to": "0x8da83ff5533e7842076f0b66db1dd3c5de06c395",
        "gas": "0x54796",
        "value": "0x0",
        "input": "0x2e2d825300000000000000000000000000000000000000000000000000000000000000020000000000000000000000000000000000000000000000000000000000000080000000000000000000000000000000000000000000000000000000000000000600000000000000000000000000000000000000000000000000000000000000a000000000000000000000000000000000000000000000000000000000000000000000000000000000000000000000000000000000000000000000000000000026496e6974696174696e6720637265617465206964656173206c617965723a2054656c6c696e670000000000000000000000000000000000000000000000000000",
        "nonce": "0x1b5a",
        "chainId": "0xaa36a7"
      },
      "additionalContracts": [],
      "isFixedGasLimit": false
    },
    {
      "hash": "0x9901c6fdb1ee2cc9c85b2640c76d19a605cdb48c8fc1f38cab57cdcc2823ae66",
      "transactionType": "CALL",
      "contractName": null,
      "contractAddress": "0x8da83ff5533e7842076f0b66db1dd3c5de06c395",
      "function": "propose(uint16,bytes,uint256,string)",
      "arguments": [
        "2",
        "0x",
        "7",
        "Initiating create ideas layer: Remembering"
      ],
      "transaction": {
        "from": "0x328735d26e5ada93610f0006c32abe2278c46211",
        "to": "0x8da83ff5533e7842076f0b66db1dd3c5de06c395",
        "gas": "0x547dc",
        "value": "0x0",
        "input": "0x2e2d825300000000000000000000000000000000000000000000000000000000000000020000000000000000000000000000000000000000000000000000000000000080000000000000000000000000000000000000000000000000000000000000000700000000000000000000000000000000000000000000000000000000000000a00000000000000000000000000000000000000000000000000000000000000000000000000000000000000000000000000000000000000000000000000000002a496e6974696174696e6720637265617465206964656173206c617965723a2052656d656d626572696e6700000000000000000000000000000000000000000000",
        "nonce": "0x1b5b",
        "chainId": "0xaa36a7"
      },
      "additionalContracts": [],
      "isFixedGasLimit": false
    },
    {
      "hash": "0xaa78eb32cd0ad670a1ca491408f6d336c80770aa92f3a80eb9e37e5270345db1",
      "transactionType": "CALL",
      "contractName": null,
      "contractAddress": "0x8da83ff5533e7842076f0b66db1dd3c5de06c395",
      "function": "propose(uint16,bytes,uint256,string)",
      "arguments": [
        "2",
        "0x",
        "8",
        "Initiating create ideas layer: Imagining"
      ],
      "transaction": {
        "from": "0x328735d26e5ada93610f0006c32abe2278c46211",
        "to": "0x8da83ff5533e7842076f0b66db1dd3c5de06c395",
        "gas": "0x547b9",
        "value": "0x0",
        "input": "0x2e2d825300000000000000000000000000000000000000000000000000000000000000020000000000000000000000000000000000000000000000000000000000000080000000000000000000000000000000000000000000000000000000000000000800000000000000000000000000000000000000000000000000000000000000a000000000000000000000000000000000000000000000000000000000000000000000000000000000000000000000000000000000000000000000000000000028496e6974696174696e6720637265617465206964656173206c617965723a20496d6167696e696e67000000000000000000000000000000000000000000000000",
        "nonce": "0x1b5c",
        "chainId": "0xaa36a7"
      },
      "additionalContracts": [],
      "isFixedGasLimit": false
    },
    {
      "hash": "0xfbf30d30c37a541714a0d7228115c219c64a143ea0f2bd30d05c1209e942ae6f",
      "transactionType": "CALL",
      "contractName": null,
      "contractAddress": "0x8da83ff5533e7842076f0b66db1dd3c5de06c395",
      "function": "propose(uint16,bytes,uint256,string)",
      "arguments": [
        "2",
        "0x",
        "9",
        "Initiating create ideas layer: Tending"
      ],
      "transaction": {
        "from": "0x328735d26e5ada93610f0006c32abe2278c46211",
        "to": "0x8da83ff5533e7842076f0b66db1dd3c5de06c395",
        "gas": "0x54796",
        "value": "0x0",
        "input": "0x2e2d825300000000000000000000000000000000000000000000000000000000000000020000000000000000000000000000000000000000000000000000000000000080000000000000000000000000000000000000000000000000000000000000000900000000000000000000000000000000000000000000000000000000000000a000000000000000000000000000000000000000000000000000000000000000000000000000000000000000000000000000000000000000000000000000000026496e6974696174696e6720637265617465206964656173206c617965723a2054656e64696e670000000000000000000000000000000000000000000000000000",
        "nonce": "0x1b5d",
        "chainId": "0xaa36a7"
      },
      "additionalContracts": [],
      "isFixedGasLimit": false
    },
    {
      "hash": "0x7bffc3ae5a0f239296450f7bfa7a61377137ea624658e47c512af8ad7c790ac2",
      "transactionType": "CALL",
      "contractName": null,
      "contractAddress": "0x8da83ff5533e7842076f0b66db1dd3c5de06c395",
      "function": "castVote(uint256,uint8)",
      "arguments": [
        "19295141827475675738952083262912988165504315079334844693979370128390459965923",
        "1"
      ],
      "transaction": {
        "from": "0xea223f81d7e74321370a77f1e44067be8738b627",
        "to": "0x8da83ff5533e7842076f0b66db1dd3c5de06c395",
        "gas": "0x15dd7",
        "value": "0x0",
        "input": "0x567813882aa8a9cb72d6bbfbf6792010d550817310d6454ef0103942307a46f9693341e30000000000000000000000000000000000000000000000000000000000000001",
        "nonce": "0x61",
        "chainId": "0xaa36a7"
      },
      "additionalContracts": [],
      "isFixedGasLimit": false
    },
    {
      "hash": "0xb7e8a99c9e6758f29c19727aab01f74ad34c2e105f0de986a65d3ce6f7e2a8b7",
      "transactionType": "CALL",
      "contractName": null,
      "contractAddress": "0x8da83ff5533e7842076f0b66db1dd3c5de06c395",
      "function": "castVote(uint256,uint8)",
      "arguments": [
        "19295141827475675738952083262912988165504315079334844693979370128390459965923",
        "1"
      ],
      "transaction": {
        "from": "0x1bfdb91b283d7ec24012d7ff5a5b29005140d09a",
        "to": "0x8da83ff5533e7842076f0b66db1dd3c5de06c395",
        "gas": "0x15dd7",
        "value": "0x0",
        "input": "0x567813882aa8a9cb72d6bbfbf6792010d550817310d6454ef0103942307a46f9693341e30000000000000000000000000000000000000000000000000000000000000001",
        "nonce": "0x3",
        "chainId": "0xaa36a7"
      },
      "additionalContracts": [],
      "isFixedGasLimit": false
    },
    {
      "hash": "0x749efb5ee21ad2ed12d73f3c161dc71b4ab7b7389e687d6147b119a082ec7421",
      "transactionType": "CALL",
      "contractName": null,
      "contractAddress": "0x8da83ff5533e7842076f0b66db1dd3c5de06c395",
      "function": "castVote(uint256,uint8)",
      "arguments": [
        "19295141827475675738952083262912988165504315079334844693979370128390459965923",
        "1"
      ],
      "transaction": {
        "from": "0x328735d26e5ada93610f0006c32abe2278c46211",
        "to": "0x8da83ff5533e7842076f0b66db1dd3c5de06c395",
        "gas": "0x15dd7",
        "value": "0x0",
        "input": "0x567813882aa8a9cb72d6bbfbf6792010d550817310d6454ef0103942307a46f9693341e30000000000000000000000000000000000000000000000000000000000000001",
        "nonce": "0x1b5e",
        "chainId": "0xaa36a7"
      },
      "additionalContracts": [],
      "isFixedGasLimit": false
    },
    {
      "hash": "0x2302ac873719b90e204cc1f85629d6254ed686b51dab94a8cc870176d93d8a97",
      "transactionType": "CALL",
      "contractName": null,
      "contractAddress": "0x8da83ff5533e7842076f0b66db1dd3c5de06c395",
      "function": "castVote(uint256,uint8)",
      "arguments": [
        "26918074883064140118634921082293822251685727462323811740604692849645102030698",
        "1"
      ],
      "transaction": {
        "from": "0xea223f81d7e74321370a77f1e44067be8738b627",
        "to": "0x8da83ff5533e7842076f0b66db1dd3c5de06c395",
        "gas": "0x15dd7",
        "value": "0x0",
        "input": "0x567813883b831729359220f2ddc9fa72577303ed140cdff1bf11c5c21a0c6c068c7fdf6a0000000000000000000000000000000000000000000000000000000000000001",
        "nonce": "0x62",
        "chainId": "0xaa36a7"
      },
      "additionalContracts": [],
      "isFixedGasLimit": false
    },
    {
      "hash": "0xd9483dbbdf96d8594f1f7de9a68475fedd723c4f341e30b0f8a32da2e5395471",
      "transactionType": "CALL",
      "contractName": null,
      "contractAddress": "0x8da83ff5533e7842076f0b66db1dd3c5de06c395",
      "function": "castVote(uint256,uint8)",
      "arguments": [
        "26918074883064140118634921082293822251685727462323811740604692849645102030698",
        "1"
      ],
      "transaction": {
        "from": "0x1bfdb91b283d7ec24012d7ff5a5b29005140d09a",
        "to": "0x8da83ff5533e7842076f0b66db1dd3c5de06c395",
        "gas": "0x15dd7",
        "value": "0x0",
        "input": "0x567813883b831729359220f2ddc9fa72577303ed140cdff1bf11c5c21a0c6c068c7fdf6a0000000000000000000000000000000000000000000000000000000000000001",
        "nonce": "0x4",
        "chainId": "0xaa36a7"
      },
      "additionalContracts": [],
      "isFixedGasLimit": false
    },
    {
      "hash": "0xcf78a3a86fbb2f590b75867aad6df33ae8dbf3e5946ea387220332e626740fef",
      "transactionType": "CALL",
      "contractName": null,
      "contractAddress": "0x8da83ff5533e7842076f0b66db1dd3c5de06c395",
      "function": "castVote(uint256,uint8)",
      "arguments": [
        "26918074883064140118634921082293822251685727462323811740604692849645102030698",
        "1"
      ],
      "transaction": {
        "from": "0x328735d26e5ada93610f0006c32abe2278c46211",
        "to": "0x8da83ff5533e7842076f0b66db1dd3c5de06c395",
        "gas": "0x15dd7",
        "value": "0x0",
        "input": "0x567813883b831729359220f2ddc9fa72577303ed140cdff1bf11c5c21a0c6c068c7fdf6a0000000000000000000000000000000000000000000000000000000000000001",
        "nonce": "0x1b5f",
        "chainId": "0xaa36a7"
      },
      "additionalContracts": [],
      "isFixedGasLimit": false
    },
    {
      "hash": "0xca70ca54510786a6a55c171a29fb7fcd69ef27c5e52c525d9e148b72d90dd764",
      "transactionType": "CALL",
      "contractName": null,
      "contractAddress": "0x8da83ff5533e7842076f0b66db1dd3c5de06c395",
      "function": "castVote(uint256,uint8)",
      "arguments": [
        "71786058574430653812189616718758791247068134960480526719110004311435752181463",
        "1"
      ],
      "transaction": {
        "from": "0xea223f81d7e74321370a77f1e44067be8738b627",
        "to": "0x8da83ff5533e7842076f0b66db1dd3c5de06c395",
        "gas": "0x15dd7",
        "value": "0x0",
        "input": "0x567813889eb57823fa965ced9343afaae2b07646f511a2f3528c0612c7082b085ad30ed70000000000000000000000000000000000000000000000000000000000000001",
        "nonce": "0x63",
        "chainId": "0xaa36a7"
      },
      "additionalContracts": [],
      "isFixedGasLimit": false
    },
    {
      "hash": "0x21fdb39949dea127419a13466b43c1ab22ea3c8584c341dd0f614443d1c3b465",
      "transactionType": "CALL",
      "contractName": null,
      "contractAddress": "0x8da83ff5533e7842076f0b66db1dd3c5de06c395",
      "function": "castVote(uint256,uint8)",
      "arguments": [
        "71786058574430653812189616718758791247068134960480526719110004311435752181463",
        "1"
      ],
      "transaction": {
        "from": "0x1bfdb91b283d7ec24012d7ff5a5b29005140d09a",
        "to": "0x8da83ff5533e7842076f0b66db1dd3c5de06c395",
        "gas": "0x15dd7",
        "value": "0x0",
        "input": "0x567813889eb57823fa965ced9343afaae2b07646f511a2f3528c0612c7082b085ad30ed70000000000000000000000000000000000000000000000000000000000000001",
        "nonce": "0x5",
        "chainId": "0xaa36a7"
      },
      "additionalContracts": [],
      "isFixedGasLimit": false
    },
    {
      "hash": "0x8b0c7aed53a26d5a3f452cbd7cccaea1457ffc8812906bbe9cd8bc957ed56cae",
      "transactionType": "CALL",
      "contractName": null,
      "contractAddress": "0x8da83ff5533e7842076f0b66db1dd3c5de06c395",
      "function": "castVote(uint256,uint8)",
      "arguments": [
        "71786058574430653812189616718758791247068134960480526719110004311435752181463",
        "1"
      ],
      "transaction": {
        "from": "0x328735d26e5ada93610f0006c32abe2278c46211",
        "to": "0x8da83ff5533e7842076f0b66db1dd3c5de06c395",
        "gas": "0x15dd7",
        "value": "0x0",
        "input": "0x567813889eb57823fa965ced9343afaae2b07646f511a2f3528c0612c7082b085ad30ed70000000000000000000000000000000000000000000000000000000000000001",
        "nonce": "0x1b60",
        "chainId": "0xaa36a7"
      },
      "additionalContracts": [],
      "isFixedGasLimit": false
    },
    {
      "hash": "0x54537b7b6bc0a53a1db3ca1faabb3ef008baa68430686e602468ac07218f3a70",
      "transactionType": "CALL",
      "contractName": null,
      "contractAddress": "0x8da83ff5533e7842076f0b66db1dd3c5de06c395",
      "function": "castVote(uint256,uint8)",
      "arguments": [
        "46504528338180338090354086649483656577571775956057370393464625378801902803077",
        "1"
      ],
      "transaction": {
        "from": "0xea223f81d7e74321370a77f1e44067be8738b627",
        "to": "0x8da83ff5533e7842076f0b66db1dd3c5de06c395",
        "gas": "0x15dd7",
        "value": "0x0",
        "input": "0x5678138866d0a15977cc398627479b0e117f7a37979d858edbf330c09ce163567c59d8850000000000000000000000000000000000000000000000000000000000000001",
        "nonce": "0x64",
        "chainId": "0xaa36a7"
      },
      "additionalContracts": [],
      "isFixedGasLimit": false
    },
    {
      "hash": "0x1f8f42229756a42b9b4aec53d0a6a25ad6d2b18aa4de6a835e0ffecf4ac2b9a8",
      "transactionType": "CALL",
      "contractName": null,
      "contractAddress": "0x8da83ff5533e7842076f0b66db1dd3c5de06c395",
      "function": "castVote(uint256,uint8)",
      "arguments": [
        "46504528338180338090354086649483656577571775956057370393464625378801902803077",
        "1"
      ],
      "transaction": {
        "from": "0x1bfdb91b283d7ec24012d7ff5a5b29005140d09a",
        "to": "0x8da83ff5533e7842076f0b66db1dd3c5de06c395",
        "gas": "0x15dd7",
        "value": "0x0",
        "input": "0x5678138866d0a15977cc398627479b0e117f7a37979d858edbf330c09ce163567c59d8850000000000000000000000000000000000000000000000000000000000000001",
        "nonce": "0x6",
        "chainId": "0xaa36a7"
      },
      "additionalContracts": [],
      "isFixedGasLimit": false
    },
    {
      "hash": "0xd5a6bd828ec7fcd432003968cf5eacfd189269d82b189376ddbf10782575b042",
      "transactionType": "CALL",
      "contractName": null,
      "contractAddress": "0x8da83ff5533e7842076f0b66db1dd3c5de06c395",
      "function": "castVote(uint256,uint8)",
      "arguments": [
        "46504528338180338090354086649483656577571775956057370393464625378801902803077",
        "1"
      ],
      "transaction": {
        "from": "0x328735d26e5ada93610f0006c32abe2278c46211",
        "to": "0x8da83ff5533e7842076f0b66db1dd3c5de06c395",
        "gas": "0x15dd7",
        "value": "0x0",
        "input": "0x5678138866d0a15977cc398627479b0e117f7a37979d858edbf330c09ce163567c59d8850000000000000000000000000000000000000000000000000000000000000001",
        "nonce": "0x1b61",
        "chainId": "0xaa36a7"
      },
      "additionalContracts": [],
      "isFixedGasLimit": false
    },
    {
      "hash": "0x3b928ec028903da5fbaae5e99b3b241ab3139d8c8bcf054997814487f4a86e22",
      "transactionType": "CALL",
      "contractName": null,
      "contractAddress": "0x8da83ff5533e7842076f0b66db1dd3c5de06c395",
      "function": "castVote(uint256,uint8)",
      "arguments": [
        "77708537101317982036843109626373322397666837089846658120082929674400740931106",
        "1"
      ],
      "transaction": {
        "from": "0xea223f81d7e74321370a77f1e44067be8738b627",
        "to": "0x8da83ff5533e7842076f0b66db1dd3c5de06c395",
        "gas": "0x15dd7",
        "value": "0x0",
        "input": "0x56781388abcd792dc57424228a018d4b06404363684e17c59085564b76b3968dd7f7f6220000000000000000000000000000000000000000000000000000000000000001",
        "nonce": "0x65",
        "chainId": "0xaa36a7"
      },
      "additionalContracts": [],
      "isFixedGasLimit": false
    },
    {
      "hash": "0x99f4fbd83ad26775fcf029d46e5f2b79a7fb56db28e2d62f7a90774d6d32f32f",
      "transactionType": "CALL",
      "contractName": null,
      "contractAddress": "0x8da83ff5533e7842076f0b66db1dd3c5de06c395",
      "function": "castVote(uint256,uint8)",
      "arguments": [
        "77708537101317982036843109626373322397666837089846658120082929674400740931106",
        "1"
      ],
      "transaction": {
        "from": "0x1bfdb91b283d7ec24012d7ff5a5b29005140d09a",
        "to": "0x8da83ff5533e7842076f0b66db1dd3c5de06c395",
        "gas": "0x15dd7",
        "value": "0x0",
        "input": "0x56781388abcd792dc57424228a018d4b06404363684e17c59085564b76b3968dd7f7f6220000000000000000000000000000000000000000000000000000000000000001",
        "nonce": "0x7",
        "chainId": "0xaa36a7"
      },
      "additionalContracts": [],
      "isFixedGasLimit": false
    },
    {
      "hash": "0x7d857ca247c736345097567cb0492f7dc411e27c55fe3c6e018a33a5362534a4",
      "transactionType": "CALL",
      "contractName": null,
      "contractAddress": "0x8da83ff5533e7842076f0b66db1dd3c5de06c395",
      "function": "castVote(uint256,uint8)",
      "arguments": [
        "77708537101317982036843109626373322397666837089846658120082929674400740931106",
        "1"
      ],
      "transaction": {
        "from": "0x328735d26e5ada93610f0006c32abe2278c46211",
        "to": "0x8da83ff5533e7842076f0b66db1dd3c5de06c395",
        "gas": "0x15dd7",
        "value": "0x0",
        "input": "0x56781388abcd792dc57424228a018d4b06404363684e17c59085564b76b3968dd7f7f6220000000000000000000000000000000000000000000000000000000000000001",
        "nonce": "0x1b62",
        "chainId": "0xaa36a7"
      },
      "additionalContracts": [],
      "isFixedGasLimit": false
    },
    {
      "hash": "0xa7b0e2ef7fcee78a89c4cf115e3775967cdf7e964a7d689cba8b44756559bee7",
      "transactionType": "CALL",
      "contractName": null,
      "contractAddress": "0x8da83ff5533e7842076f0b66db1dd3c5de06c395",
      "function": "castVote(uint256,uint8)",
      "arguments": [
        "11198181243879761918303604774560390333987223727494234523203855127962160182759",
        "1"
      ],
      "transaction": {
        "from": "0xea223f81d7e74321370a77f1e44067be8738b627",
        "to": "0x8da83ff5533e7842076f0b66db1dd3c5de06c395",
        "gas": "0x15dd7",
        "value": "0x0",
        "input": "0x5678138818c1f22b768e98354c869cef24b0266377ee216ad2b74c2b8ea6c1ebfd3bb5e70000000000000000000000000000000000000000000000000000000000000001",
        "nonce": "0x66",
        "chainId": "0xaa36a7"
      },
      "additionalContracts": [],
      "isFixedGasLimit": false
    },
    {
      "hash": "0xf5a8e85b01e97e165a4f4866e09204ea10d75c179daf652b4ab45ea60ac2e21c",
      "transactionType": "CALL",
      "contractName": null,
      "contractAddress": "0x8da83ff5533e7842076f0b66db1dd3c5de06c395",
      "function": "castVote(uint256,uint8)",
      "arguments": [
        "11198181243879761918303604774560390333987223727494234523203855127962160182759",
        "1"
      ],
      "transaction": {
        "from": "0x1bfdb91b283d7ec24012d7ff5a5b29005140d09a",
        "to": "0x8da83ff5533e7842076f0b66db1dd3c5de06c395",
        "gas": "0x15dd7",
        "value": "0x0",
        "input": "0x5678138818c1f22b768e98354c869cef24b0266377ee216ad2b74c2b8ea6c1ebfd3bb5e70000000000000000000000000000000000000000000000000000000000000001",
        "nonce": "0x8",
        "chainId": "0xaa36a7"
      },
      "additionalContracts": [],
      "isFixedGasLimit": false
    },
    {
      "hash": "0x366956f4fe1b5fad9c765c518600f22880429a877d9565e149ab4b003145dcb4",
      "transactionType": "CALL",
      "contractName": null,
      "contractAddress": "0x8da83ff5533e7842076f0b66db1dd3c5de06c395",
      "function": "castVote(uint256,uint8)",
      "arguments": [
        "11198181243879761918303604774560390333987223727494234523203855127962160182759",
        "1"
      ],
      "transaction": {
        "from": "0x328735d26e5ada93610f0006c32abe2278c46211",
        "to": "0x8da83ff5533e7842076f0b66db1dd3c5de06c395",
        "gas": "0x15dd7",
        "value": "0x0",
        "input": "0x5678138818c1f22b768e98354c869cef24b0266377ee216ad2b74c2b8ea6c1ebfd3bb5e70000000000000000000000000000000000000000000000000000000000000001",
        "nonce": "0x1b63",
        "chainId": "0xaa36a7"
      },
      "additionalContracts": [],
      "isFixedGasLimit": false
    },
    {
      "hash": "0xbd63320553d6b7d0f9ebdb640032521fe8e843fe646454f476e77fa14e58bfc4",
      "transactionType": "CALL",
      "contractName": null,
      "contractAddress": "0x8da83ff5533e7842076f0b66db1dd3c5de06c395",
      "function": "castVote(uint256,uint8)",
      "arguments": [
        "80082142990457592619059588920399281809788631539408785237601503029249928659798",
        "1"
      ],
      "transaction": {
        "from": "0xea223f81d7e74321370a77f1e44067be8738b627",
        "to": "0x8da83ff5533e7842076f0b66db1dd3c5de06c395",
        "gas": "0x15dd7",
        "value": "0x0",
        "input": "0x56781388b10ce2fd678365bdd6eda5b2cecba4203c6217bb837173fdf3d39dba4e8503560000000000000000000000000000000000000000000000000000000000000001",
        "nonce": "0x67",
        "chainId": "0xaa36a7"
      },
      "additionalContracts": [],
      "isFixedGasLimit": false
    },
    {
      "hash": "0x9b7c3d6c21807e65fc1c4ab5490be8349afc111304eba0125b8fc34fa70e5114",
      "transactionType": "CALL",
      "contractName": null,
      "contractAddress": "0x8da83ff5533e7842076f0b66db1dd3c5de06c395",
      "function": "castVote(uint256,uint8)",
      "arguments": [
        "80082142990457592619059588920399281809788631539408785237601503029249928659798",
        "1"
      ],
      "transaction": {
        "from": "0x1bfdb91b283d7ec24012d7ff5a5b29005140d09a",
        "to": "0x8da83ff5533e7842076f0b66db1dd3c5de06c395",
        "gas": "0x15dd7",
        "value": "0x0",
        "input": "0x56781388b10ce2fd678365bdd6eda5b2cecba4203c6217bb837173fdf3d39dba4e8503560000000000000000000000000000000000000000000000000000000000000001",
        "nonce": "0x9",
        "chainId": "0xaa36a7"
      },
      "additionalContracts": [],
      "isFixedGasLimit": false
    },
    {
      "hash": "0xb54fc5c98cfc244e7200337f3ba22846ce491c178c1b1ac0e07d6fe7cc61fa15",
      "transactionType": "CALL",
      "contractName": null,
      "contractAddress": "0x8da83ff5533e7842076f0b66db1dd3c5de06c395",
      "function": "castVote(uint256,uint8)",
      "arguments": [
        "80082142990457592619059588920399281809788631539408785237601503029249928659798",
        "1"
      ],
      "transaction": {
        "from": "0x328735d26e5ada93610f0006c32abe2278c46211",
        "to": "0x8da83ff5533e7842076f0b66db1dd3c5de06c395",
        "gas": "0x15dd7",
        "value": "0x0",
        "input": "0x56781388b10ce2fd678365bdd6eda5b2cecba4203c6217bb837173fdf3d39dba4e8503560000000000000000000000000000000000000000000000000000000000000001",
        "nonce": "0x1b64",
        "chainId": "0xaa36a7"
      },
      "additionalContracts": [],
      "isFixedGasLimit": false
    }
  ],
  "receipts": [
    {
      "status": "0x1",
      "cumulativeGasUsed": "0x984f9b",
      "logs": [
        {
          "address": "0x8da83ff5533e7842076f0b66db1dd3c5de06c395",
          "topics": [
            "0xb5856a9700a7e851456d3a16348b4ae0fbb11b06ac0af8dbe8e8652c57cc4cbd",
            "0x2aa8a9cb72d6bbfbf6792010d550817310d6454ef0103942307a46f9693341e3",
            "0x000000000000000000000000328735d26e5ada93610f0006c32abe2278c46211",
            "0x0000000000000000000000000000000000000000000000000000000000000002"
          ],
          "data": "0x00000000000000000000000000000000000000000000000000000000000000c000000000000000000000000000000000000000000000000000000000000000e00000000000000000000000000000000000000000000000000000000000a506200000000000000000000000000000000000000000000000000000000000a5063900000000000000000000000000000000000000000000000000000000000000030000000000000000000000000000000000000000000000000000000000000100000000000000000000000000000000000000000000000000000000000000000000000000000000000000000000000000000000000000000000000000000000000000000000000000000000000000000000000000000000000000000000000025496e6974696174696e6720637265617465206964656173206c617965723a20536565696e67000000000000000000000000000000000000000000000000000000",
          "blockHash": "0xf41fde4b61f37c5a5cb25ef50f2e21333320182a9b43267cf9a91d8749c4b1ea",
          "blockNumber": "0xa50620",
          "blockTimestamp": "0x69fdfc98",
          "transactionHash": "0x9cf3feb06c7e8bbb1fbb84f8e720e8c110c50d708566f49fb21ff720d737f33a",
          "transactionIndex": "0x44",
          "logIndex": "0x16f",
          "removed": false
        }
      ],
      "logsBloom": "0x04000000000000000000000000000000000000000000000000000000000000010000000000000000000000000000000000000000000000000000000000000000000000000000000000000000000040000000000000000000000000000000000000000000000000000000000000000000000000000001000000000000000000000000000000000000000000000000000000000000000000000000000000000000000000000000000000000100000000000000000000000000000000000000000000000000000000100000000000008004000000000000000100000000000000000100080000000020000100000000000000000000008000000000000040000000",
      "type": "0x2",
      "transactionHash": "0x9cf3feb06c7e8bbb1fbb84f8e720e8c110c50d708566f49fb21ff720d737f33a",
      "transactionIndex": "0x44",
      "blockHash": "0xf41fde4b61f37c5a5cb25ef50f2e21333320182a9b43267cf9a91d8749c4b1ea",
      "blockNumber": "0xa50620",
      "gasUsed": "0x39c1e",
      "effectiveGasPrice": "0xf428b",
      "from": "0x328735d26e5ada93610f0006c32abe2278c46211",
      "to": "0x8da83ff5533e7842076f0b66db1dd3c5de06c395",
      "contractAddress": null
    },
    {
      "status": "0x1",
      "cumulativeGasUsed": "0x18652ca",
      "logs": [
        {
          "address": "0x8da83ff5533e7842076f0b66db1dd3c5de06c395",
          "topics": [
            "0xb5856a9700a7e851456d3a16348b4ae0fbb11b06ac0af8dbe8e8652c57cc4cbd",
            "0x3b831729359220f2ddc9fa72577303ed140cdff1bf11c5c21a0c6c068c7fdf6a",
            "0x000000000000000000000000328735d26e5ada93610f0006c32abe2278c46211",
            "0x0000000000000000000000000000000000000000000000000000000000000002"
          ],
          "data": "0x00000000000000000000000000000000000000000000000000000000000000c000000000000000000000000000000000000000000000000000000000000000e00000000000000000000000000000000000000000000000000000000000a506210000000000000000000000000000000000000000000000000000000000a5063a00000000000000000000000000000000000000000000000000000000000000040000000000000000000000000000000000000000000000000000000000000100000000000000000000000000000000000000000000000000000000000000000000000000000000000000000000000000000000000000000000000000000000000000000000000000000000000000000000000000000000000000000000000025496e6974696174696e6720637265617465206964656173206c617965723a204d616b696e67000000000000000000000000000000000000000000000000000000",
          "blockHash": "0xd0b0703d87bc9e0e47299981d687e74c1d8ca4a75c8fddaf1b12c19d04cd3ee5",
          "blockNumber": "0xa50621",
          "blockTimestamp": "0x69fdfcb0",
          "transactionHash": "0xa742887e8a69dfa7cdc4e46920637df41eb5642013efc4eecb743491e093c999",
          "transactionIndex": "0xad",
          "logIndex": "0x32a",
          "removed": false
        }
      ],
      "logsBloom": "0x04000000000000000000000000000000000000000000000000000000000000010000000008000000000000000000000000000000000000000000000000000000000000000000000000000000000000000000000000000000000000000000001000000000000000000000000000040000000000000001000000000000000000000000000000000000000000000000000000000000000000000000000000000000000000000000000000000100000000000000000000000000000000000000000000000000000000100000000000008004000000000000000100000000000000000100000000000020000000000000000000000000008000000000000040000000",
      "type": "0x2",
      "transactionHash": "0xa742887e8a69dfa7cdc4e46920637df41eb5642013efc4eecb743491e093c999",
      "transactionIndex": "0xad",
      "blockHash": "0xd0b0703d87bc9e0e47299981d687e74c1d8ca4a75c8fddaf1b12c19d04cd3ee5",
      "blockNumber": "0xa50621",
      "gasUsed": "0x39c1e",
      "effectiveGasPrice": "0xf428c",
      "from": "0x328735d26e5ada93610f0006c32abe2278c46211",
      "to": "0x8da83ff5533e7842076f0b66db1dd3c5de06c395",
      "contractAddress": null
    },
    {
      "status": "0x1",
      "cumulativeGasUsed": "0xa0b5bb",
      "logs": [
        {
          "address": "0x8da83ff5533e7842076f0b66db1dd3c5de06c395",
          "topics": [
            "0xb5856a9700a7e851456d3a16348b4ae0fbb11b06ac0af8dbe8e8652c57cc4cbd",
            "0x9eb57823fa965ced9343afaae2b07646f511a2f3528c0612c7082b085ad30ed7",
            "0x000000000000000000000000328735d26e5ada93610f0006c32abe2278c46211",
            "0x0000000000000000000000000000000000000000000000000000000000000002"
          ],
          "data": "0x00000000000000000000000000000000000000000000000000000000000000c000000000000000000000000000000000000000000000000000000000000000e00000000000000000000000000000000000000000000000000000000000a506220000000000000000000000000000000000000000000000000000000000a5063b00000000000000000000000000000000000000000000000000000000000000050000000000000000000000000000000000000000000000000000000000000100000000000000000000000000000000000000000000000000000000000000000000000000000000000000000000000000000000000000000000000000000000000000000000000000000000000000000000000000000000000000000000000028496e6974696174696e6720637265617465206964656173206c617965723a204c697374656e696e67000000000000000000000000000000000000000000000000",
          "blockHash": "0x704c4935b879647ce6ba2d413dd8d4b227007d2660ae6089a3972da441c507eb",
          "blockNumber": "0xa50622",
          "blockTimestamp": "0x69fdfcbc",
          "transactionHash": "0xec2d97ed018a464f74bb42f393a36837872e8226a034207cd2637bca0be1ebe2",
          "transactionIndex": "0x38",
          "logIndex": "0x10b",
          "removed": false
        }
      ],
      "logsBloom": "0x04000000000000000000000000000000000000000000000000000000000000010000000000000000000000000000000000000000000000000000001000000000000000000000000000000000000000000000000000000000000000000000000000000000000000000000000000000000000000000001000000000000000000000000000000000000000000000000004000000000000000000000000000000000000000000000000000000100000000000000000000000000000000000000000000000000000000100000000000008004000000000000000100000000000000000100000000000020000000000000000080000000008000000000000040000000",
      "type": "0x2",
      "transactionHash": "0xec2d97ed018a464f74bb42f393a36837872e8226a034207cd2637bca0be1ebe2",
      "transactionIndex": "0x38",
      "blockHash": "0x704c4935b879647ce6ba2d413dd8d4b227007d2660ae6089a3972da441c507eb",
      "blockNumber": "0xa50622",
      "gasUsed": "0x39c42",
      "effectiveGasPrice": "0xf428d",
      "from": "0x328735d26e5ada93610f0006c32abe2278c46211",
      "to": "0x8da83ff5533e7842076f0b66db1dd3c5de06c395",
      "contractAddress": null
    },
    {
      "status": "0x1",
      "cumulativeGasUsed": "0x15be0cd",
      "logs": [
        {
          "address": "0x8da83ff5533e7842076f0b66db1dd3c5de06c395",
          "topics": [
            "0xb5856a9700a7e851456d3a16348b4ae0fbb11b06ac0af8dbe8e8652c57cc4cbd",
            "0x66d0a15977cc398627479b0e117f7a37979d858edbf330c09ce163567c59d885",
            "0x000000000000000000000000328735d26e5ada93610f0006c32abe2278c46211",
            "0x0000000000000000000000000000000000000000000000000000000000000002"
          ],
          "data": "0x00000000000000000000000000000000000000000000000000000000000000c000000000000000000000000000000000000000000000000000000000000000e00000000000000000000000000000000000000000000000000000000000a506230000000000000000000000000000000000000000000000000000000000a5063c00000000000000000000000000000000000000000000000000000000000000060000000000000000000000000000000000000000000000000000000000000100000000000000000000000000000000000000000000000000000000000000000000000000000000000000000000000000000000000000000000000000000000000000000000000000000000000000000000000000000000000000000000000026496e6974696174696e6720637265617465206964656173206c617965723a2054656c6c696e670000000000000000000000000000000000000000000000000000",
          "blockHash": "0x15119911733a84c335ced94f0b4a66cb938d1aba3cb5afc60634be051c52f383",
          "blockNumber": "0xa50623",
          "blockTimestamp": "0x69fdfcc8",
          "transactionHash": "0xcc847069f4f2422141aa9e6b804de1f4ffd6a87e45e073f318c258ac55764c14",
          "transactionIndex": "0x7c",
          "logIndex": "0x24c",
          "removed": false
        }
      ],
      "logsBloom": "0x04000000000000000000000000000000000000000000000000000000000000010000000000000000000000000000000000000000000000000000000008000000000000000000000000000000000000000000000000000000000000000000000000000000000000000000000000000000000000000001000000000000000000000000000000000000000000000000000000000000000000000000000000000000000000000000000000000100000000000000000000000000000000000000200000000000000000100000000000008004000000000000000100000000000000000100000000000020000000000000000000000000008000800000000040000000",
      "type": "0x2",
      "transactionHash": "0xcc847069f4f2422141aa9e6b804de1f4ffd6a87e45e073f318c258ac55764c14",
      "transactionIndex": "0x7c",
      "blockHash": "0x15119911733a84c335ced94f0b4a66cb938d1aba3cb5afc60634be051c52f383",
      "blockNumber": "0xa50623",
      "gasUsed": "0x39c2a",
      "effectiveGasPrice": "0xf428d",
      "from": "0x328735d26e5ada93610f0006c32abe2278c46211",
      "to": "0x8da83ff5533e7842076f0b66db1dd3c5de06c395",
      "contractAddress": null
    },
    {
      "status": "0x1",
      "cumulativeGasUsed": "0x1e99c81",
      "logs": [
        {
          "address": "0x8da83ff5533e7842076f0b66db1dd3c5de06c395",
          "topics": [
            "0xb5856a9700a7e851456d3a16348b4ae0fbb11b06ac0af8dbe8e8652c57cc4cbd",
            "0xabcd792dc57424228a018d4b06404363684e17c59085564b76b3968dd7f7f622",
            "0x000000000000000000000000328735d26e5ada93610f0006c32abe2278c46211",
            "0x0000000000000000000000000000000000000000000000000000000000000002"
          ],
          "data": "0x00000000000000000000000000000000000000000000000000000000000000c000000000000000000000000000000000000000000000000000000000000000e00000000000000000000000000000000000000000000000000000000000a506240000000000000000000000000000000000000000000000000000000000a5063d0000000000000000000000000000000000000000000000000000000000000007000000000000000000000000000000000000000000000000000000000000010000000000000000000000000000000000000000000000000000000000000000000000000000000000000000000000000000000000000000000000000000000000000000000000000000000000000000000000000000000000000000000000002a496e6974696174696e6720637265617465206964656173206c617965723a2052656d656d626572696e6700000000000000000000000000000000000000000000",
          "blockHash": "0x6b746f0f05f4480132ff2d7db2634d6d708c46a13b021cc7f818014254375e54",
          "blockNumber": "0xa50624",
          "blockTimestamp": "0x69fdfcd4",
          "transactionHash": "0x9901c6fdb1ee2cc9c85b2640c76d19a605cdb48c8fc1f38cab57cdcc2823ae66",
          "transactionIndex": "0xae",
          "logIndex": "0x33a",
          "removed": false
        }
      ],
      "logsBloom": "0x04000000000000000000000000000000000000000000000000000000000000010000000000000000000000020000000000000000000000400000000000000000000000000000000000000000000000000000000000000000000000000000000000000040000000000000000000000000000000000001000000000000000000000000000000000000000000000000000000000000000000000000000000000000000000000000000000000100000000000000000000000000000000000000000000000000000000100000000000008004000000000000000100000000000000000100000000000020000000000000000000000000008000000000000040000000",
      "type": "0x2",
      "transactionHash": "0x9901c6fdb1ee2cc9c85b2640c76d19a605cdb48c8fc1f38cab57cdcc2823ae66",
      "transactionIndex": "0xae",
      "blockHash": "0x6b746f0f05f4480132ff2d7db2634d6d708c46a13b021cc7f818014254375e54",
      "blockNumber": "0xa50624",
      "gasUsed": "0x39c5a",
      "effectiveGasPrice": "0xf428c",
      "from": "0x328735d26e5ada93610f0006c32abe2278c46211",
      "to": "0x8da83ff5533e7842076f0b66db1dd3c5de06c395",
      "contractAddress": null
    },
    {
      "status": "0x1",
      "cumulativeGasUsed": "0x89f4a0",
      "logs": [
        {
          "address": "0x8da83ff5533e7842076f0b66db1dd3c5de06c395",
          "topics": [
            "0xb5856a9700a7e851456d3a16348b4ae0fbb11b06ac0af8dbe8e8652c57cc4cbd",
            "0x18c1f22b768e98354c869cef24b0266377ee216ad2b74c2b8ea6c1ebfd3bb5e7",
            "0x000000000000000000000000328735d26e5ada93610f0006c32abe2278c46211",
            "0x0000000000000000000000000000000000000000000000000000000000000002"
          ],
          "data": "0x00000000000000000000000000000000000000000000000000000000000000c000000000000000000000000000000000000000000000000000000000000000e00000000000000000000000000000000000000000000000000000000000a506250000000000000000000000000000000000000000000000000000000000a5063e00000000000000000000000000000000000000000000000000000000000000080000000000000000000000000000000000000000000000000000000000000100000000000000000000000000000000000000000000000000000000000000000000000000000000000000000000000000000000000000000000000000000000000000000000000000000000000000000000000000000000000000000000000028496e6974696174696e6720637265617465206964656173206c617965723a20496d6167696e696e67000000000000000000000000000000000000000000000000",
          "blockHash": "0xee2d31605f8fd1d631286049e208384a0185cbd9c590074acb0d1a3790c55658",
          "blockNumber": "0xa50625",
          "blockTimestamp": "0x69fdfce0",
          "transactionHash": "0xaa78eb32cd0ad670a1ca491408f6d336c80770aa92f3a80eb9e37e5270345db1",
          "transactionIndex": "0x36",
          "logIndex": "0x11f",
          "removed": false
        }
      ],
      "logsBloom": "0x04000000000000000000000000000000000000000000000000000000000000010000000000000000000000000000000000000000000000000000000000000000000000000000000000000000000000000000000000000000000000000000000000000000000000000000000000000000000000000001000000000000000000000000000000000000000000000000000000000000000000000000000000000000000800000002000000000100000000000000000000000000000000000000000000000000000000100000000000008004000000000000000100000000000000000100000000000020000000000000000000000000008000000000000048000000",
      "type": "0x2",
      "transactionHash": "0xaa78eb32cd0ad670a1ca491408f6d336c80770aa92f3a80eb9e37e5270345db1",
      "transactionIndex": "0x36",
      "blockHash": "0xee2d31605f8fd1d631286049e208384a0185cbd9c590074acb0d1a3790c55658",
      "blockNumber": "0xa50625",
      "gasUsed": "0x39c42",
      "effectiveGasPrice": "0xf428d",
      "from": "0x328735d26e5ada93610f0006c32abe2278c46211",
      "to": "0x8da83ff5533e7842076f0b66db1dd3c5de06c395",
      "contractAddress": null
    },
    {
      "status": "0x1",
      "cumulativeGasUsed": "0xde6ea4",
      "logs": [
        {
          "address": "0x8da83ff5533e7842076f0b66db1dd3c5de06c395",
          "topics": [
            "0xb5856a9700a7e851456d3a16348b4ae0fbb11b06ac0af8dbe8e8652c57cc4cbd",
            "0xb10ce2fd678365bdd6eda5b2cecba4203c6217bb837173fdf3d39dba4e850356",
            "0x000000000000000000000000328735d26e5ada93610f0006c32abe2278c46211",
            "0x0000000000000000000000000000000000000000000000000000000000000002"
          ],
          "data": "0x00000000000000000000000000000000000000000000000000000000000000c000000000000000000000000000000000000000000000000000000000000000e00000000000000000000000000000000000000000000000000000000000a506260000000000000000000000000000000000000000000000000000000000a5063f00000000000000000000000000000000000000000000000000000000000000090000000000000000000000000000000000000000000000000000000000000100000000000000000000000000000000000000000000000000000000000000000000000000000000000000000000000000000000000000000000000000000000000000000000000000000000000000000000000000000000000000000000000026496e6974696174696e6720637265617465206964656173206c617965723a2054656e64696e670000000000000000000000000000000000000000000000000000",
          "blockHash": "0xbd6c7a549e802ae7827b0210c17d0a6a50c333b60f30940a9b2369f2d6cb0919",
          "blockNumber": "0xa50626",
          "blockTimestamp": "0x69fdfcec",
          "transactionHash": "0xfbf30d30c37a541714a0d7228115c219c64a143ea0f2bd30d05c1209e942ae6f",
          "transactionIndex": "0x64",
          "logIndex": "0x215",
          "removed": false
        }
      ],
      "logsBloom": "0x04000000000000000000000001000000000000000000000000000000000000010000000000000000000000000000000000000000000000000000000000000000000000000000000000000000000000000000000000000000000000000000000000000000000000000000000000000000000000000001000000000000000000000000000000000000000000000000000000000000000000000000000000000000000000000000000000000900000000000000000000000000000000000000080000000000000000100000000000008004000000000000000100000000000000000100000000000020000000000000000000000000008000000000000040000000",
      "type": "0x2",
      "transactionHash": "0xfbf30d30c37a541714a0d7228115c219c64a143ea0f2bd30d05c1209e942ae6f",
      "transactionIndex": "0x64",
      "blockHash": "0xbd6c7a549e802ae7827b0210c17d0a6a50c333b60f30940a9b2369f2d6cb0919",
      "blockNumber": "0xa50626",
      "gasUsed": "0x39c2a",
      "effectiveGasPrice": "0xf428a",
      "from": "0x328735d26e5ada93610f0006c32abe2278c46211",
      "to": "0x8da83ff5533e7842076f0b66db1dd3c5de06c395",
      "contractAddress": null
    },
    {
      "status": "0x1",
      "cumulativeGasUsed": "0x17e8a38",
      "logs": [
        {
          "address": "0x8da83ff5533e7842076f0b66db1dd3c5de06c395",
          "topics": [
            "0x5be2678cab71c7d94235767eb1df3c57673f19e805cdc0edbd2e74854ae9f0f9",
            "0x000000000000000000000000ea223f81d7e74321370a77f1e44067be8738b627",
            "0x2aa8a9cb72d6bbfbf6792010d550817310d6454ef0103942307a46f9693341e3",
            "0x0000000000000000000000000000000000000000000000000000000000000001"
          ],
          "data": "0x00000000000000000000000000000000000000000000000000000000000000200000000000000000000000000000000000000000000000000000000000000000",
          "blockHash": "0x7593d3302e2d5c12a805493a94d831aeb3007dbe5dd1cf6859729a4acd4a6380",
          "blockNumber": "0xa50627",
          "blockTimestamp": "0x69fdfcf8",
          "transactionHash": "0x7bffc3ae5a0f239296450f7bfa7a61377137ea624658e47c512af8ad7c790ac2",
          "transactionIndex": "0x82",
          "logIndex": "0x2ae",
          "removed": false
        }
      ],
      "logsBloom": "0x00000100000000000000000008000000000000000000000000000000000000010000000000000000001000000000000000000000000000000000000000040000000000000000000000000000000040000000000000040000000000000000000000000000000000000000000000000000000000000000000000000000000000000000000000000000000000000000000000000000000000000000000000002000000000000000000000000000001000000000000000000000000000000000000000000000000000100008000000000000000000000000000000000000000040000000080000000020000100000000000000000000000000000000000000000000",
      "type": "0x2",
      "transactionHash": "0x7bffc3ae5a0f239296450f7bfa7a61377137ea624658e47c512af8ad7c790ac2",
      "transactionIndex": "0x82",
      "blockHash": "0x7593d3302e2d5c12a805493a94d831aeb3007dbe5dd1cf6859729a4acd4a6380",
      "blockNumber": "0xa50627",
      "gasUsed": "0xfd48",
      "effectiveGasPrice": "0xf428a",
      "from": "0xea223f81d7e74321370a77f1e44067be8738b627",
      "to": "0x8da83ff5533e7842076f0b66db1dd3c5de06c395",
      "contractAddress": null
    },
    {
      "status": "0x1",
      "cumulativeGasUsed": "0x137191c",
      "logs": [
        {
          "address": "0x8da83ff5533e7842076f0b66db1dd3c5de06c395",
          "topics": [
            "0x5be2678cab71c7d94235767eb1df3c57673f19e805cdc0edbd2e74854ae9f0f9",
            "0x0000000000000000000000001bfdb91b283d7ec24012d7ff5a5b29005140d09a",
            "0x2aa8a9cb72d6bbfbf6792010d550817310d6454ef0103942307a46f9693341e3",
            "0x0000000000000000000000000000000000000000000000000000000000000001"
          ],
          "data": "0x00000000000000000000000000000000000000000000000000000000000000200000000000000000000000000000000000000000000000000000000000000000",
          "blockHash": "0x2fce0ee11ba9e80de7c5b6e8a2e2b755e21e20d8185b66824748e2639b1e3007",
          "blockNumber": "0xa50628",
          "blockTimestamp": "0x69fdfd04",
          "transactionHash": "0xb7e8a99c9e6758f29c19727aab01f74ad34c2e105f0de986a65d3ce6f7e2a8b7",
          "transactionIndex": "0x63",
          "logIndex": "0x1d6",
          "removed": false
        }
      ],
      "logsBloom": "0x00000000000000800000000008000000000000000000000000000000000000010000000000000000001000000000000000000000000000000000000000040000000000000000000000000000000040000000000000040000000000000000000000000000000000000000000000000000000000000000000000000000000000000000000000000000000000000000000000000000000000000000000000000000000000000000000000000000001000000000000000000000000000000000000000000000000000100000000000000000000000000000000000000000000040000000080000000020000100000000000000000000000000200000020000000000",
      "type": "0x2",
      "transactionHash": "0xb7e8a99c9e6758f29c19727aab01f74ad34c2e105f0de986a65d3ce6f7e2a8b7",
      "transactionIndex": "0x63",
      "blockHash": "0x2fce0ee11ba9e80de7c5b6e8a2e2b755e21e20d8185b66824748e2639b1e3007",
      "blockNumber": "0xa50628",
      "gasUsed": "0xfd48",
      "effectiveGasPrice": "0xf4289",
      "from": "0x1bfdb91b283d7ec24012d7ff5a5b29005140d09a",
      "to": "0x8da83ff5533e7842076f0b66db1dd3c5de06c395",
      "contractAddress": null
    },
    {
      "status": "0x1",
      "cumulativeGasUsed": "0xc0d5ce",
      "logs": [
        {
          "address": "0x8da83ff5533e7842076f0b66db1dd3c5de06c395",
          "topics": [
            "0x5be2678cab71c7d94235767eb1df3c57673f19e805cdc0edbd2e74854ae9f0f9",
            "0x000000000000000000000000328735d26e5ada93610f0006c32abe2278c46211",
            "0x2aa8a9cb72d6bbfbf6792010d550817310d6454ef0103942307a46f9693341e3",
            "0x0000000000000000000000000000000000000000000000000000000000000001"
          ],
          "data": "0x00000000000000000000000000000000000000000000000000000000000000200000000000000000000000000000000000000000000000000000000000000000",
          "blockHash": "0xb10ed70294a15fb53596b1ebe970514ce8d1daf5ff7e45d62d3223030f4bdd4a",
          "blockNumber": "0xa50629",
          "blockTimestamp": "0x69fdfd10",
          "transactionHash": "0x749efb5ee21ad2ed12d73f3c161dc71b4ab7b7389e687d6147b119a082ec7421",
          "transactionIndex": "0x4d",
          "logIndex": "0x1a0",
          "removed": false
        }
      ],
      "logsBloom": "0x00000000000000000000000008000000000000000000000000000000000000010000000000000000001000000000000000000000000000000000000000040000000000000000000000000000000040000000000000040000000000000000000000000000000000000000000000000000000000000000000000000000000000000000000000000000000000000000000000000000000000000000000000000000000000000000000000000000001000000000000000000000000000000000000000000000000000100000000000008004000000000000000100000000000040000000080000000020000100000000000000000000000000000000000000000000",
      "type": "0x2",
      "transactionHash": "0x749efb5ee21ad2ed12d73f3c161dc71b4ab7b7389e687d6147b119a082ec7421",
      "transactionIndex": "0x4d",
      "blockHash": "0xb10ed70294a15fb53596b1ebe970514ce8d1daf5ff7e45d62d3223030f4bdd4a",
      "blockNumber": "0xa50629",
      "gasUsed": "0xfd48",
      "effectiveGasPrice": "0xf428a",
      "from": "0x328735d26e5ada93610f0006c32abe2278c46211",
      "to": "0x8da83ff5533e7842076f0b66db1dd3c5de06c395",
      "contractAddress": null
    },
    {
      "status": "0x1",
      "cumulativeGasUsed": "0xbc2f63",
      "logs": [
        {
          "address": "0x8da83ff5533e7842076f0b66db1dd3c5de06c395",
          "topics": [
            "0x5be2678cab71c7d94235767eb1df3c57673f19e805cdc0edbd2e74854ae9f0f9",
            "0x000000000000000000000000ea223f81d7e74321370a77f1e44067be8738b627",
            "0x3b831729359220f2ddc9fa72577303ed140cdff1bf11c5c21a0c6c068c7fdf6a",
            "0x0000000000000000000000000000000000000000000000000000000000000001"
          ],
          "data": "0x00000000000000000000000000000000000000000000000000000000000000200000000000000000000000000000000000000000000000000000000000000000",
          "blockHash": "0xcefcf79993ab38db1d09188e82f965c7e5bdd6c7d6b6b39ccce3a0773a40c1b2",
          "blockNumber": "0xa5062a",
          "blockTimestamp": "0x69fdfd1c",
          "transactionHash": "0x2302ac873719b90e204cc1f85629d6254ed686b51dab94a8cc870176d93d8a97",
          "transactionIndex": "0x4e",
          "logIndex": "0x195",
          "removed": false
        }
      ],
      "logsBloom": "0x00000100000000000000000008000000000000000000000000000000000000010000000008000000001000000000000000000000000000000000000000040000000000000000000000000000000000000000000000040000000000000000001000000000000000000000000000040000000000000000000000000000000000000000000000000000000000000000000000000000000000000000000000002000000000000000000000000000001000000000000000000000000000000000000000000000000000100008000000000000000000000000000000000000000040000000000000000020000000000000000000000000000000000000000000000000",
      "type": "0x2",
      "transactionHash": "0x2302ac873719b90e204cc1f85629d6254ed686b51dab94a8cc870176d93d8a97",
      "transactionIndex": "0x4e",
      "blockHash": "0xcefcf79993ab38db1d09188e82f965c7e5bdd6c7d6b6b39ccce3a0773a40c1b2",
      "blockNumber": "0xa5062a",
      "gasUsed": "0xfd48",
      "effectiveGasPrice": "0xf428b",
      "from": "0xea223f81d7e74321370a77f1e44067be8738b627",
      "to": "0x8da83ff5533e7842076f0b66db1dd3c5de06c395",
      "contractAddress": null
    },
    {
      "status": "0x1",
      "cumulativeGasUsed": "0x147548c",
      "logs": [
        {
          "address": "0x8da83ff5533e7842076f0b66db1dd3c5de06c395",
          "topics": [
            "0x5be2678cab71c7d94235767eb1df3c57673f19e805cdc0edbd2e74854ae9f0f9",
            "0x0000000000000000000000001bfdb91b283d7ec24012d7ff5a5b29005140d09a",
            "0x3b831729359220f2ddc9fa72577303ed140cdff1bf11c5c21a0c6c068c7fdf6a",
            "0x0000000000000000000000000000000000000000000000000000000000000001"
          ],
          "data": "0x00000000000000000000000000000000000000000000000000000000000000200000000000000000000000000000000000000000000000000000000000000000",
          "blockHash": "0xd1e89d6bbed210a59145e7369142692ca8a062b17b1385b083da55ba1cce9f5c",
          "blockNumber": "0xa5062b",
          "blockTimestamp": "0x69fdfd28",
          "transactionHash": "0xd9483dbbdf96d8594f1f7de9a68475fedd723c4f341e30b0f8a32da2e5395471",
          "transactionIndex": "0x83",
          "logIndex": "0x24b",
          "removed": false
        }
      ],
      "logsBloom": "0x00000000000000800000000008000000000000000000000000000000000000010000000008000000001000000000000000000000000000000000000000040000000000000000000000000000000000000000000000040000000000000000001000000000000000000000000000040000000000000000000000000000000000000000000000000000000000000000000000000000000000000000000000000000000000000000000000000000001000000000000000000000000000000000000000000000000000100000000000000000000000000000000000000000000040000000000000000020000000000000000000000000000000200000020000000000",
      "type": "0x2",
      "transactionHash": "0xd9483dbbdf96d8594f1f7de9a68475fedd723c4f341e30b0f8a32da2e5395471",
      "transactionIndex": "0x83",
      "blockHash": "0xd1e89d6bbed210a59145e7369142692ca8a062b17b1385b083da55ba1cce9f5c",
      "blockNumber": "0xa5062b",
      "gasUsed": "0xfd48",
      "effectiveGasPrice": "0xf428a",
      "from": "0x1bfdb91b283d7ec24012d7ff5a5b29005140d09a",
      "to": "0x8da83ff5533e7842076f0b66db1dd3c5de06c395",
      "contractAddress": null
    },
    {
      "status": "0x1",
      "cumulativeGasUsed": "0xcd89f5",
      "logs": [
        {
          "address": "0x8da83ff5533e7842076f0b66db1dd3c5de06c395",
          "topics": [
            "0x5be2678cab71c7d94235767eb1df3c57673f19e805cdc0edbd2e74854ae9f0f9",
            "0x000000000000000000000000328735d26e5ada93610f0006c32abe2278c46211",
            "0x3b831729359220f2ddc9fa72577303ed140cdff1bf11c5c21a0c6c068c7fdf6a",
            "0x0000000000000000000000000000000000000000000000000000000000000001"
          ],
          "data": "0x00000000000000000000000000000000000000000000000000000000000000200000000000000000000000000000000000000000000000000000000000000000",
          "blockHash": "0x47af52c4dc22fc9b3c76feb3061d28dd5d727c0e7352c6bf153dbd35b39ef69e",
          "blockNumber": "0xa5062c",
          "blockTimestamp": "0x69fdfd34",
          "transactionHash": "0xcf78a3a86fbb2f590b75867aad6df33ae8dbf3e5946ea387220332e626740fef",
          "transactionIndex": "0x5e",
          "logIndex": "0x1e4",
          "removed": false
        }
      ],
      "logsBloom": "0x00000000000000000000000008000000000000000000000000000000000000010000000008000000001000000000000000000000000000000000000000040000000000000000000000000000000000000000000000040000000000000000001000000000000000000000000000040000000000000000000000000000000000000000000000000000000000000000000000000000000000000000000000000000000000000000000000000000001000000000000000000000000000000000000000000000000000100000000000008004000000000000000100000000000040000000000000000020000000000000000000000000000000000000000000000000",
      "type": "0x2",
      "transactionHash": "0xcf78a3a86fbb2f590b75867aad6df33ae8dbf3e5946ea387220332e626740fef",
      "transactionIndex": "0x5e",
      "blockHash": "0x47af52c4dc22fc9b3c76feb3061d28dd5d727c0e7352c6bf153dbd35b39ef69e",
      "blockNumber": "0xa5062c",
      "gasUsed": "0xfd48",
      "effectiveGasPrice": "0xf428b",
      "from": "0x328735d26e5ada93610f0006c32abe2278c46211",
      "to": "0x8da83ff5533e7842076f0b66db1dd3c5de06c395",
      "contractAddress": null
    },
    {
      "status": "0x1",
      "cumulativeGasUsed": "0x136046c",
      "logs": [
        {
          "address": "0x8da83ff5533e7842076f0b66db1dd3c5de06c395",
          "topics": [
            "0x5be2678cab71c7d94235767eb1df3c57673f19e805cdc0edbd2e74854ae9f0f9",
            "0x000000000000000000000000ea223f81d7e74321370a77f1e44067be8738b627",
            "0x9eb57823fa965ced9343afaae2b07646f511a2f3528c0612c7082b085ad30ed7",
            "0x0000000000000000000000000000000000000000000000000000000000000001"
          ],
          "data": "0x00000000000000000000000000000000000000000000000000000000000000200000000000000000000000000000000000000000000000000000000000000000",
          "blockHash": "0x12366c0b4e04831b46e2d060eba7158682db3c2207e6a804aa90ac291c850444",
          "blockNumber": "0xa5062d",
          "blockTimestamp": "0x69fdfd40",
          "transactionHash": "0xca70ca54510786a6a55c171a29fb7fcd69ef27c5e52c525d9e148b72d90dd764",
          "transactionIndex": "0x61",
          "logIndex": "0x227",
          "removed": false
        }
      ],
      "logsBloom": "0x00000100000000000000000008000000000000000000000000000000000000010000000000000000001000000000000000000000000000000000001000040000000000000000000000000000000000000000000000040000000000000000000000000000000000000000000000000000000000000000000000000000000000000000000000000000000000000000004000000000000000000000000000002000000000000000000000000000001000000000000000000000000000000000000000000000000000100008000000000000000000000000000000000000000040000000000000000020000000000000000080000000000000000000000000000000",
      "type": "0x2",
      "transactionHash": "0xca70ca54510786a6a55c171a29fb7fcd69ef27c5e52c525d9e148b72d90dd764",
      "transactionIndex": "0x61",
      "blockHash": "0x12366c0b4e04831b46e2d060eba7158682db3c2207e6a804aa90ac291c850444",
      "blockNumber": "0xa5062d",
      "gasUsed": "0xfd48",
      "effectiveGasPrice": "0xf428a",
      "from": "0xea223f81d7e74321370a77f1e44067be8738b627",
      "to": "0x8da83ff5533e7842076f0b66db1dd3c5de06c395",
      "contractAddress": null
    },
    {
      "status": "0x1",
      "cumulativeGasUsed": "0x10cb7e6",
      "logs": [
        {
          "address": "0x8da83ff5533e7842076f0b66db1dd3c5de06c395",
          "topics": [
            "0x5be2678cab71c7d94235767eb1df3c57673f19e805cdc0edbd2e74854ae9f0f9",
            "0x0000000000000000000000001bfdb91b283d7ec24012d7ff5a5b29005140d09a",
            "0x9eb57823fa965ced9343afaae2b07646f511a2f3528c0612c7082b085ad30ed7",
            "0x0000000000000000000000000000000000000000000000000000000000000001"
          ],
          "data": "0x00000000000000000000000000000000000000000000000000000000000000200000000000000000000000000000000000000000000000000000000000000000",
          "blockHash": "0xa36d58dac1c20e9c9a963d53facacc352afb241b3cf6c467bae9e6b53141e2d1",
          "blockNumber": "0xa5062e",
          "blockTimestamp": "0x69fdfd58",
          "transactionHash": "0x21fdb39949dea127419a13466b43c1ab22ea3c8584c341dd0f614443d1c3b465",
          "transactionIndex": "0x74",
          "logIndex": "0x1f0",
          "removed": false
        }
      ],
      "logsBloom": "0x00000000000000800000000008000000000000000000000000000000000000010000000000000000001000000000000000000000000000000000001000040000000000000000000000000000000000000000000000040000000000000000000000000000000000000000000000000000000000000000000000000000000000000000000000000000000000000000004000000000000000000000000000000000000000000000000000000000001000000000000000000000000000000000000000000000000000100000000000000000000000000000000000000000000040000000000000000020000000000000000080000000000000200000020000000000",
      "type": "0x2",
      "transactionHash": "0x21fdb39949dea127419a13466b43c1ab22ea3c8584c341dd0f614443d1c3b465",
      "transactionIndex": "0x74",
      "blockHash": "0xa36d58dac1c20e9c9a963d53facacc352afb241b3cf6c467bae9e6b53141e2d1",
      "blockNumber": "0xa5062e",
      "gasUsed": "0xfd48",
      "effectiveGasPrice": "0xf428a",
      "from": "0x1bfdb91b283d7ec24012d7ff5a5b29005140d09a",
      "to": "0x8da83ff5533e7842076f0b66db1dd3c5de06c395",
      "contractAddress": null
    },
    {
      "status": "0x1",
      "cumulativeGasUsed": "0xd397ff",
      "logs": [
        {
          "address": "0x8da83ff5533e7842076f0b66db1dd3c5de06c395",
          "topics": [
            "0x5be2678cab71c7d94235767eb1df3c57673f19e805cdc0edbd2e74854ae9f0f9",
            "0x000000000000000000000000328735d26e5ada93610f0006c32abe2278c46211",
            "0x9eb57823fa965ced9343afaae2b07646f511a2f3528c0612c7082b085ad30ed7",
            "0x0000000000000000000000000000000000000000000000000000000000000001"
          ],
          "data": "0x00000000000000000000000000000000000000000000000000000000000000200000000000000000000000000000000000000000000000000000000000000000",
          "blockHash": "0x5d0af1593efa6c711bb41e4f62c4833006f0ee15745f5c9ad553a99a6b4bae67",
          "blockNumber": "0xa5062f",
          "blockTimestamp": "0x69fdfd64",
          "transactionHash": "0x8b0c7aed53a26d5a3f452cbd7cccaea1457ffc8812906bbe9cd8bc957ed56cae",
          "transactionIndex": "0x54",
          "logIndex": "0x16d",
          "removed": false
        }
      ],
      "logsBloom": "0x00000000000000000000000008000000000000000000000000000000000000010000000000000000001000000000000000000000000000000000001000040000000000000000000000000000000000000000000000040000000000000000000000000000000000000000000000000000000000000000000000000000000000000000000000000000000000000000004000000000000000000000000000000000000000000000000000000000001000000000000000000000000000000000000000000000000000100000000000008004000000000000000100000000000040000000000000000020000000000000000080000000000000000000000000000000",
      "type": "0x2",
      "transactionHash": "0x8b0c7aed53a26d5a3f452cbd7cccaea1457ffc8812906bbe9cd8bc957ed56cae",
      "transactionIndex": "0x54",
      "blockHash": "0x5d0af1593efa6c711bb41e4f62c4833006f0ee15745f5c9ad553a99a6b4bae67",
      "blockNumber": "0xa5062f",
      "gasUsed": "0xfd48",
      "effectiveGasPrice": "0xf428c",
      "from": "0x328735d26e5ada93610f0006c32abe2278c46211",
      "to": "0x8da83ff5533e7842076f0b66db1dd3c5de06c395",
      "contractAddress": null
    },
    {
      "status": "0x1",
      "cumulativeGasUsed": "0x139e22e",
      "logs": [
        {
          "address": "0x8da83ff5533e7842076f0b66db1dd3c5de06c395",
          "topics": [
            "0x5be2678cab71c7d94235767eb1df3c57673f19e805cdc0edbd2e74854ae9f0f9",
            "0x000000000000000000000000ea223f81d7e74321370a77f1e44067be8738b627",
            "0x66d0a15977cc398627479b0e117f7a37979d858edbf330c09ce163567c59d885",
            "0x0000000000000000000000000000000000000000000000000000000000000001"
          ],
          "data": "0x00000000000000000000000000000000000000000000000000000000000000200000000000000000000000000000000000000000000000000000000000000000",
          "blockHash": "0xafaf147da0c479b965775a9c7ec9061353240e4023dc68419fb4b596f61f0313",
          "blockNumber": "0xa50630",
          "blockTimestamp": "0x69fdfd70",
          "transactionHash": "0x54537b7b6bc0a53a1db3ca1faabb3ef008baa68430686e602468ac07218f3a70",
          "transactionIndex": "0x86",
          "logIndex": "0x214",
          "removed": false
        }
      ],
      "logsBloom": "0x00000100000000000000000008000000000000000000000000000000000000010000000000000000001000000000000000000000000000000000000008040000000000000000000000000000000000000000000000040000000000000000000000000000000000000000000000000000000000000000000000000000000000000000000000000000000000000000000000000000000000000000000000002000000000000000000000000000001000000000000000000000000000000000200000000000000000100008000000000000000000000000000000000000000040000000000000000020000000000000000000000000000000800000000000000000",
      "type": "0x2",
      "transactionHash": "0x54537b7b6bc0a53a1db3ca1faabb3ef008baa68430686e602468ac07218f3a70",
      "transactionIndex": "0x86",
      "blockHash": "0xafaf147da0c479b965775a9c7ec9061353240e4023dc68419fb4b596f61f0313",
      "blockNumber": "0xa50630",
      "gasUsed": "0xfd48",
      "effectiveGasPrice": "0xf428c",
      "from": "0xea223f81d7e74321370a77f1e44067be8738b627",
      "to": "0x8da83ff5533e7842076f0b66db1dd3c5de06c395",
      "contractAddress": null
    },
    {
      "status": "0x1",
      "cumulativeGasUsed": "0x164574e",
      "logs": [
        {
          "address": "0x8da83ff5533e7842076f0b66db1dd3c5de06c395",
          "topics": [
            "0x5be2678cab71c7d94235767eb1df3c57673f19e805cdc0edbd2e74854ae9f0f9",
            "0x0000000000000000000000001bfdb91b283d7ec24012d7ff5a5b29005140d09a",
            "0x66d0a15977cc398627479b0e117f7a37979d858edbf330c09ce163567c59d885",
            "0x0000000000000000000000000000000000000000000000000000000000000001"
          ],
          "data": "0x00000000000000000000000000000000000000000000000000000000000000200000000000000000000000000000000000000000000000000000000000000000",
          "blockHash": "0x503e43539af6498cc8cc07422e2bd101c1a5cf49ff5ec95fd0b7c578c9d73ee5",
          "blockNumber": "0xa50631",
          "blockTimestamp": "0x69fdfd7c",
          "transactionHash": "0x1f8f42229756a42b9b4aec53d0a6a25ad6d2b18aa4de6a835e0ffecf4ac2b9a8",
          "transactionIndex": "0x96",
          "logIndex": "0x275",
          "removed": false
        }
      ],
      "logsBloom": "0x00000000000000800000000008000000000000000000000000000000000000010000000000000000001000000000000000000000000000000000000008040000000000000000000000000000000000000000000000040000000000000000000000000000000000000000000000000000000000000000000000000000000000000000000000000000000000000000000000000000000000000000000000000000000000000000000000000000001000000000000000000000000000000000200000000000000000100000000000000000000000000000000000000000000040000000000000000020000000000000000000000000000000a00000020000000000",
      "type": "0x2",
      "transactionHash": "0x1f8f42229756a42b9b4aec53d0a6a25ad6d2b18aa4de6a835e0ffecf4ac2b9a8",
      "transactionIndex": "0x96",
      "blockHash": "0x503e43539af6498cc8cc07422e2bd101c1a5cf49ff5ec95fd0b7c578c9d73ee5",
      "blockNumber": "0xa50631",
      "gasUsed": "0xfd48",
      "effectiveGasPrice": "0xf428c",
      "from": "0x1bfdb91b283d7ec24012d7ff5a5b29005140d09a",
      "to": "0x8da83ff5533e7842076f0b66db1dd3c5de06c395",
      "contractAddress": null
    },
    {
      "status": "0x1",
      "cumulativeGasUsed": "0xea0518",
      "logs": [
        {
          "address": "0x8da83ff5533e7842076f0b66db1dd3c5de06c395",
          "topics": [
            "0x5be2678cab71c7d94235767eb1df3c57673f19e805cdc0edbd2e74854ae9f0f9",
            "0x000000000000000000000000328735d26e5ada93610f0006c32abe2278c46211",
            "0x66d0a15977cc398627479b0e117f7a37979d858edbf330c09ce163567c59d885",
            "0x0000000000000000000000000000000000000000000000000000000000000001"
          ],
          "data": "0x00000000000000000000000000000000000000000000000000000000000000200000000000000000000000000000000000000000000000000000000000000000",
          "blockHash": "0x7d8443e28f38336d1b016d3c7d0447483c76d4113cc54454257da3063895d5c8",
          "blockNumber": "0xa50632",
          "blockTimestamp": "0x69fdfd88",
          "transactionHash": "0xd5a6bd828ec7fcd432003968cf5eacfd189269d82b189376ddbf10782575b042",
          "transactionIndex": "0x64",
          "logIndex": "0x1f1",
          "removed": false
        }
      ],
      "logsBloom": "0x00000000000000000000000008000000000000000000000000000000000000010000000000000000001000000000000000000000000000000000000008040000000000000000000000000000000000000000000000040000000000000000000000000000000000000000000000000000000000000000000000000000000000000000000000000000000000000000000000000000000000000000000000000000000000000000000000000000001000000000000000000000000000000000200000000000000000100000000000008004000000000000000100000000000040000000000000000020000000000000000000000000000000800000000000000000",
      "type": "0x2",
      "transactionHash": "0xd5a6bd828ec7fcd432003968cf5eacfd189269d82b189376ddbf10782575b042",
      "transactionIndex": "0x64",
      "blockHash": "0x7d8443e28f38336d1b016d3c7d0447483c76d4113cc54454257da3063895d5c8",
      "blockNumber": "0xa50632",
      "gasUsed": "0xfd48",
      "effectiveGasPrice": "0xf428b",
      "from": "0x328735d26e5ada93610f0006c32abe2278c46211",
      "to": "0x8da83ff5533e7842076f0b66db1dd3c5de06c395",
      "contractAddress": null
    },
    {
      "status": "0x1",
      "cumulativeGasUsed": "0x1988019",
      "logs": [
        {
          "address": "0x8da83ff5533e7842076f0b66db1dd3c5de06c395",
          "topics": [
            "0x5be2678cab71c7d94235767eb1df3c57673f19e805cdc0edbd2e74854ae9f0f9",
            "0x000000000000000000000000ea223f81d7e74321370a77f1e44067be8738b627",
            "0xabcd792dc57424228a018d4b06404363684e17c59085564b76b3968dd7f7f622",
            "0x0000000000000000000000000000000000000000000000000000000000000001"
          ],
          "data": "0x00000000000000000000000000000000000000000000000000000000000000200000000000000000000000000000000000000000000000000000000000000000",
          "blockHash": "0xf71bfcccefb7f4f2940a1171971f69e6957a3fae2de6dec4899d5b89d93b43ed",
          "blockNumber": "0xa50633",
          "blockTimestamp": "0x69fdfda0",
          "transactionHash": "0x3b928ec028903da5fbaae5e99b3b241ab3139d8c8bcf054997814487f4a86e22",
          "transactionIndex": "0xa8",
          "logIndex": "0x2d6",
          "removed": false
        }
      ],
      "logsBloom": "0x00000100000000000000000008000000000000000000000000000000000000010000000000000000001000020000000000000000000000400000000000040000000000000000000000000000000000000000000000040000000000000000000000000040000000000000000000000000000000000000000000000000000000000000000000000000000000000000000000000000000000000000000000002000000000000000000000000000001000000000000000000000000000000000000000000000000000100008000000000000000000000000000000000000000040000000000000000020000000000000000000000000000000000000000000000000",
      "type": "0x2",
      "transactionHash": "0x3b928ec028903da5fbaae5e99b3b241ab3139d8c8bcf054997814487f4a86e22",
      "transactionIndex": "0xa8",
      "blockHash": "0xf71bfcccefb7f4f2940a1171971f69e6957a3fae2de6dec4899d5b89d93b43ed",
      "blockNumber": "0xa50633",
      "gasUsed": "0xfd48",
      "effectiveGasPrice": "0xf428a",
      "from": "0xea223f81d7e74321370a77f1e44067be8738b627",
      "to": "0x8da83ff5533e7842076f0b66db1dd3c5de06c395",
      "contractAddress": null
    },
    {
      "status": "0x1",
      "cumulativeGasUsed": "0x9ca409",
      "logs": [
        {
          "address": "0x8da83ff5533e7842076f0b66db1dd3c5de06c395",
          "topics": [
            "0x5be2678cab71c7d94235767eb1df3c57673f19e805cdc0edbd2e74854ae9f0f9",
            "0x0000000000000000000000001bfdb91b283d7ec24012d7ff5a5b29005140d09a",
            "0xabcd792dc57424228a018d4b06404363684e17c59085564b76b3968dd7f7f622",
            "0x0000000000000000000000000000000000000000000000000000000000000001"
          ],
          "data": "0x00000000000000000000000000000000000000000000000000000000000000200000000000000000000000000000000000000000000000000000000000000000",
          "blockHash": "0x784753e7d474311fe53340f7ce167d6eca7b07d6f855f079b72d762e274a34aa",
          "blockNumber": "0xa50634",
          "blockTimestamp": "0x69fdfdac",
          "transactionHash": "0x99f4fbd83ad26775fcf029d46e5f2b79a7fb56db28e2d62f7a90774d6d32f32f",
          "transactionIndex": "0x41",
          "logIndex": "0x10f",
          "removed": false
        }
      ],
      "logsBloom": "0x00000000000000800000000008000000000000000000000000000000000000010000000000000000001000020000000000000000000000400000000000040000000000000000000000000000000000000000000000040000000000000000000000000040000000000000000000000000000000000000000000000000000000000000000000000000000000000000000000000000000000000000000000000000000000000000000000000000001000000000000000000000000000000000000000000000000000100000000000000000000000000000000000000000000040000000000000000020000000000000000000000000000000200000020000000000",
      "type": "0x2",
      "transactionHash": "0x99f4fbd83ad26775fcf029d46e5f2b79a7fb56db28e2d62f7a90774d6d32f32f",
      "transactionIndex": "0x41",
      "blockHash": "0x784753e7d474311fe53340f7ce167d6eca7b07d6f855f079b72d762e274a34aa",
      "blockNumber": "0xa50634",
      "gasUsed": "0xfd48",
      "effectiveGasPrice": "0xf428c",
      "from": "0x1bfdb91b283d7ec24012d7ff5a5b29005140d09a",
      "to": "0x8da83ff5533e7842076f0b66db1dd3c5de06c395",
      "contractAddress": null
    },
    {
      "status": "0x1",
      "cumulativeGasUsed": "0xb29383",
      "logs": [
        {
          "address": "0x8da83ff5533e7842076f0b66db1dd3c5de06c395",
          "topics": [
            "0x5be2678cab71c7d94235767eb1df3c57673f19e805cdc0edbd2e74854ae9f0f9",
            "0x000000000000000000000000328735d26e5ada93610f0006c32abe2278c46211",
            "0xabcd792dc57424228a018d4b06404363684e17c59085564b76b3968dd7f7f622",
            "0x0000000000000000000000000000000000000000000000000000000000000001"
          ],
          "data": "0x00000000000000000000000000000000000000000000000000000000000000200000000000000000000000000000000000000000000000000000000000000000",
          "blockHash": "0xa13930a820382e99801bc80a5d5369fda44bb1f6a74514aeafb61befac43490f",
          "blockNumber": "0xa50635",
          "blockTimestamp": "0x69fdfdb8",
          "transactionHash": "0x7d857ca247c736345097567cb0492f7dc411e27c55fe3c6e018a33a5362534a4",
          "transactionIndex": "0x55",
          "logIndex": "0x14f",
          "removed": false
        }
      ],
      "logsBloom": "0x00000000000000000000000008000000000000000000000000000000000000010000000000000000001000020000000000000000000000400000000000040000000000000000000000000000000000000000000000040000000000000000000000000040000000000000000000000000000000000000000000000000000000000000000000000000000000000000000000000000000000000000000000000000000000000000000000000000001000000000000000000000000000000000000000000000000000100000000000008004000000000000000100000000000040000000000000000020000000000000000000000000000000000000000000000000",
      "type": "0x2",
      "transactionHash": "0x7d857ca247c736345097567cb0492f7dc411e27c55fe3c6e018a33a5362534a4",
      "transactionIndex": "0x55",
      "blockHash": "0xa13930a820382e99801bc80a5d5369fda44bb1f6a74514aeafb61befac43490f",
      "blockNumber": "0xa50635",
      "gasUsed": "0xfd48",
      "effectiveGasPrice": "0xf428a",
      "from": "0x328735d26e5ada93610f0006c32abe2278c46211",
      "to": "0x8da83ff5533e7842076f0b66db1dd3c5de06c395",
      "contractAddress": null
    },
    {
      "status": "0x1",
      "cumulativeGasUsed": "0x12a7651",
      "logs": [
        {
          "address": "0x8da83ff5533e7842076f0b66db1dd3c5de06c395",
          "topics": [
            "0x5be2678cab71c7d94235767eb1df3c57673f19e805cdc0edbd2e74854ae9f0f9",
            "0x000000000000000000000000ea223f81d7e74321370a77f1e44067be8738b627",
            "0x18c1f22b768e98354c869cef24b0266377ee216ad2b74c2b8ea6c1ebfd3bb5e7",
            "0x0000000000000000000000000000000000000000000000000000000000000001"
          ],
          "data": "0x00000000000000000000000000000000000000000000000000000000000000200000000000000000000000000000000000000000000000000000000000000000",
          "blockHash": "0x7dfe7268303dca0cea0c6087a4f707b35e725f2bd6daec5187c7d2734488efc0",
          "blockNumber": "0xa50636",
          "blockTimestamp": "0x69fdfdc4",
          "transactionHash": "0xa7b0e2ef7fcee78a89c4cf115e3775967cdf7e964a7d689cba8b44756559bee7",
          "transactionIndex": "0x7c",
          "logIndex": "0x23d",
          "removed": false
        }
      ],
      "logsBloom": "0x00000100000000000000000008000000000000000000000000000000000000010000000000000000001000000000000000000000000000000000000000040000000000000000000000000000000000000000000000040000000000000000000000000000000000000000000000000000000000000000000000000000000000000000000000000000000000000000000000000000000000000000000000002000000800000002000000000000001000000000000000000000000000000000000000000000000000100008000000000000000000000000000000000000000040000000000000000020000000000000000000000000000000000000000008000000",
      "type": "0x2",
      "transactionHash": "0xa7b0e2ef7fcee78a89c4cf115e3775967cdf7e964a7d689cba8b44756559bee7",
      "transactionIndex": "0x7c",
      "blockHash": "0x7dfe7268303dca0cea0c6087a4f707b35e725f2bd6daec5187c7d2734488efc0",
      "blockNumber": "0xa50636",
      "gasUsed": "0xfd48",
      "effectiveGasPrice": "0xf4288",
      "from": "0xea223f81d7e74321370a77f1e44067be8738b627",
      "to": "0x8da83ff5533e7842076f0b66db1dd3c5de06c395",
      "contractAddress": null
    },
    {
      "status": "0x1",
      "cumulativeGasUsed": "0xc46f6c",
      "logs": [
        {
          "address": "0x8da83ff5533e7842076f0b66db1dd3c5de06c395",
          "topics": [
            "0x5be2678cab71c7d94235767eb1df3c57673f19e805cdc0edbd2e74854ae9f0f9",
            "0x0000000000000000000000001bfdb91b283d7ec24012d7ff5a5b29005140d09a",
            "0x18c1f22b768e98354c869cef24b0266377ee216ad2b74c2b8ea6c1ebfd3bb5e7",
            "0x0000000000000000000000000000000000000000000000000000000000000001"
          ],
          "data": "0x00000000000000000000000000000000000000000000000000000000000000200000000000000000000000000000000000000000000000000000000000000000",
          "blockHash": "0xd5fc12fb7a52cb3ad878d98c4012ff1eff696eef4303b5730e4db68edbd3c762",
          "blockNumber": "0xa50637",
          "blockTimestamp": "0x69fdfdd0",
          "transactionHash": "0xf5a8e85b01e97e165a4f4866e09204ea10d75c179daf652b4ab45ea60ac2e21c",
          "transactionIndex": "0x43",
          "logIndex": "0x16a",
          "removed": false
        }
      ],
      "logsBloom": "0x00000000000000800000000008000000000000000000000000000000000000010000000000000000001000000000000000000000000000000000000000040000000000000000000000000000000000000000000000040000000000000000000000000000000000000000000000000000000000000000000000000000000000000000000000000000000000000000000000000000000000000000000000000000000800000002000000000000001000000000000000000000000000000000000000000000000000100000000000000000000000000000000000000000000040000000000000000020000000000000000000000000000000200000020008000000",
      "type": "0x2",
      "transactionHash": "0xf5a8e85b01e97e165a4f4866e09204ea10d75c179daf652b4ab45ea60ac2e21c",
      "transactionIndex": "0x43",
      "blockHash": "0xd5fc12fb7a52cb3ad878d98c4012ff1eff696eef4303b5730e4db68edbd3c762",
      "blockNumber": "0xa50637",
      "gasUsed": "0xfd48",
      "effectiveGasPrice": "0xf4288",
      "from": "0x1bfdb91b283d7ec24012d7ff5a5b29005140d09a",
      "to": "0x8da83ff5533e7842076f0b66db1dd3c5de06c395",
      "contractAddress": null
    },
    {
      "status": "0x1",
      "cumulativeGasUsed": "0xd8743d",
      "logs": [
        {
          "address": "0x8da83ff5533e7842076f0b66db1dd3c5de06c395",
          "topics": [
            "0x5be2678cab71c7d94235767eb1df3c57673f19e805cdc0edbd2e74854ae9f0f9",
            "0x000000000000000000000000328735d26e5ada93610f0006c32abe2278c46211",
            "0x18c1f22b768e98354c869cef24b0266377ee216ad2b74c2b8ea6c1ebfd3bb5e7",
            "0x0000000000000000000000000000000000000000000000000000000000000001"
          ],
          "data": "0x00000000000000000000000000000000000000000000000000000000000000200000000000000000000000000000000000000000000000000000000000000000",
          "blockHash": "0xda9f0175ebe1a05898a438b0bbc6b059b05b32b5b237cbe28a2a5ae206eb08d2",
          "blockNumber": "0xa50638",
          "blockTimestamp": "0x69fdfddc",
          "transactionHash": "0x366956f4fe1b5fad9c765c518600f22880429a877d9565e149ab4b003145dcb4",
          "transactionIndex": "0x47",
          "logIndex": "0x1a5",
          "removed": false
        }
      ],
      "logsBloom": "0x00000000000000000000000008000000000000000000000000000000000000010000000000000000001000000000000000000000000000000000000000040000000000000000000000000000000000000000000000040000000000000000000000000000000000000000000000000000000000000000000000000000000000000000000000000000000000000000000000000000000000000000000000000000000800000002000000000000001000000000000000000000000000000000000000000000000000100000000000008004000000000000000100000000000040000000000000000020000000000000000000000000000000000000000008000000",
      "type": "0x2",
      "transactionHash": "0x366956f4fe1b5fad9c765c518600f22880429a877d9565e149ab4b003145dcb4",
      "transactionIndex": "0x47",
      "blockHash": "0xda9f0175ebe1a05898a438b0bbc6b059b05b32b5b237cbe28a2a5ae206eb08d2",
      "blockNumber": "0xa50638",
      "gasUsed": "0xfd48",
      "effectiveGasPrice": "0xf4287",
      "from": "0x328735d26e5ada93610f0006c32abe2278c46211",
      "to": "0x8da83ff5533e7842076f0b66db1dd3c5de06c395",
      "contractAddress": null
    },
    {
      "status": "0x1",
      "cumulativeGasUsed": "0xb6cdd6",
      "logs": [
        {
          "address": "0x8da83ff5533e7842076f0b66db1dd3c5de06c395",
          "topics": [
            "0x5be2678cab71c7d94235767eb1df3c57673f19e805cdc0edbd2e74854ae9f0f9",
            "0x000000000000000000000000ea223f81d7e74321370a77f1e44067be8738b627",
            "0xb10ce2fd678365bdd6eda5b2cecba4203c6217bb837173fdf3d39dba4e850356",
            "0x0000000000000000000000000000000000000000000000000000000000000001"
          ],
          "data": "0x00000000000000000000000000000000000000000000000000000000000000200000000000000000000000000000000000000000000000000000000000000000",
          "blockHash": "0x806f7fb895aa994a3c916624c2027ef5b042b4517a8acfe5bcf3bac9fce951c4",
          "blockNumber": "0xa50639",
          "blockTimestamp": "0x69fdfde8",
          "transactionHash": "0xbd63320553d6b7d0f9ebdb640032521fe8e843fe646454f476e77fa14e58bfc4",
          "transactionIndex": "0x43",
          "logIndex": "0x1e7",
          "removed": false
        }
      ],
      "logsBloom": "0x00000100000000000000000009000000000000000000000000000000000000010000000000000000001000000000000000000000000000000000000000040000000000000000000000000000000000000000000000040000000000000000000000000000000000000000000000000000000000000000000000000000000000000000000000000000000000000000000000000000000000000000000000002000000000000000000000000800001000000000000000000000000000000000080000000000000000100008000000000000000000000000000000000000000040000000000000000020000000000000000000000000000000000000000000000000",
      "type": "0x2",
      "transactionHash": "0xbd63320553d6b7d0f9ebdb640032521fe8e843fe646454f476e77fa14e58bfc4",
      "transactionIndex": "0x43",
      "blockHash": "0x806f7fb895aa994a3c916624c2027ef5b042b4517a8acfe5bcf3bac9fce951c4",
      "blockNumber": "0xa50639",
      "gasUsed": "0xfd48",
      "effectiveGasPrice": "0xf4287",
      "from": "0xea223f81d7e74321370a77f1e44067be8738b627",
      "to": "0x8da83ff5533e7842076f0b66db1dd3c5de06c395",
      "contractAddress": null
    },
    {
      "status": "0x1",
      "cumulativeGasUsed": "0xa523b8",
      "logs": [
        {
          "address": "0x8da83ff5533e7842076f0b66db1dd3c5de06c395",
          "topics": [
            "0x5be2678cab71c7d94235767eb1df3c57673f19e805cdc0edbd2e74854ae9f0f9",
            "0x0000000000000000000000001bfdb91b283d7ec24012d7ff5a5b29005140d09a",
            "0xb10ce2fd678365bdd6eda5b2cecba4203c6217bb837173fdf3d39dba4e850356",
            "0x0000000000000000000000000000000000000000000000000000000000000001"
          ],
          "data": "0x00000000000000000000000000000000000000000000000000000000000000200000000000000000000000000000000000000000000000000000000000000000",
          "blockHash": "0x6a2a1a667f7217a325e75afef24ff4ea7769c09b6fddb79387ead4c566573ca3",
          "blockNumber": "0xa5063a",
          "blockTimestamp": "0x69fdfdf4",
          "transactionHash": "0x9b7c3d6c21807e65fc1c4ab5490be8349afc111304eba0125b8fc34fa70e5114",
          "transactionIndex": "0x45",
          "logIndex": "0x155",
          "removed": false
        }
      ],
      "logsBloom": "0x00000000000000800000000009000000000000000000000000000000000000010000000000000000001000000000000000000000000000000000000000040000000000000000000000000000000000000000000000040000000000000000000000000000000000000000000000000000000000000000000000000000000000000000000000000000000000000000000000000000000000000000000000000000000000000000000000000800001000000000000000000000000000000000080000000000000000100000000000000000000000000000000000000000000040000000000000000020000000000000000000000000000000200000020000000000",
      "type": "0x2",
      "transactionHash": "0x9b7c3d6c21807e65fc1c4ab5490be8349afc111304eba0125b8fc34fa70e5114",
      "transactionIndex": "0x45",
      "blockHash": "0x6a2a1a667f7217a325e75afef24ff4ea7769c09b6fddb79387ead4c566573ca3",
      "blockNumber": "0xa5063a",
      "gasUsed": "0xfd48",
      "effectiveGasPrice": "0xf4286",
      "from": "0x1bfdb91b283d7ec24012d7ff5a5b29005140d09a",
      "to": "0x8da83ff5533e7842076f0b66db1dd3c5de06c395",
      "contractAddress": null
    },
    {
      "status": "0x1",
      "cumulativeGasUsed": "0xeb6512",
      "logs": [
        {
          "address": "0x8da83ff5533e7842076f0b66db1dd3c5de06c395",
          "topics": [
            "0x5be2678cab71c7d94235767eb1df3c57673f19e805cdc0edbd2e74854ae9f0f9",
            "0x000000000000000000000000328735d26e5ada93610f0006c32abe2278c46211",
            "0xb10ce2fd678365bdd6eda5b2cecba4203c6217bb837173fdf3d39dba4e850356",
            "0x0000000000000000000000000000000000000000000000000000000000000001"
          ],
          "data": "0x00000000000000000000000000000000000000000000000000000000000000200000000000000000000000000000000000000000000000000000000000000000",
          "blockHash": "0xcb9c3887f080a11c4bdd2912962fdf40f6c68e896a78ca13a6efc07117e1ca2a",
          "blockNumber": "0xa5063b",
          "blockTimestamp": "0x69fdfe00",
          "transactionHash": "0xb54fc5c98cfc244e7200337f3ba22846ce491c178c1b1ac0e07d6fe7cc61fa15",
          "transactionIndex": "0x6b",
          "logIndex": "0x19e",
          "removed": false
        }
      ],
      "logsBloom": "0x00000000000000000000000009000000000000000000000000000000000000010000000000000000001000000000000000000000000000000000000000040000000000000000000000000000000000000000000000040000000000000000000000000000000000000000000000000000000000000000000000000000000000000000000000000000000000000000000000000000000000000000000000000000000000000000000000000800001000000000000000000000000000000000080000000000000000100000000000008004000000000000000100000000000040000000000000000020000000000000000000000000000000000000000000000000",
      "type": "0x2",
      "transactionHash": "0xb54fc5c98cfc244e7200337f3ba22846ce491c178c1b1ac0e07d6fe7cc61fa15",
      "transactionIndex": "0x6b",
      "blockHash": "0xcb9c3887f080a11c4bdd2912962fdf40f6c68e896a78ca13a6efc07117e1ca2a",
      "blockNumber": "0xa5063b",
      "gasUsed": "0xfd48",
      "effectiveGasPrice": "0xf4284",
      "from": "0x328735d26e5ada93610f0006c32abe2278c46211",
      "to": "0x8da83ff5533e7842076f0b66db1dd3c5de06c395",
      "contractAddress": null
    }
  ],
  "libraries": [],
  "pending": [],
  "returns": {},
  "timestamp": 1778253312425,
  "chain": 11155111,
  "commit": "fddcd23"
}